{
  "_format": "hh-sol-artifact-1",
  "contractName": "ImpressoVotable",
  "sourceName": "contracts/ImpressoVotable.sol",
  "abi": [
    {
      "anonymous": false,
      "inputs": [
        {
          "indexed": false,
          "internalType": "address",
          "name": "previousAdmin",
          "type": "address"
        },
        {
          "indexed": false,
          "internalType": "address",
          "name": "newAdmin",
          "type": "address"
        }
      ],
      "name": "AdminChanged",
      "type": "event"
    },
    {
      "anonymous": false,
      "inputs": [
        {
          "indexed": true,
          "internalType": "address",
          "name": "owner",
          "type": "address"
        },
        {
          "indexed": true,
          "internalType": "address",
          "name": "spender",
          "type": "address"
        },
        {
          "indexed": false,
          "internalType": "uint256",
          "name": "value",
          "type": "uint256"
        }
      ],
      "name": "Approval",
      "type": "event"
    },
    {
      "anonymous": false,
      "inputs": [
        {
          "indexed": true,
          "internalType": "address",
          "name": "beacon",
          "type": "address"
        }
      ],
      "name": "BeaconUpgraded",
      "type": "event"
    },
    {
      "anonymous": false,
      "inputs": [
        {
          "indexed": false,
          "internalType": "uint8",
          "name": "version",
          "type": "uint8"
        }
      ],
      "name": "Initialized",
      "type": "event"
    },
    {
      "anonymous": false,
      "inputs": [
        {
          "indexed": true,
          "internalType": "address",
          "name": "previousOwner",
          "type": "address"
        },
        {
          "indexed": true,
          "internalType": "address",
          "name": "newOwner",
          "type": "address"
        }
      ],
      "name": "OwnershipTransferred",
      "type": "event"
    },
    {
      "anonymous": false,
      "inputs": [
        {
          "indexed": false,
          "internalType": "address",
          "name": "account",
          "type": "address"
        }
      ],
      "name": "Paused",
      "type": "event"
    },
    {
      "anonymous": false,
      "inputs": [
        {
          "indexed": true,
          "internalType": "address",
          "name": "from",
          "type": "address"
        },
        {
          "indexed": true,
          "internalType": "address",
          "name": "to",
          "type": "address"
        },
        {
          "indexed": false,
          "internalType": "uint256",
          "name": "value",
          "type": "uint256"
        }
      ],
      "name": "Transfer",
      "type": "event"
    },
    {
      "anonymous": false,
      "inputs": [
        {
          "indexed": false,
          "internalType": "address",
          "name": "account",
          "type": "address"
        }
      ],
      "name": "Unpaused",
      "type": "event"
    },
    {
      "anonymous": false,
      "inputs": [
        {
          "indexed": true,
          "internalType": "address",
          "name": "implementation",
          "type": "address"
        }
      ],
      "name": "Upgraded",
      "type": "event"
    },
    {
      "anonymous": false,
      "inputs": [
        {
          "indexed": false,
          "internalType": "string",
          "name": "title",
          "type": "string"
        },
        {
          "indexed": false,
          "internalType": "address",
          "name": "voterAddress",
          "type": "address"
        }
      ],
      "name": "Vote",
      "type": "event"
    },
    {
      "anonymous": false,
      "inputs": [
        {
          "indexed": false,
          "internalType": "string",
          "name": "title",
          "type": "string"
        }
      ],
      "name": "VotingEnded",
      "type": "event"
    },
    {
      "anonymous": false,
      "inputs": [
        {
          "indexed": false,
          "internalType": "string",
          "name": "title",
          "type": "string"
        },
        {
          "indexed": false,
          "internalType": "uint256",
          "name": "votesNeeded",
          "type": "uint256"
        }
      ],
      "name": "VotingStarted",
      "type": "event"
    },
    {
      "inputs": [
        {
          "internalType": "uint256",
          "name": "",
          "type": "uint256"
        }
      ],
      "name": "_commissionAddresses",
      "outputs": [
        {
          "internalType": "address",
          "name": "",
          "type": "address"
        }
      ],
      "stateMutability": "view",
      "type": "function"
    },
    {
      "inputs": [],
      "name": "_maxTotalSupply",
      "outputs": [
        {
          "internalType": "uint256",
          "name": "",
          "type": "uint256"
        }
      ],
      "stateMutability": "view",
      "type": "function"
    },
    {
      "inputs": [
        {
          "internalType": "address",
          "name": "owner",
          "type": "address"
        },
        {
          "internalType": "address",
          "name": "spender",
          "type": "address"
        }
      ],
      "name": "allowance",
      "outputs": [
        {
          "internalType": "uint256",
          "name": "",
          "type": "uint256"
        }
      ],
      "stateMutability": "view",
      "type": "function"
    },
    {
      "inputs": [
        {
          "internalType": "address",
          "name": "spender",
          "type": "address"
        },
        {
          "internalType": "uint256",
          "name": "amount",
          "type": "uint256"
        }
      ],
      "name": "approve",
      "outputs": [
        {
          "internalType": "bool",
          "name": "",
          "type": "bool"
        }
      ],
      "stateMutability": "nonpayable",
      "type": "function"
    },
    {
      "inputs": [
        {
          "internalType": "address",
          "name": "account",
          "type": "address"
        }
      ],
      "name": "balanceOf",
      "outputs": [
        {
          "internalType": "uint256",
          "name": "",
          "type": "uint256"
        }
      ],
      "stateMutability": "view",
      "type": "function"
    },
    {
      "inputs": [
        {
          "internalType": "address",
          "name": "voter",
          "type": "address"
        }
      ],
      "name": "blacklistVoter",
      "outputs": [],
      "stateMutability": "nonpayable",
      "type": "function"
    },
    {
      "inputs": [
        {
          "internalType": "uint256",
          "name": "amount",
          "type": "uint256"
        }
      ],
      "name": "burn",
      "outputs": [],
      "stateMutability": "nonpayable",
      "type": "function"
    },
    {
      "inputs": [
        {
          "internalType": "address",
          "name": "account",
          "type": "address"
        },
        {
          "internalType": "uint256",
          "name": "amount",
          "type": "uint256"
        }
      ],
      "name": "burnFrom",
      "outputs": [],
      "stateMutability": "nonpayable",
      "type": "function"
    },
    {
      "inputs": [
        {
          "internalType": "string",
          "name": "title",
          "type": "string"
        },
        {
          "internalType": "uint256",
          "name": "votesNeeded",
          "type": "uint256"
        }
      ],
      "name": "createVoting",
      "outputs": [],
      "stateMutability": "nonpayable",
      "type": "function"
    },
    {
      "inputs": [],
      "name": "decimals",
      "outputs": [
        {
          "internalType": "uint8",
          "name": "",
          "type": "uint8"
        }
      ],
      "stateMutability": "view",
      "type": "function"
    },
    {
      "inputs": [
        {
          "internalType": "address",
          "name": "spender",
          "type": "address"
        },
        {
          "internalType": "uint256",
          "name": "subtractedValue",
          "type": "uint256"
        }
      ],
      "name": "decreaseAllowance",
      "outputs": [
        {
          "internalType": "bool",
          "name": "",
          "type": "bool"
        }
      ],
      "stateMutability": "nonpayable",
      "type": "function"
    },
    {
      "inputs": [
        {
          "internalType": "address",
          "name": "addr",
          "type": "address"
        }
      ],
      "name": "getCommissionPercentage",
      "outputs": [
        {
          "internalType": "uint256",
          "name": "",
          "type": "uint256"
        }
      ],
      "stateMutability": "view",
      "type": "function"
    },
    {
      "inputs": [
        {
          "internalType": "address",
          "name": "spender",
          "type": "address"
        },
        {
          "internalType": "uint256",
          "name": "addedValue",
          "type": "uint256"
        }
      ],
      "name": "increaseAllowance",
      "outputs": [
        {
          "internalType": "bool",
          "name": "",
          "type": "bool"
        }
      ],
      "stateMutability": "nonpayable",
      "type": "function"
    },
    {
      "inputs": [
        {
          "internalType": "string",
          "name": "name",
          "type": "string"
        },
        {
          "internalType": "string",
          "name": "symbol",
          "type": "string"
        },
        {
          "internalType": "uint256",
          "name": "maxTotalSupply",
          "type": "uint256"
        },
        {
          "internalType": "bool",
          "name": "useMaxTotalSupply",
          "type": "bool"
        }
      ],
      "name": "initialize",
      "outputs": [],
      "stateMutability": "nonpayable",
      "type": "function"
    },
    {
      "inputs": [
        {
          "internalType": "string",
          "name": "",
          "type": "string"
        }
      ],
      "name": "isVotingActive",
      "outputs": [
        {
          "internalType": "bool",
          "name": "",
          "type": "bool"
        }
      ],
      "stateMutability": "view",
      "type": "function"
    },
    {
      "inputs": [
        {
          "internalType": "address",
          "name": "to",
          "type": "address"
        },
        {
          "internalType": "uint256",
          "name": "amount",
          "type": "uint256"
        }
      ],
      "name": "mint",
      "outputs": [],
      "stateMutability": "nonpayable",
      "type": "function"
    },
    {
      "inputs": [],
      "name": "name",
      "outputs": [
        {
          "internalType": "string",
          "name": "",
          "type": "string"
        }
      ],
      "stateMutability": "view",
      "type": "function"
    },
    {
      "inputs": [],
      "name": "owner",
      "outputs": [
        {
          "internalType": "address",
          "name": "",
          "type": "address"
        }
      ],
      "stateMutability": "view",
      "type": "function"
    },
    {
      "inputs": [],
      "name": "pause",
      "outputs": [],
      "stateMutability": "nonpayable",
      "type": "function"
    },
    {
      "inputs": [],
      "name": "paused",
      "outputs": [
        {
          "internalType": "bool",
          "name": "",
          "type": "bool"
        }
      ],
      "stateMutability": "view",
      "type": "function"
    },
    {
      "inputs": [],
      "name": "proxiableUUID",
      "outputs": [
        {
          "internalType": "bytes32",
          "name": "",
          "type": "bytes32"
        }
      ],
      "stateMutability": "view",
      "type": "function"
    },
    {
      "inputs": [],
      "name": "renounceOwnership",
      "outputs": [],
      "stateMutability": "nonpayable",
      "type": "function"
    },
    {
      "inputs": [
        {
          "internalType": "address[]",
          "name": "addrs",
          "type": "address[]"
        },
        {
          "internalType": "uint256[]",
          "name": "percentages",
          "type": "uint256[]"
        }
      ],
      "name": "setCommissionPercentages",
      "outputs": [],
      "stateMutability": "nonpayable",
      "type": "function"
    },
    {
      "inputs": [],
      "name": "symbol",
      "outputs": [
        {
          "internalType": "string",
          "name": "",
          "type": "string"
        }
      ],
      "stateMutability": "view",
      "type": "function"
    },
    {
      "inputs": [
        {
          "internalType": "bool",
          "name": "enable",
          "type": "bool"
        }
      ],
      "name": "toggleCommission",
      "outputs": [],
      "stateMutability": "nonpayable",
      "type": "function"
    },
    {
      "inputs": [],
      "name": "totalSupply",
      "outputs": [
        {
          "internalType": "uint256",
          "name": "",
          "type": "uint256"
        }
      ],
      "stateMutability": "view",
      "type": "function"
    },
    {
      "inputs": [
        {
          "internalType": "string",
          "name": "",
          "type": "string"
        }
      ],
      "name": "totalVotes",
      "outputs": [
        {
          "internalType": "uint256",
          "name": "",
          "type": "uint256"
        }
      ],
      "stateMutability": "view",
      "type": "function"
    },
    {
      "inputs": [
        {
          "internalType": "address",
          "name": "to",
          "type": "address"
        },
        {
          "internalType": "uint256",
          "name": "amount",
          "type": "uint256"
        }
      ],
      "name": "transfer",
      "outputs": [
        {
          "internalType": "bool",
          "name": "",
          "type": "bool"
        }
      ],
      "stateMutability": "nonpayable",
      "type": "function"
    },
    {
      "inputs": [
        {
          "internalType": "address",
          "name": "from",
          "type": "address"
        },
        {
          "internalType": "address",
          "name": "to",
          "type": "address"
        },
        {
          "internalType": "uint256",
          "name": "amount",
          "type": "uint256"
        }
      ],
      "name": "transferFrom",
      "outputs": [
        {
          "internalType": "bool",
          "name": "",
          "type": "bool"
        }
      ],
      "stateMutability": "nonpayable",
      "type": "function"
    },
    {
      "inputs": [
        {
          "internalType": "address",
          "name": "newOwner",
          "type": "address"
        }
      ],
      "name": "transferOwnership",
      "outputs": [],
      "stateMutability": "nonpayable",
      "type": "function"
    },
    {
      "inputs": [],
      "name": "unpause",
      "outputs": [],
      "stateMutability": "nonpayable",
      "type": "function"
    },
    {
      "inputs": [
        {
          "internalType": "address",
          "name": "newImplementation",
          "type": "address"
        }
      ],
      "name": "upgradeTo",
      "outputs": [],
      "stateMutability": "nonpayable",
      "type": "function"
    },
    {
      "inputs": [
        {
          "internalType": "address",
          "name": "newImplementation",
          "type": "address"
        },
        {
          "internalType": "bytes",
          "name": "data",
          "type": "bytes"
        }
      ],
      "name": "upgradeToAndCall",
      "outputs": [],
      "stateMutability": "payable",
      "type": "function"
    },
    {
      "inputs": [
        {
          "internalType": "string",
          "name": "votingTitle",
          "type": "string"
        }
      ],
      "name": "vote",
      "outputs": [],
      "stateMutability": "nonpayable",
      "type": "function"
    },
    {
      "inputs": [
        {
          "internalType": "string",
          "name": "",
          "type": "string"
        }
      ],
      "name": "votesCountNeeded",
      "outputs": [
        {
          "internalType": "uint256",
          "name": "",
          "type": "uint256"
        }
      ],
      "stateMutability": "view",
      "type": "function"
    },
    {
      "inputs": [
        {
          "internalType": "string",
          "name": "",
          "type": "string"
        },
        {
          "internalType": "address",
          "name": "",
          "type": "address"
        }
      ],
      "name": "votings",
      "outputs": [
        {
          "internalType": "bool",
          "name": "",
          "type": "bool"
        }
      ],
      "stateMutability": "view",
      "type": "function"
    }
  ],
  "bytecode": "0x60a06040523073ffffffffffffffffffffffffffffffffffffffff1660809073ffffffffffffffffffffffffffffffffffffffff168152503480156200004457600080fd5b50600161019160006101000a81548160ff021916908315150217905550620000716200007760201b60201c565b62000221565b600060019054906101000a900460ff1615620000ca576040517f08c379a0000000000000000000000000000000000000000000000000000000008152600401620000c190620001c4565b60405180910390fd5b60ff801660008054906101000a900460ff1660ff16146200013b5760ff6000806101000a81548160ff021916908360ff1602179055507f7f26b83ff96e1f2b6a682f133852f6798a09c465da95921460cefb384740249860ff60405162000132919062000204565b60405180910390a15b565b600082825260208201905092915050565b7f496e697469616c697a61626c653a20636f6e747261637420697320696e69746960008201527f616c697a696e6700000000000000000000000000000000000000000000000000602082015250565b6000620001ac6027836200013d565b9150620001b9826200014e565b604082019050919050565b60006020820190508181036000830152620001df816200019d565b9050919050565b600060ff82169050919050565b620001fe81620001e6565b82525050565b60006020820190506200021b6000830184620001f3565b92915050565b6080516152c262000259600039600081816110f80152818161118601528181611371015281816113ff01526114af01526152c26000f3fe60806040526004361061020f5760003560e01c80634f1ef286116101185780638456cb59116100a0578063a9059cbb1161006f578063a9059cbb146107a0578063dd62ed3e146107dd578063f2fde38b1461081a578063f500aa0a14610843578063fc36e15b146108805761020f565b80638456cb59146106f65780638da5cb5b1461070d57806395d89b4114610738578063a457c2d7146107635761020f565b80635c975abb116100e75780635c975abb1461062557806370a0823114610650578063715018a61461068d57806375dee998146106a457806379cc6790146106cd5761020f565b80634f1ef2861461056457806352d1902d1461058057806356df006b146105ab5780635900f8f8146105e85761020f565b806323b872dd1161019b5780633730837c1161016a5780633730837c1461049357806339509351146104be5780633f4ba83a146104fb57806340c10f191461051257806342966c681461053b5761020f565b806323b872dd146103d9578063313ce56714610416578063342d1867146104415780633659cfe61461046a5761020f565b806318160ddd116101e257806318160ddd146102f657806319f7f532146103215780631a1625a51461034a5780631df1a88a146103735780632220112d146103b05761020f565b806304574fe81461021457806306fdde0314610251578063095ea7b31461027c5780631635f9cf146102b9575b600080fd5b34801561022057600080fd5b5061023b60048036038101906102369190613277565b6108a9565b60405161024891906132db565b60405180910390f35b34801561025d57600080fd5b506102666108e0565b6040516102739190613375565b60405180910390f35b34801561028857600080fd5b506102a3600480360381019061029e919061342b565b610972565b6040516102b091906132db565b60405180910390f35b3480156102c557600080fd5b506102e060048036038101906102db919061346b565b610995565b6040516102ed91906132db565b60405180910390f35b34801561030257600080fd5b5061030b6109db565b60405161031891906134d6565b60405180910390f35b34801561032d57600080fd5b506103486004803603810190610343919061351d565b6109e5565b005b34801561035657600080fd5b50610371600480360381019061036c91906135bc565b610b6c565b005b34801561037f57600080fd5b5061039a60048036038101906103959190613277565b610cb9565b6040516103a791906134d6565b60405180910390f35b3480156103bc57600080fd5b506103d760048036038101906103d291906137a3565b610ce8565b005b3480156103e557600080fd5b5061040060048036038101906103fb919061381b565b610f26565b60405161040d91906132db565b60405180910390f35b34801561042257600080fd5b5061042b6110bf565b604051610438919061388a565b60405180910390f35b34801561044d57600080fd5b50610468600480360381019061046391906138a5565b6110c8565b005b34801561047657600080fd5b50610491600480360381019061048c91906138d2565b6110f6565b005b34801561049f57600080fd5b506104a861127e565b6040516104b591906134d6565b60405180910390f35b3480156104ca57600080fd5b506104e560048036038101906104e0919061342b565b611285565b6040516104f291906132db565b60405180910390f35b34801561050757600080fd5b506105106112bc565b005b34801561051e57600080fd5b506105396004803603810190610534919061342b565b6112ce565b005b34801561054757600080fd5b50610562600480360381019061055d91906138ff565b61135b565b005b61057e600480360381019061057991906139cd565b61136f565b005b34801561058c57600080fd5b506105956114ab565b6040516105a29190613a42565b60405180910390f35b3480156105b757600080fd5b506105d260048036038101906105cd91906138ff565b611564565b6040516105df9190613a6c565b60405180910390f35b3480156105f457600080fd5b5061060f600480360381019061060a9190613277565b6115a4565b60405161061c91906134d6565b60405180910390f35b34801561063157600080fd5b5061063a6115d3565b60405161064791906132db565b60405180910390f35b34801561065c57600080fd5b50610677600480360381019061067291906138d2565b6115ea565b60405161068491906134d6565b60405180910390f35b34801561069957600080fd5b506106a2611633565b005b3480156106b057600080fd5b506106cb60048036038101906106c691906138d2565b611647565b005b3480156106d957600080fd5b506106f460048036038101906106ef919061342b565b6116b3565b005b34801561070257600080fd5b5061070b6116d3565b005b34801561071957600080fd5b506107226116ed565b60405161072f9190613a6c565b60405180910390f35b34801561074457600080fd5b5061074d611717565b60405161075a9190613375565b60405180910390f35b34801561076f57600080fd5b5061078a6004803603810190610785919061342b565b6117a9565b60405161079791906132db565b60405180910390f35b3480156107ac57600080fd5b506107c760048036038101906107c2919061342b565b611820565b6040516107d491906132db565b60405180910390f35b3480156107e957600080fd5b5061080460048036038101906107ff9190613a87565b6119b3565b60405161081191906134d6565b60405180910390f35b34801561082657600080fd5b50610841600480360381019061083c91906138d2565b611a3a565b005b34801561084f57600080fd5b5061086a600480360381019061086591906138d2565b611abd565b60405161087791906134d6565b60405180910390f35b34801561088c57600080fd5b506108a760048036038101906108a29190613277565b611b0f565b005b61019b818051602081018201805184825260208301602085012081835280955050505050506000915054906101000a900460ff1681565b6060603680546108ef90613af6565b80601f016020809104026020016040519081016040528092919081815260200182805461091b90613af6565b80156109685780601f1061093d57610100808354040283529160200191610968565b820191906000526020600020905b81548152906001019060200180831161094b57829003601f168201915b5050505050905090565b60008061097d611df0565b905061098a818585611df8565b600191505092915050565b610199828051602081018201805184825260208301602085012081835280955050505050506020528060005260406000206000915091509054906101000a900460ff1681565b6000603554905090565b60008060019054906101000a900460ff16159050808015610a165750600160008054906101000a900460ff1660ff16105b80610a435750610a2530611fc1565b158015610a425750600160008054906101000a900460ff1660ff16145b5b610a82576040517f08c379a0000000000000000000000000000000000000000000000000000000008152600401610a7990613b99565b60405180910390fd5b60016000806101000a81548160ff021916908360ff1602179055508015610abf576001600060016101000a81548160ff0219169083151502179055505b82610193819055508161019460006101000a81548160ff021916908315150217905550610aec8585611fe4565b610af4612041565b610afc612092565b610b046120eb565b610b0c612144565b8015610b655760008060016101000a81548160ff0219169083151502179055507f7f26b83ff96e1f2b6a682f133852f6798a09c465da95921460cefb38474024986001604051610b5c9190613bfe565b60405180910390a15b5050505050565b610b74612195565b610b7c612213565b60008111610bbf576040517f08c379a0000000000000000000000000000000000000000000000000000000008152600401610bb690613c65565b60405180910390fd5b600061019c83604051610bd29190613cc1565b90815260200160405180910390205414610c21576040517f08c379a0000000000000000000000000000000000000000000000000000000008152600401610c1890613d4a565b60405180910390fd5b8061019c83604051610c339190613cc1565b908152602001604051809103902081905550600161019b83604051610c589190613cc1565b908152602001604051809103902060006101000a81548160ff0219169083151502179055507e974e7a9f2acf0f113201dd02a3c9904153c5c7f5a5b71959eb47bb505f9b8c8282604051610cad929190613d6a565b60405180910390a15050565b61019c818051602081018201805184825260208301602085012081835280955050505050506000915090505481565b610cf0612195565b610cf8612213565b8051825114610d3c576040517f08c379a0000000000000000000000000000000000000000000000000000000008152600401610d3390613de6565b60405180910390fd5b6003610192805490508351610d519190613e35565b1115610d92576040517f08c379a0000000000000000000000000000000000000000000000000000000008152600401610d8990613edb565b60405180910390fd5b60005b8251811015610f21576000838281518110610db357610db2613efb565b5b602002602001015190506000838381518110610dd257610dd1613efb565b5b602002602001015190506064811115610e20576040517f08c379a0000000000000000000000000000000000000000000000000000000008152600401610e1790613f76565b60405180910390fd5b600061019560008473ffffffffffffffffffffffffffffffffffffffff1673ffffffffffffffffffffffffffffffffffffffff1681526020019081526020016000205403610ecd57610192829080600181540180825580915050600190039060005260206000200160009091909190916101000a81548173ffffffffffffffffffffffffffffffffffffffff021916908373ffffffffffffffffffffffffffffffffffffffff1602179055505b8061019560008473ffffffffffffffffffffffffffffffffffffffff1673ffffffffffffffffffffffffffffffffffffffff1681526020019081526020016000208190555050508080600101915050610d95565b505050565b6000610f30612213565b610f3b84338461225d565b600073ffffffffffffffffffffffffffffffffffffffff168473ffffffffffffffffffffffffffffffffffffffff1603610faa576040517f08c379a0000000000000000000000000000000000000000000000000000000008152600401610fa190613fe2565b60405180910390fd5b600061019160009054906101000a900460ff161561109d5760005b6101928054905081101561109b5760006101928281548110610fea57610fe9613efb565b5b9060005260206000200160009054906101000a900473ffffffffffffffffffffffffffffffffffffffff1690506000606461019560008473ffffffffffffffffffffffffffffffffffffffff1673ffffffffffffffffffffffffffffffffffffffff16815260200190815260200160002054876110679190614002565b6110719190614073565b9050808461107f9190613e35565b935061108c8883836122e9565b50508080600101915050610fc5565b505b6110b3858583866110ae91906140a4565b6122e9565b60019150509392505050565b60006012905090565b6110d0612195565b6110d8612213565b8061019160006101000a81548160ff02191690831515021790555050565b7f000000000000000000000000000000000000000000000000000000000000000073ffffffffffffffffffffffffffffffffffffffff163073ffffffffffffffffffffffffffffffffffffffff1603611184576040517f08c379a000000000000000000000000000000000000000000000000000000000815260040161117b9061414a565b60405180910390fd5b7f000000000000000000000000000000000000000000000000000000000000000073ffffffffffffffffffffffffffffffffffffffff166111c3612562565b73ffffffffffffffffffffffffffffffffffffffff1614611219576040517f08c379a0000000000000000000000000000000000000000000000000000000008152600401611210906141dc565b60405180910390fd5b611222816125b9565b61127b81600067ffffffffffffffff8111156112415761124061314c565b5b6040519080825280601f01601f1916602001820160405280156112735781602001600182028036833780820191505090505b5060006125c4565b50565b6101935481565b600080611290611df0565b90506112b18185856112a285896119b3565b6112ac9190613e35565b611df8565b600191505092915050565b6112c4612195565b6112cc612732565b565b6112d6612195565b6112de612213565b61019460009054906101000a900460ff161561134d5761019354816113016109db565b61130b9190613e35565b111561134c576040517f08c379a000000000000000000000000000000000000000000000000000000000815260040161134390614248565b60405180910390fd5b5b6113578282612795565b5050565b61136c611366611df0565b826128ec565b50565b7f000000000000000000000000000000000000000000000000000000000000000073ffffffffffffffffffffffffffffffffffffffff163073ffffffffffffffffffffffffffffffffffffffff16036113fd576040517f08c379a00000000000000000000000000000000000000000000000000000000081526004016113f49061414a565b60405180910390fd5b7f000000000000000000000000000000000000000000000000000000000000000073ffffffffffffffffffffffffffffffffffffffff1661143c612562565b73ffffffffffffffffffffffffffffffffffffffff1614611492576040517f08c379a0000000000000000000000000000000000000000000000000000000008152600401611489906141dc565b60405180910390fd5b61149b826125b9565b6114a7828260016125c4565b5050565b60007f000000000000000000000000000000000000000000000000000000000000000073ffffffffffffffffffffffffffffffffffffffff163073ffffffffffffffffffffffffffffffffffffffff161461153b576040517f08c379a0000000000000000000000000000000000000000000000000000000008152600401611532906142da565b60405180910390fd5b7f360894a13ba1a3210667c828492db98dca3e2076cc3735a920a3ca505d382bbc60001b905090565b610192818154811061157557600080fd5b906000526020600020016000915054906101000a900473ffffffffffffffffffffffffffffffffffffffff1681565b61019a818051602081018201805184825260208301602085012081835280955050505050506000915090505481565b6000609760009054906101000a900460ff16905090565b6000603360008373ffffffffffffffffffffffffffffffffffffffff1673ffffffffffffffffffffffffffffffffffffffff168152602001908152602001600020549050919050565b61163b612195565b6116456000612abb565b565b61164f612195565b611657612213565b600161019860008373ffffffffffffffffffffffffffffffffffffffff1673ffffffffffffffffffffffffffffffffffffffff16815260200190815260200160002060006101000a81548160ff02191690831515021790555050565b6116c5826116bf611df0565b8361225d565b6116cf82826128ec565b5050565b6116db612195565b6116e3612213565b6116eb612b81565b565b600060fb60009054906101000a900473ffffffffffffffffffffffffffffffffffffffff16905090565b60606037805461172690613af6565b80601f016020809104026020016040519081016040528092919081815260200182805461175290613af6565b801561179f5780601f106117745761010080835404028352916020019161179f565b820191906000526020600020905b81548152906001019060200180831161178257829003601f168201915b5050505050905090565b6000806117b4611df0565b905060006117c282866119b3565b905083811015611807576040517f08c379a00000000000000000000000000000000000000000000000000000000081526004016117fe9061436c565b60405180910390fd5b6118148286868403611df8565b60019250505092915050565b600061182a612213565b6000339050600073ffffffffffffffffffffffffffffffffffffffff168173ffffffffffffffffffffffffffffffffffffffff160361189e576040517f08c379a000000000000000000000000000000000000000000000000000000000815260040161189590613fe2565b60405180910390fd5b600061019160009054906101000a900460ff16156119915760005b6101928054905081101561198f57600061019282815481106118de576118dd613efb565b5b9060005260206000200160009054906101000a900473ffffffffffffffffffffffffffffffffffffffff1690506000606461019560008473ffffffffffffffffffffffffffffffffffffffff1673ffffffffffffffffffffffffffffffffffffffff168152602001908152602001600020548861195b9190614002565b6119659190614073565b905080846119739190613e35565b93506119808583836122e9565b505080806001019150506118b9565b505b6119a7828683876119a291906140a4565b6122e9565b60019250505092915050565b6000603460008473ffffffffffffffffffffffffffffffffffffffff1673ffffffffffffffffffffffffffffffffffffffff16815260200190815260200160002060008373ffffffffffffffffffffffffffffffffffffffff1673ffffffffffffffffffffffffffffffffffffffff16815260200190815260200160002054905092915050565b611a42612195565b600073ffffffffffffffffffffffffffffffffffffffff168173ffffffffffffffffffffffffffffffffffffffff1603611ab1576040517f08c379a0000000000000000000000000000000000000000000000000000000008152600401611aa8906143fe565b60405180910390fd5b611aba81612abb565b50565b6000611ac7612213565b61019560008373ffffffffffffffffffffffffffffffffffffffff1673ffffffffffffffffffffffffffffffffffffffff168152602001908152602001600020549050919050565b611b17612213565b61019b81604051611b289190613cc1565b908152602001604051809103902060009054906101000a900460ff16611b83576040517f08c379a0000000000000000000000000000000000000000000000000000000008152600401611b7a9061446a565b60405180910390fd5b61019860003373ffffffffffffffffffffffffffffffffffffffff1673ffffffffffffffffffffffffffffffffffffffff16815260200190815260200160002060009054906101000a900460ff1615611c11576040517f08c379a0000000000000000000000000000000000000000000000000000000008152600401611c08906144d6565b60405180910390fd5b61019981604051611c229190613cc1565b908152602001604051809103902060003373ffffffffffffffffffffffffffffffffffffffff1673ffffffffffffffffffffffffffffffffffffffff16815260200190815260200160002060009054906101000a900460ff1615611cbb576040517f08c379a0000000000000000000000000000000000000000000000000000000008152600401611cb290614542565b60405180910390fd5b600161019982604051611cce9190613cc1565b908152602001604051809103902060003373ffffffffffffffffffffffffffffffffffffffff1673ffffffffffffffffffffffffffffffffffffffff16815260200190815260200160002060006101000a81548160ff02191690831515021790555061019a81604051611d419190613cc1565b90815260200160405180910390206000815480929190611d6090614562565b91905055507f6df8a0bf3c87bd629e9f543b9d0831beeea8b80de3f478dd846541ed8d97405b8133604051611d969291906145aa565b60405180910390a161019c81604051611daf9190613cc1565b90815260200160405180910390205461019a82604051611dcf9190613cc1565b90815260200160405180910390205410611ded57611dec81612be4565b5b50565b600033905090565b600073ffffffffffffffffffffffffffffffffffffffff168373ffffffffffffffffffffffffffffffffffffffff1603611e67576040517f08c379a0000000000000000000000000000000000000000000000000000000008152600401611e5e9061464c565b60405180910390fd5b600073ffffffffffffffffffffffffffffffffffffffff168273ffffffffffffffffffffffffffffffffffffffff1603611ed6576040517f08c379a0000000000000000000000000000000000000000000000000000000008152600401611ecd906146de565b60405180910390fd5b80603460008573ffffffffffffffffffffffffffffffffffffffff1673ffffffffffffffffffffffffffffffffffffffff16815260200190815260200160002060008473ffffffffffffffffffffffffffffffffffffffff1673ffffffffffffffffffffffffffffffffffffffff168152602001908152602001600020819055508173ffffffffffffffffffffffffffffffffffffffff168373ffffffffffffffffffffffffffffffffffffffff167f8c5be1e5ebec7d5bd14f71427d1e84f3dd0314c0f7b2291e5b200ac8c7c3b92583604051611fb491906134d6565b60405180910390a3505050565b6000808273ffffffffffffffffffffffffffffffffffffffff163b119050919050565b600060019054906101000a900460ff16612033576040517f08c379a000000000000000000000000000000000000000000000000000000000815260040161202a90614770565b60405180910390fd5b61203d8282612bf0565b5050565b600060019054906101000a900460ff16612090576040517f08c379a000000000000000000000000000000000000000000000000000000000815260040161208790614770565b60405180910390fd5b565b600060019054906101000a900460ff166120e1576040517f08c379a00000000000000000000000000000000000000000000000000000000081526004016120d890614770565b60405180910390fd5b6120e9612c63565b565b600060019054906101000a900460ff1661213a576040517f08c379a000000000000000000000000000000000000000000000000000000000815260040161213190614770565b60405180910390fd5b612142612ccf565b565b600060019054906101000a900460ff16612193576040517f08c379a000000000000000000000000000000000000000000000000000000000815260040161218a90614770565b60405180910390fd5b565b61219d611df0565b73ffffffffffffffffffffffffffffffffffffffff166121bb6116ed565b73ffffffffffffffffffffffffffffffffffffffff1614612211576040517f08c379a0000000000000000000000000000000000000000000000000000000008152600401612208906147dc565b60405180910390fd5b565b61221b6115d3565b1561225b576040517f08c379a000000000000000000000000000000000000000000000000000000000815260040161225290614848565b60405180910390fd5b565b600061226984846119b3565b90507fffffffffffffffffffffffffffffffffffffffffffffffffffffffffffffffff81146122e357818110156122d5576040517f08c379a00000000000000000000000000000000000000000000000000000000081526004016122cc906148b4565b60405180910390fd5b6122e28484848403611df8565b5b50505050565b600073ffffffffffffffffffffffffffffffffffffffff168373ffffffffffffffffffffffffffffffffffffffff1603612358576040517f08c379a000000000000000000000000000000000000000000000000000000000815260040161234f90614946565b60405180910390fd5b600073ffffffffffffffffffffffffffffffffffffffff168273ffffffffffffffffffffffffffffffffffffffff16036123c7576040517f08c379a00000000000000000000000000000000000000000000000000000000081526004016123be906149d8565b60405180910390fd5b6123d2838383612d30565b6000603360008573ffffffffffffffffffffffffffffffffffffffff1673ffffffffffffffffffffffffffffffffffffffff16815260200190815260200160002054905081811015612459576040517f08c379a000000000000000000000000000000000000000000000000000000000815260040161245090614a6a565b60405180910390fd5b818103603360008673ffffffffffffffffffffffffffffffffffffffff1673ffffffffffffffffffffffffffffffffffffffff1681526020019081526020016000208190555081603360008573ffffffffffffffffffffffffffffffffffffffff1673ffffffffffffffffffffffffffffffffffffffff168152602001908152602001600020600082825401925050819055508273ffffffffffffffffffffffffffffffffffffffff168473ffffffffffffffffffffffffffffffffffffffff167fddf252ad1be2c89b69c2b068fc378daa952ba7f163c4a11628f55a4df523b3ef8460405161254991906134d6565b60405180910390a361255c848484612d40565b50505050565b60006125907f360894a13ba1a3210667c828492db98dca3e2076cc3735a920a3ca505d382bbc60001b612d45565b60000160009054906101000a900473ffffffffffffffffffffffffffffffffffffffff16905090565b6125c1612195565b50565b6125f07f4910fdfa16fed3260ed0e7147f7cc6da11a60208b5b9406d12a635614ffd914360001b612d4f565b60000160009054906101000a900460ff16156126145761260f83612d59565b61272d565b8273ffffffffffffffffffffffffffffffffffffffff166352d1902d6040518163ffffffff1660e01b8152600401602060405180830381865afa92505050801561267c57506040513d601f19601f820116820180604052508101906126799190614ab6565b60015b6126bb576040517f08c379a00000000000000000000000000000000000000000000000000000000081526004016126b290614b55565b60405180910390fd5b7f360894a13ba1a3210667c828492db98dca3e2076cc3735a920a3ca505d382bbc60001b8114612720576040517f08c379a000000000000000000000000000000000000000000000000000000000815260040161271790614be7565b60405180910390fd5b5061272c838383612e12565b5b505050565b61273a612e3e565b6000609760006101000a81548160ff0219169083151502179055507f5db9ee0a495bf2e6ff9c91a7834c1ba4fdd244a5e8aa4e537bd38aeae4b073aa61277e611df0565b60405161278b9190613a6c565b60405180910390a1565b600073ffffffffffffffffffffffffffffffffffffffff168273ffffffffffffffffffffffffffffffffffffffff1603612804576040517f08c379a00000000000000000000000000000000000000000000000000000000081526004016127fb90614c53565b60405180910390fd5b61281060008383612d30565b80603560008282546128229190613e35565b9250508190555080603360008473ffffffffffffffffffffffffffffffffffffffff1673ffffffffffffffffffffffffffffffffffffffff168152602001908152602001600020600082825401925050819055508173ffffffffffffffffffffffffffffffffffffffff16600073ffffffffffffffffffffffffffffffffffffffff167fddf252ad1be2c89b69c2b068fc378daa952ba7f163c4a11628f55a4df523b3ef836040516128d491906134d6565b60405180910390a36128e860008383612d40565b5050565b600073ffffffffffffffffffffffffffffffffffffffff168273ffffffffffffffffffffffffffffffffffffffff160361295b576040517f08c379a000000000000000000000000000000000000000000000000000000000815260040161295290614ce5565b60405180910390fd5b61296782600083612d30565b6000603360008473ffffffffffffffffffffffffffffffffffffffff1673ffffffffffffffffffffffffffffffffffffffff168152602001908152602001600020549050818110156129ee576040517f08c379a00000000000000000000000000000000000000000000000000000000081526004016129e590614d77565b60405180910390fd5b818103603360008573ffffffffffffffffffffffffffffffffffffffff1673ffffffffffffffffffffffffffffffffffffffff1681526020019081526020016000208190555081603560008282540392505081905550600073ffffffffffffffffffffffffffffffffffffffff168373ffffffffffffffffffffffffffffffffffffffff167fddf252ad1be2c89b69c2b068fc378daa952ba7f163c4a11628f55a4df523b3ef84604051612aa291906134d6565b60405180910390a3612ab683600084612d40565b505050565b600060fb60009054906101000a900473ffffffffffffffffffffffffffffffffffffffff1690508160fb60006101000a81548173ffffffffffffffffffffffffffffffffffffffff021916908373ffffffffffffffffffffffffffffffffffffffff1602179055508173ffffffffffffffffffffffffffffffffffffffff168173ffffffffffffffffffffffffffffffffffffffff167f8be0079c531659141344cd1fd0a4f28419497f9722a3daafe3b4186f6b6457e060405160405180910390a35050565b612b89612213565b6001609760006101000a81548160ff0219169083151502179055507f62e78cea01bee320cd4e420270b5ea74000d11b0c9f74754ebdbfc544b05a258612bcd611df0565b604051612bda9190613a6c565b60405180910390a1565b612bed81612e87565b50565b600060019054906101000a900460ff16612c3f576040517f08c379a0000000000000000000000000000000000000000000000000000000008152600401612c3690614770565b60405180910390fd5b8160369081612c4e9190614f39565b508060379081612c5e9190614f39565b505050565b600060019054906101000a900460ff16612cb2576040517f08c379a0000000000000000000000000000000000000000000000000000000008152600401612ca990614770565b60405180910390fd5b6000609760006101000a81548160ff021916908315150217905550565b600060019054906101000a900460ff16612d1e576040517f08c379a0000000000000000000000000000000000000000000000000000000008152600401612d1590614770565b60405180910390fd5b612d2e612d29611df0565b612abb565b565b612d3b838383612ef9565b505050565b505050565b6000819050919050565b6000819050919050565b612d6281611fc1565b612da1576040517f08c379a0000000000000000000000000000000000000000000000000000000008152600401612d989061507d565b60405180910390fd5b80612dce7f360894a13ba1a3210667c828492db98dca3e2076cc3735a920a3ca505d382bbc60001b612d45565b60000160006101000a81548173ffffffffffffffffffffffffffffffffffffffff021916908373ffffffffffffffffffffffffffffffffffffffff16021790555050565b612e1b83612f51565b600082511180612e285750805b15612e3957612e378383612fa0565b505b505050565b612e466115d3565b612e85576040517f08c379a0000000000000000000000000000000000000000000000000000000008152600401612e7c906150e9565b60405180910390fd5b565b600061019b82604051612e9a9190613cc1565b908152602001604051809103902060006101000a81548160ff0219169083151502179055507f74e0b2978c99ca20b757f0f8b458fc435f508ea64c542132a673e898b96f535d81604051612eee9190613375565b60405180910390a150565b612f04838383612fcd565b612f0c6115d3565b15612f4c576040517f08c379a0000000000000000000000000000000000000000000000000000000008152600401612f439061517b565b60405180910390fd5b505050565b612f5a81612d59565b8073ffffffffffffffffffffffffffffffffffffffff167fbc7cd75a20ee27fd9adebab32041f755214dbc6bffa90cc0225b39da2e5c2d3b60405160405180910390a250565b6060612fc5838360405180606001604052806027815260200161526660279139612fd2565b905092915050565b505050565b60606000808573ffffffffffffffffffffffffffffffffffffffff1685604051612ffc91906151e2565b600060405180830381855af49150503d8060008114613037576040519150601f19603f3d011682016040523d82523d6000602084013e61303c565b606091505b509150915061304d86838387613058565b925050509392505050565b606083156130ba5760008351036130b25761307285611fc1565b6130b1576040517f08c379a00000000000000000000000000000000000000000000000000000000081526004016130a890615245565b60405180910390fd5b5b8290506130c5565b6130c483836130cd565b5b949350505050565b6000825111156130e05781518083602001fd5b806040517f08c379a00000000000000000000000000000000000000000000000000000000081526004016131149190613375565b60405180910390fd5b6000604051905090565b600080fd5b600080fd5b600080fd5b600080fd5b6000601f19601f8301169050919050565b7f4e487b7100000000000000000000000000000000000000000000000000000000600052604160045260246000fd5b6131848261313b565b810181811067ffffffffffffffff821117156131a3576131a261314c565b5b80604052505050565b60006131b661311d565b90506131c2828261317b565b919050565b600067ffffffffffffffff8211156131e2576131e161314c565b5b6131eb8261313b565b9050602081019050919050565b82818337600083830152505050565b600061321a613215846131c7565b6131ac565b90508281526020810184848401111561323657613235613136565b5b6132418482856131f8565b509392505050565b600082601f83011261325e5761325d613131565b5b813561326e848260208601613207565b91505092915050565b60006020828403121561328d5761328c613127565b5b600082013567ffffffffffffffff8111156132ab576132aa61312c565b5b6132b784828501613249565b91505092915050565b60008115159050919050565b6132d5816132c0565b82525050565b60006020820190506132f060008301846132cc565b92915050565b600081519050919050565b600082825260208201905092915050565b60005b83811015613330578082015181840152602081019050613315565b60008484015250505050565b6000613347826132f6565b6133518185613301565b9350613361818560208601613312565b61336a8161313b565b840191505092915050565b6000602082019050818103600083015261338f818461333c565b905092915050565b600073ffffffffffffffffffffffffffffffffffffffff82169050919050565b60006133c282613397565b9050919050565b6133d2816133b7565b81146133dd57600080fd5b50565b6000813590506133ef816133c9565b92915050565b6000819050919050565b613408816133f5565b811461341357600080fd5b50565b600081359050613425816133ff565b92915050565b6000806040838503121561344257613441613127565b5b6000613450858286016133e0565b925050602061346185828601613416565b9150509250929050565b6000806040838503121561348257613481613127565b5b600083013567ffffffffffffffff8111156134a05761349f61312c565b5b6134ac85828601613249565b92505060206134bd858286016133e0565b9150509250929050565b6134d0816133f5565b82525050565b60006020820190506134eb60008301846134c7565b92915050565b6134fa816132c0565b811461350557600080fd5b50565b600081359050613517816134f1565b92915050565b6000806000806080858703121561353757613536613127565b5b600085013567ffffffffffffffff8111156135555761355461312c565b5b61356187828801613249565b945050602085013567ffffffffffffffff8111156135825761358161312c565b5b61358e87828801613249565b935050604061359f87828801613416565b92505060606135b087828801613508565b91505092959194509250565b600080604083850312156135d3576135d2613127565b5b600083013567ffffffffffffffff8111156135f1576135f061312c565b5b6135fd85828601613249565b925050602061360e85828601613416565b9150509250929050565b600067ffffffffffffffff8211156136335761363261314c565b5b602082029050602081019050919050565b600080fd5b600061365c61365784613618565b6131ac565b9050808382526020820190506020840283018581111561367f5761367e613644565b5b835b818110156136a8578061369488826133e0565b845260208401935050602081019050613681565b5050509392505050565b600082601f8301126136c7576136c6613131565b5b81356136d7848260208601613649565b91505092915050565b600067ffffffffffffffff8211156136fb576136fa61314c565b5b602082029050602081019050919050565b600061371f61371a846136e0565b6131ac565b9050808382526020820190506020840283018581111561374257613741613644565b5b835b8181101561376b57806137578882613416565b845260208401935050602081019050613744565b5050509392505050565b600082601f83011261378a57613789613131565b5b813561379a84826020860161370c565b91505092915050565b600080604083850312156137ba576137b9613127565b5b600083013567ffffffffffffffff8111156137d8576137d761312c565b5b6137e4858286016136b2565b925050602083013567ffffffffffffffff8111156138055761380461312c565b5b61381185828601613775565b9150509250929050565b60008060006060848603121561383457613833613127565b5b6000613842868287016133e0565b9350506020613853868287016133e0565b925050604061386486828701613416565b9150509250925092565b600060ff82169050919050565b6138848161386e565b82525050565b600060208201905061389f600083018461387b565b92915050565b6000602082840312156138bb576138ba613127565b5b60006138c984828501613508565b91505092915050565b6000602082840312156138e8576138e7613127565b5b60006138f6848285016133e0565b91505092915050565b60006020828403121561391557613914613127565b5b600061392384828501613416565b91505092915050565b600067ffffffffffffffff8211156139475761394661314c565b5b6139508261313b565b9050602081019050919050565b600061397061396b8461392c565b6131ac565b90508281526020810184848401111561398c5761398b613136565b5b6139978482856131f8565b509392505050565b600082601f8301126139b4576139b3613131565b5b81356139c484826020860161395d565b91505092915050565b600080604083850312156139e4576139e3613127565b5b60006139f2858286016133e0565b925050602083013567ffffffffffffffff811115613a1357613a1261312c565b5b613a1f8582860161399f565b9150509250929050565b6000819050919050565b613a3c81613a29565b82525050565b6000602082019050613a576000830184613a33565b92915050565b613a66816133b7565b82525050565b6000602082019050613a816000830184613a5d565b92915050565b60008060408385031215613a9e57613a9d613127565b5b6000613aac858286016133e0565b9250506020613abd858286016133e0565b9150509250929050565b7f4e487b7100000000000000000000000000000000000000000000000000000000600052602260045260246000fd5b60006002820490506001821680613b0e57607f821691505b602082108103613b2157613b20613ac7565b5b50919050565b7f496e697469616c697a61626c653a20636f6e747261637420697320616c72656160008201527f647920696e697469616c697a6564000000000000000000000000000000000000602082015250565b6000613b83602e83613301565b9150613b8e82613b27565b604082019050919050565b60006020820190508181036000830152613bb281613b76565b9050919050565b6000819050919050565b6000819050919050565b6000613be8613be3613bde84613bb9565b613bc3565b61386e565b9050919050565b613bf881613bcd565b82525050565b6000602082019050613c136000830184613bef565b92915050565b7f766f7465734e6565646564206d757374206265203e2030000000000000000000600082015250565b6000613c4f601783613301565b9150613c5a82613c19565b602082019050919050565b60006020820190508181036000830152613c7e81613c42565b9050919050565b600081905092915050565b6000613c9b826132f6565b613ca58185613c85565b9350613cb5818560208601613312565b80840191505092915050565b6000613ccd8284613c90565b915081905092915050565b7f566f74696e6720776974682074686973207469746c6520616c7265616479206560008201527f7869737473000000000000000000000000000000000000000000000000000000602082015250565b6000613d34602583613301565b9150613d3f82613cd8565b604082019050919050565b60006020820190508181036000830152613d6381613d27565b9050919050565b60006040820190508181036000830152613d84818561333c565b9050613d9360208301846134c7565b9392505050565b7f417272617973206c656e677468206d69736d6174636800000000000000000000600082015250565b6000613dd0601683613301565b9150613ddb82613d9a565b602082019050919050565b60006020820190508181036000830152613dff81613dc3565b9050919050565b7f4e487b7100000000000000000000000000000000000000000000000000000000600052601160045260246000fd5b6000613e40826133f5565b9150613e4b836133f5565b9250828201905080821115613e6357613e62613e06565b5b92915050565b7f45786365656473206d6178696d756d206e756d626572206f6620636f6d6d697360008201527f73696f6e20616464726573736573000000000000000000000000000000000000602082015250565b6000613ec5602e83613301565b9150613ed082613e69565b604082019050919050565b60006020820190508181036000830152613ef481613eb8565b9050919050565b7f4e487b7100000000000000000000000000000000000000000000000000000000600052603260045260246000fd5b7f50657263656e74616765206d757374206265203c3d2031303000000000000000600082015250565b6000613f60601983613301565b9150613f6b82613f2a565b602082019050919050565b60006020820190508181036000830152613f8f81613f53565b9050919050565b7f5472616e736665722066726f6d20302061646472657373000000000000000000600082015250565b6000613fcc601783613301565b9150613fd782613f96565b602082019050919050565b60006020820190508181036000830152613ffb81613fbf565b9050919050565b600061400d826133f5565b9150614018836133f5565b9250828202614026816133f5565b9150828204841483151761403d5761403c613e06565b5b5092915050565b7f4e487b7100000000000000000000000000000000000000000000000000000000600052601260045260246000fd5b600061407e826133f5565b9150614089836133f5565b92508261409957614098614044565b5b828204905092915050565b60006140af826133f5565b91506140ba836133f5565b92508282039050818111156140d2576140d1613e06565b5b92915050565b7f46756e6374696f6e206d7573742062652063616c6c6564207468726f7567682060008201527f64656c656761746563616c6c0000000000000000000000000000000000000000602082015250565b6000614134602c83613301565b915061413f826140d8565b604082019050919050565b6000602082019050818103600083015261416381614127565b9050919050565b7f46756e6374696f6e206d7573742062652063616c6c6564207468726f7567682060008201527f6163746976652070726f78790000000000000000000000000000000000000000602082015250565b60006141c6602c83613301565b91506141d18261416a565b604082019050919050565b600060208201905081810360008301526141f5816141b9565b9050919050565b7f45786365656473206d6178696d756d20746f74616c20737570706c7900000000600082015250565b6000614232601c83613301565b915061423d826141fc565b602082019050919050565b6000602082019050818103600083015261426181614225565b9050919050565b7f555550535570677261646561626c653a206d757374206e6f742062652063616c60008201527f6c6564207468726f7567682064656c656761746563616c6c0000000000000000602082015250565b60006142c4603883613301565b91506142cf82614268565b604082019050919050565b600060208201905081810360008301526142f3816142b7565b9050919050565b7f45524332303a2064656372656173656420616c6c6f77616e63652062656c6f7760008201527f207a65726f000000000000000000000000000000000000000000000000000000602082015250565b6000614356602583613301565b9150614361826142fa565b604082019050919050565b6000602082019050818103600083015261438581614349565b9050919050565b7f4f776e61626c653a206e6577206f776e657220697320746865207a65726f206160008201527f6464726573730000000000000000000000000000000000000000000000000000602082015250565b60006143e8602683613301565b91506143f38261438c565b604082019050919050565b60006020820190508181036000830152614417816143db565b9050919050565b7f566f74696e6720656e646564206f72206e6f7420657869737473000000000000600082015250565b6000614454601a83613301565b915061445f8261441e565b602082019050919050565b6000602082019050818103600083015261448381614447565b9050919050565b7f4e6f7420616c6c6f77656420746f20766f746500000000000000000000000000600082015250565b60006144c0601383613301565b91506144cb8261448a565b602082019050919050565b600060208201905081810360008301526144ef816144b3565b9050919050565b7f416c726561647920766f74656400000000000000000000000000000000000000600082015250565b600061452c600d83613301565b9150614537826144f6565b602082019050919050565b6000602082019050818103600083015261455b8161451f565b9050919050565b600061456d826133f5565b91507fffffffffffffffffffffffffffffffffffffffffffffffffffffffffffffffff820361459f5761459e613e06565b5b600182019050919050565b600060408201905081810360008301526145c4818561333c565b90506145d36020830184613a5d565b9392505050565b7f45524332303a20617070726f76652066726f6d20746865207a65726f2061646460008201527f7265737300000000000000000000000000000000000000000000000000000000602082015250565b6000614636602483613301565b9150614641826145da565b604082019050919050565b6000602082019050818103600083015261466581614629565b9050919050565b7f45524332303a20617070726f766520746f20746865207a65726f20616464726560008201527f7373000000000000000000000000000000000000000000000000000000000000602082015250565b60006146c8602283613301565b91506146d38261466c565b604082019050919050565b600060208201905081810360008301526146f7816146bb565b9050919050565b7f496e697469616c697a61626c653a20636f6e7472616374206973206e6f74206960008201527f6e697469616c697a696e67000000000000000000000000000000000000000000602082015250565b600061475a602b83613301565b9150614765826146fe565b604082019050919050565b600060208201905081810360008301526147898161474d565b9050919050565b7f4f776e61626c653a2063616c6c6572206973206e6f7420746865206f776e6572600082015250565b60006147c6602083613301565b91506147d182614790565b602082019050919050565b600060208201905081810360008301526147f5816147b9565b9050919050565b7f5061757361626c653a2070617573656400000000000000000000000000000000600082015250565b6000614832601083613301565b915061483d826147fc565b602082019050919050565b6000602082019050818103600083015261486181614825565b9050919050565b7f45524332303a20696e73756666696369656e7420616c6c6f77616e6365000000600082015250565b600061489e601d83613301565b91506148a982614868565b602082019050919050565b600060208201905081810360008301526148cd81614891565b9050919050565b7f45524332303a207472616e736665722066726f6d20746865207a65726f20616460008201527f6472657373000000000000000000000000000000000000000000000000000000602082015250565b6000614930602583613301565b915061493b826148d4565b604082019050919050565b6000602082019050818103600083015261495f81614923565b9050919050565b7f45524332303a207472616e7366657220746f20746865207a65726f206164647260008201527f6573730000000000000000000000000000000000000000000000000000000000602082015250565b60006149c2602383613301565b91506149cd82614966565b604082019050919050565b600060208201905081810360008301526149f1816149b5565b9050919050565b7f45524332303a207472616e7366657220616d6f756e742065786365656473206260008201527f616c616e63650000000000000000000000000000000000000000000000000000602082015250565b6000614a54602683613301565b9150614a5f826149f8565b604082019050919050565b60006020820190508181036000830152614a8381614a47565b9050919050565b614a9381613a29565b8114614a9e57600080fd5b50565b600081519050614ab081614a8a565b92915050565b600060208284031215614acc57614acb613127565b5b6000614ada84828501614aa1565b91505092915050565b7f45524331393637557067726164653a206e657720696d706c656d656e7461746960008201527f6f6e206973206e6f742055555053000000000000000000000000000000000000602082015250565b6000614b3f602e83613301565b9150614b4a82614ae3565b604082019050919050565b60006020820190508181036000830152614b6e81614b32565b9050919050565b7f45524331393637557067726164653a20756e737570706f727465642070726f7860008201527f6961626c65555549440000000000000000000000000000000000000000000000602082015250565b6000614bd1602983613301565b9150614bdc82614b75565b604082019050919050565b60006020820190508181036000830152614c0081614bc4565b9050919050565b7f45524332303a206d696e7420746f20746865207a65726f206164647265737300600082015250565b6000614c3d601f83613301565b9150614c4882614c07565b602082019050919050565b60006020820190508181036000830152614c6c81614c30565b9050919050565b7f45524332303a206275726e2066726f6d20746865207a65726f2061646472657360008201527f7300000000000000000000000000000000000000000000000000000000000000602082015250565b6000614ccf602183613301565b9150614cda82614c73565b604082019050919050565b60006020820190508181036000830152614cfe81614cc2565b9050919050565b7f45524332303a206275726e20616d6f756e7420657863656564732062616c616e60008201527f6365000000000000000000000000000000000000000000000000000000000000602082015250565b6000614d61602283613301565b9150614d6c82614d05565b604082019050919050565b60006020820190508181036000830152614d9081614d54565b9050919050565b60008190508160005260206000209050919050565b60006020601f8301049050919050565b600082821b905092915050565b600060088302614df97fffffffffffffffffffffffffffffffffffffffffffffffffffffffffffffffff82614dbc565b614e038683614dbc565b95508019841693508086168417925050509392505050565b6000614e36614e31614e2c846133f5565b613bc3565b6133f5565b9050919050565b6000819050919050565b614e5083614e1b565b614e64614e5c82614e3d565b848454614dc9565b825550505050565b600090565b614e79614e6c565b614e84818484614e47565b505050565b5b81811015614ea857614e9d600082614e71565b600181019050614e8a565b5050565b601f821115614eed57614ebe81614d97565b614ec784614dac565b81016020851015614ed6578190505b614eea614ee285614dac565b830182614e89565b50505b505050565b600082821c905092915050565b6000614f1060001984600802614ef2565b1980831691505092915050565b6000614f298383614eff565b9150826002028217905092915050565b614f42826132f6565b67ffffffffffffffff811115614f5b57614f5a61314c565b5b614f658254613af6565b614f70828285614eac565b600060209050601f831160018114614fa35760008415614f91578287015190505b614f9b8582614f1d565b865550615003565b601f198416614fb186614d97565b60005b82811015614fd957848901518255600182019150602085019450602081019050614fb4565b86831015614ff65784890151614ff2601f891682614eff565b8355505b6001600288020188555050505b505050505050565b7f455243313936373a206e657720696d706c656d656e746174696f6e206973206e60008201527f6f74206120636f6e747261637400000000000000000000000000000000000000602082015250565b6000615067602d83613301565b91506150728261500b565b604082019050919050565b600060208201905081810360008301526150968161505a565b9050919050565b7f5061757361626c653a206e6f7420706175736564000000000000000000000000600082015250565b60006150d3601483613301565b91506150de8261509d565b602082019050919050565b60006020820190508181036000830152615102816150c6565b9050919050565b7f45524332305061757361626c653a20746f6b656e207472616e7366657220776860008201527f696c652070617573656400000000000000000000000000000000000000000000602082015250565b6000615165602a83613301565b915061517082615109565b604082019050919050565b6000602082019050818103600083015261519481615158565b9050919050565b600081519050919050565b600081905092915050565b60006151bc8261519b565b6151c681856151a6565b93506151d6818560208601613312565b80840191505092915050565b60006151ee82846151b1565b915081905092915050565b7f416464726573733a2063616c6c20746f206e6f6e2d636f6e7472616374000000600082015250565b600061522f601d83613301565b915061523a826151f9565b602082019050919050565b6000602082019050818103600083015261525e81615222565b905091905056fe416464726573733a206c6f772d6c6576656c2064656c65676174652063616c6c206661696c6564a2646970667358221220e803394c8948d1af355f41a4290206634a9079693ac313f9619ea8fd0b9055ee64736f6c63430008180033",
  "linkReferences": {},
  "deployedLinkReferences": {}
}