{
  "_format": "hh-sol-artifact-1",
  "contractName": "ImpressoVotable",
  "sourceName": "contracts/ImpressoVotable.sol",
  "abi": [
    {
      "anonymous": false,
      "inputs": [
        {
          "indexed": false,
          "internalType": "address",
          "name": "previousAdmin",
          "type": "address"
        },
        {
          "indexed": false,
          "internalType": "address",
          "name": "newAdmin",
          "type": "address"
        }
      ],
      "name": "AdminChanged",
      "type": "event"
    },
    {
      "anonymous": false,
      "inputs": [
        {
          "indexed": true,
          "internalType": "address",
          "name": "owner",
          "type": "address"
        },
        {
          "indexed": true,
          "internalType": "address",
          "name": "spender",
          "type": "address"
        },
        {
          "indexed": false,
          "internalType": "uint256",
          "name": "value",
          "type": "uint256"
        }
      ],
      "name": "Approval",
      "type": "event"
    },
    {
      "anonymous": false,
      "inputs": [
        {
          "indexed": true,
          "internalType": "address",
          "name": "beacon",
          "type": "address"
        }
      ],
      "name": "BeaconUpgraded",
      "type": "event"
    },
    {
      "anonymous": false,
      "inputs": [
        {
          "indexed": false,
          "internalType": "address[]",
          "name": "addresses",
          "type": "address[]"
        },
        {
          "indexed": false,
          "internalType": "uint256[]",
          "name": "percentages",
          "type": "uint256[]"
        }
      ],
      "name": "CommissionPercentagesSet",
      "type": "event"
    },
    {
      "anonymous": false,
      "inputs": [
        {
          "indexed": false,
          "internalType": "bool",
          "name": "enabled",
          "type": "bool"
        }
      ],
      "name": "CommissionToggled",
      "type": "event"
    },
    {
      "anonymous": false,
      "inputs": [
        {
          "indexed": false,
          "internalType": "uint8",
          "name": "version",
          "type": "uint8"
        }
      ],
      "name": "Initialized",
      "type": "event"
    },
    {
      "anonymous": false,
      "inputs": [
        {
          "indexed": true,
          "internalType": "address",
          "name": "previousOwner",
          "type": "address"
        },
        {
          "indexed": true,
          "internalType": "address",
          "name": "newOwner",
          "type": "address"
        }
      ],
      "name": "OwnershipTransferred",
      "type": "event"
    },
    {
      "anonymous": false,
      "inputs": [
        {
          "indexed": false,
          "internalType": "address",
          "name": "account",
          "type": "address"
        }
      ],
      "name": "Paused",
      "type": "event"
    },
    {
      "anonymous": false,
      "inputs": [
        {
          "indexed": true,
          "internalType": "address",
          "name": "from",
          "type": "address"
        },
        {
          "indexed": true,
          "internalType": "address",
          "name": "to",
          "type": "address"
        },
        {
          "indexed": false,
          "internalType": "uint256",
          "name": "value",
          "type": "uint256"
        }
      ],
      "name": "Transfer",
      "type": "event"
    },
    {
      "anonymous": false,
      "inputs": [
        {
          "indexed": false,
          "internalType": "address",
          "name": "account",
          "type": "address"
        }
      ],
      "name": "Unpaused",
      "type": "event"
    },
    {
      "anonymous": false,
      "inputs": [
        {
          "indexed": true,
          "internalType": "address",
          "name": "implementation",
          "type": "address"
        }
      ],
      "name": "Upgraded",
      "type": "event"
    },
    {
      "anonymous": false,
      "inputs": [
        {
          "indexed": false,
          "internalType": "string",
          "name": "title",
          "type": "string"
        },
        {
          "indexed": false,
          "internalType": "address",
          "name": "voterAddress",
          "type": "address"
        }
      ],
      "name": "Vote",
      "type": "event"
    },
    {
      "anonymous": false,
      "inputs": [
        {
          "indexed": false,
          "internalType": "string",
          "name": "title",
          "type": "string"
        },
        {
          "indexed": false,
          "internalType": "enum ImpressoVotable.VotingAction",
          "name": "action",
          "type": "uint8"
        }
      ],
      "name": "VotingActionExecuted",
      "type": "event"
    },
    {
      "anonymous": false,
      "inputs": [
        {
          "indexed": false,
          "internalType": "string",
          "name": "title",
          "type": "string"
        }
      ],
      "name": "VotingEnded",
      "type": "event"
    },
    {
      "anonymous": false,
      "inputs": [
        {
          "indexed": false,
          "internalType": "string",
          "name": "title",
          "type": "string"
        },
        {
          "indexed": false,
          "internalType": "uint256",
          "name": "votesNeeded",
          "type": "uint256"
        }
      ],
      "name": "VotingStarted",
      "type": "event"
    },
    {
      "inputs": [
        {
          "internalType": "uint256",
          "name": "",
          "type": "uint256"
        }
      ],
      "name": "_commissionAddresses",
      "outputs": [
        {
          "internalType": "address",
          "name": "",
          "type": "address"
        }
      ],
      "stateMutability": "view",
      "type": "function"
    },
    {
      "inputs": [],
      "name": "_maxTotalSupply",
      "outputs": [
        {
          "internalType": "uint256",
          "name": "",
          "type": "uint256"
        }
      ],
      "stateMutability": "view",
      "type": "function"
    },
    {
      "inputs": [
        {
          "internalType": "address",
          "name": "owner",
          "type": "address"
        },
        {
          "internalType": "address",
          "name": "spender",
          "type": "address"
        }
      ],
      "name": "allowance",
      "outputs": [
        {
          "internalType": "uint256",
          "name": "",
          "type": "uint256"
        }
      ],
      "stateMutability": "view",
      "type": "function"
    },
    {
      "inputs": [
        {
          "internalType": "address",
          "name": "spender",
          "type": "address"
        },
        {
          "internalType": "uint256",
          "name": "amount",
          "type": "uint256"
        }
      ],
      "name": "approve",
      "outputs": [
        {
          "internalType": "bool",
          "name": "",
          "type": "bool"
        }
      ],
      "stateMutability": "nonpayable",
      "type": "function"
    },
    {
      "inputs": [
        {
          "internalType": "address",
          "name": "account",
          "type": "address"
        }
      ],
      "name": "balanceOf",
      "outputs": [
        {
          "internalType": "uint256",
          "name": "",
          "type": "uint256"
        }
      ],
      "stateMutability": "view",
      "type": "function"
    },
    {
      "inputs": [
        {
          "internalType": "address",
          "name": "voter",
          "type": "address"
        }
      ],
      "name": "blacklistVoter",
      "outputs": [],
      "stateMutability": "nonpayable",
      "type": "function"
    },
    {
      "inputs": [
        {
          "internalType": "uint256",
          "name": "amount",
          "type": "uint256"
        }
      ],
      "name": "burn",
      "outputs": [],
      "stateMutability": "nonpayable",
      "type": "function"
    },
    {
      "inputs": [
        {
          "internalType": "address",
          "name": "account",
          "type": "address"
        },
        {
          "internalType": "uint256",
          "name": "amount",
          "type": "uint256"
        }
      ],
      "name": "burnFrom",
      "outputs": [],
      "stateMutability": "nonpayable",
      "type": "function"
    },
    {
      "inputs": [
        {
          "internalType": "string",
          "name": "title",
          "type": "string"
        },
        {
          "internalType": "uint256",
          "name": "votesNeeded",
          "type": "uint256"
        },
        {
          "internalType": "enum ImpressoVotable.VotingAction",
          "name": "action",
          "type": "uint8"
        }
      ],
      "name": "createVoting",
      "outputs": [],
      "stateMutability": "nonpayable",
      "type": "function"
    },
    {
      "inputs": [],
      "name": "decimals",
      "outputs": [
        {
          "internalType": "uint8",
          "name": "",
          "type": "uint8"
        }
      ],
      "stateMutability": "view",
      "type": "function"
    },
    {
      "inputs": [
        {
          "internalType": "address",
          "name": "spender",
          "type": "address"
        },
        {
          "internalType": "uint256",
          "name": "subtractedValue",
          "type": "uint256"
        }
      ],
      "name": "decreaseAllowance",
      "outputs": [
        {
          "internalType": "bool",
          "name": "",
          "type": "bool"
        }
      ],
      "stateMutability": "nonpayable",
      "type": "function"
    },
    {
      "inputs": [],
      "name": "getCommissionEnabled",
      "outputs": [
        {
          "internalType": "bool",
          "name": "",
          "type": "bool"
        }
      ],
      "stateMutability": "view",
      "type": "function"
    },
    {
      "inputs": [
        {
          "internalType": "address",
          "name": "addr",
          "type": "address"
        }
      ],
      "name": "getCommissionPercentage",
      "outputs": [
        {
          "internalType": "uint256",
          "name": "",
          "type": "uint256"
        }
      ],
      "stateMutability": "view",
      "type": "function"
    },
    {
      "inputs": [
        {
          "internalType": "address",
          "name": "spender",
          "type": "address"
        },
        {
          "internalType": "uint256",
          "name": "addedValue",
          "type": "uint256"
        }
      ],
      "name": "increaseAllowance",
      "outputs": [
        {
          "internalType": "bool",
          "name": "",
          "type": "bool"
        }
      ],
      "stateMutability": "nonpayable",
      "type": "function"
    },
    {
      "inputs": [
        {
          "internalType": "string",
          "name": "name",
          "type": "string"
        },
        {
          "internalType": "string",
          "name": "symbol",
          "type": "string"
        },
        {
          "internalType": "uint256",
          "name": "maxTotalSupply",
          "type": "uint256"
        },
        {
          "internalType": "bool",
          "name": "useMaxTotalSupply",
          "type": "bool"
        },
        {
          "internalType": "address",
          "name": "owner",
          "type": "address"
        }
      ],
      "name": "initialize",
      "outputs": [],
      "stateMutability": "nonpayable",
      "type": "function"
    },
    {
      "inputs": [
        {
          "internalType": "string",
          "name": "",
          "type": "string"
        }
      ],
      "name": "isVotingActive",
      "outputs": [
        {
          "internalType": "bool",
          "name": "",
          "type": "bool"
        }
      ],
      "stateMutability": "view",
      "type": "function"
    },
    {
      "inputs": [
        {
          "internalType": "address",
          "name": "to",
          "type": "address"
        },
        {
          "internalType": "uint256",
          "name": "amount",
          "type": "uint256"
        }
      ],
      "name": "mint",
      "outputs": [],
      "stateMutability": "nonpayable",
      "type": "function"
    },
    {
      "inputs": [],
      "name": "name",
      "outputs": [
        {
          "internalType": "string",
          "name": "",
          "type": "string"
        }
      ],
      "stateMutability": "view",
      "type": "function"
    },
    {
      "inputs": [],
      "name": "owner",
      "outputs": [
        {
          "internalType": "address",
          "name": "",
          "type": "address"
        }
      ],
      "stateMutability": "view",
      "type": "function"
    },
    {
      "inputs": [],
      "name": "pause",
      "outputs": [],
      "stateMutability": "nonpayable",
      "type": "function"
    },
    {
      "inputs": [],
      "name": "paused",
      "outputs": [
        {
          "internalType": "bool",
          "name": "",
          "type": "bool"
        }
      ],
      "stateMutability": "view",
      "type": "function"
    },
    {
      "inputs": [],
      "name": "proxiableUUID",
      "outputs": [
        {
          "internalType": "bytes32",
          "name": "",
          "type": "bytes32"
        }
      ],
      "stateMutability": "view",
      "type": "function"
    },
    {
      "inputs": [],
      "name": "renounceOwnership",
      "outputs": [],
      "stateMutability": "nonpayable",
      "type": "function"
    },
    {
      "inputs": [
        {
          "internalType": "address[]",
          "name": "addrs",
          "type": "address[]"
        },
        {
          "internalType": "uint256[]",
          "name": "percentages",
          "type": "uint256[]"
        }
      ],
      "name": "setCommissionPercentages",
      "outputs": [],
      "stateMutability": "nonpayable",
      "type": "function"
    },
    {
      "inputs": [],
      "name": "symbol",
      "outputs": [
        {
          "internalType": "string",
          "name": "",
          "type": "string"
        }
      ],
      "stateMutability": "view",
      "type": "function"
    },
    {
      "inputs": [
        {
          "internalType": "bool",
          "name": "enable",
          "type": "bool"
        }
      ],
      "name": "toggleCommission",
      "outputs": [],
      "stateMutability": "nonpayable",
      "type": "function"
    },
    {
      "inputs": [],
      "name": "totalSupply",
      "outputs": [
        {
          "internalType": "uint256",
          "name": "",
          "type": "uint256"
        }
      ],
      "stateMutability": "view",
      "type": "function"
    },
    {
      "inputs": [
        {
          "internalType": "string",
          "name": "",
          "type": "string"
        }
      ],
      "name": "totalVotes",
      "outputs": [
        {
          "internalType": "uint256",
          "name": "",
          "type": "uint256"
        }
      ],
      "stateMutability": "view",
      "type": "function"
    },
    {
      "inputs": [
        {
          "internalType": "address",
          "name": "to",
          "type": "address"
        },
        {
          "internalType": "uint256",
          "name": "amount",
          "type": "uint256"
        }
      ],
      "name": "transfer",
      "outputs": [
        {
          "internalType": "bool",
          "name": "",
          "type": "bool"
        }
      ],
      "stateMutability": "nonpayable",
      "type": "function"
    },
    {
      "inputs": [
        {
          "internalType": "address",
          "name": "from",
          "type": "address"
        },
        {
          "internalType": "address",
          "name": "to",
          "type": "address"
        },
        {
          "internalType": "uint256",
          "name": "amount",
          "type": "uint256"
        }
      ],
      "name": "transferFrom",
      "outputs": [
        {
          "internalType": "bool",
          "name": "",
          "type": "bool"
        }
      ],
      "stateMutability": "nonpayable",
      "type": "function"
    },
    {
      "inputs": [
        {
          "internalType": "address",
          "name": "newOwner",
          "type": "address"
        }
      ],
      "name": "transferOwnership",
      "outputs": [],
      "stateMutability": "nonpayable",
      "type": "function"
    },
    {
      "inputs": [],
      "name": "unpause",
      "outputs": [],
      "stateMutability": "nonpayable",
      "type": "function"
    },
    {
      "inputs": [
        {
          "internalType": "address",
          "name": "newImplementation",
          "type": "address"
        }
      ],
      "name": "upgradeTo",
      "outputs": [],
      "stateMutability": "nonpayable",
      "type": "function"
    },
    {
      "inputs": [
        {
          "internalType": "address",
          "name": "newImplementation",
          "type": "address"
        },
        {
          "internalType": "bytes",
          "name": "data",
          "type": "bytes"
        }
      ],
      "name": "upgradeToAndCall",
      "outputs": [],
      "stateMutability": "payable",
      "type": "function"
    },
    {
      "inputs": [
        {
          "internalType": "string",
          "name": "votingTitle",
          "type": "string"
        }
      ],
      "name": "vote",
      "outputs": [],
      "stateMutability": "nonpayable",
      "type": "function"
    },
    {
      "inputs": [
        {
          "internalType": "string",
          "name": "",
          "type": "string"
        }
      ],
      "name": "votesCountNeeded",
      "outputs": [
        {
          "internalType": "uint256",
          "name": "",
          "type": "uint256"
        }
      ],
      "stateMutability": "view",
      "type": "function"
    },
    {
      "inputs": [
        {
          "internalType": "string",
          "name": "",
          "type": "string"
        }
      ],
      "name": "votingActions",
      "outputs": [
        {
          "internalType": "enum ImpressoVotable.VotingAction",
          "name": "",
          "type": "uint8"
        }
      ],
      "stateMutability": "view",
      "type": "function"
    },
    {
      "inputs": [
        {
          "internalType": "string",
          "name": "",
          "type": "string"
        },
        {
          "internalType": "address",
          "name": "",
          "type": "address"
        }
      ],
      "name": "votings",
      "outputs": [
        {
          "internalType": "bool",
          "name": "",
          "type": "bool"
        }
      ],
      "stateMutability": "view",
      "type": "function"
    }
  ],
  "bytecode": "0x60a0604052306080523480156200001557600080fd5b50610191805460ff191660011790556200002e62000034565b620000f5565b600054610100900460ff1615620000a15760405162461bcd60e51b815260206004820152602760248201527f496e697469616c697a61626c653a20636f6e747261637420697320696e697469604482015266616c697a696e6760c81b606482015260840160405180910390fd5b60005460ff90811614620000f3576000805460ff191660ff9081179091556040519081527f7f26b83ff96e1f2b6a682f133852f6798a09c465da95921460cefb38474024989060200160405180910390a15b565b60805161390b6200012d60003960008181611193015281816112180152818161140e015281816114930152611579015261390b6000f3fe6080604052600436106102855760003560e01c806352d1902d116101535780638b97dbad116100cb578063a9059cbb1161007f578063f2fde38b11610064578063f2fde38b14610793578063f500aa0a146107b3578063fc36e15b146107d357600080fd5b8063a9059cbb1461072d578063dd62ed3e1461074d57600080fd5b806395d89b41116100b057806395d89b41146106d85780639b698275146106ed578063a457c2d71461070d57600080fd5b80638b97dbad146106715780638da5cb5b146106ba57600080fd5b806370a082311161012257806375dee9981161010757806375dee9981461061c57806379cc67901461063c5780638456cb591461065c57600080fd5b806370a08231146105d1578063715018a61461060757600080fd5b806352d1902d1461053357806356df006b146105485780635900f8f8146105805780635c975abb146105b957600080fd5b8063313ce567116102015780633f4ba83a116101b557806342966c681161019a57806342966c68146104eb5780634591da161461050b5780634f1ef2861461052057600080fd5b80633f4ba83a146104b657806340c10f19146104cb57600080fd5b80633659cfe6116101e65780633659cfe61461045f5780633730837c1461047f578063395093511461049657600080fd5b8063313ce56714610423578063342d18671461043f57600080fd5b806318160ddd116102585780632220112d1161023d5780632220112d146103c157806323b872dd146103e357806330be5f081461040357600080fd5b806318160ddd146103695780631df1a88a1461038857600080fd5b806304574fe81461028a57806306fdde03146102db578063095ea7b3146102fd5780631635f9cf1461031d575b600080fd5b34801561029657600080fd5b506102c66102a53660046130ee565b80516020818301810180516101998252928201919093012091525460ff1681565b60405190151581526020015b60405180910390f35b3480156102e757600080fd5b506102f06107f3565b6040516102d29190613173565b34801561030957600080fd5b506102c661031836600461319d565b610885565b34801561032957600080fd5b506102c66103383660046131c7565b8151602081840181018051610197825292820194820194909420919093529091526000908152604090205460ff1681565b34801561037557600080fd5b506035545b6040519081526020016102d2565b34801561039457600080fd5b5061037a6103a33660046130ee565b805160208183018101805161019a8252928201919093012091525481565b3480156103cd57600080fd5b506103e16103dc3660046132a8565b61089f565b005b3480156103ef57600080fd5b506102c66103fe366004613368565b610cb6565b34801561040f57600080fd5b506103e161041e3660046133a4565b610f75565b34801561042f57600080fd5b50604051601281526020016102d2565b34801561044b57600080fd5b506103e161045a366004613413565b611130565b34801561046b57600080fd5b506103e161047a36600461342e565b611189565b34801561048b57600080fd5b5061037a6101935481565b3480156104a257600080fd5b506102c66104b136600461319d565b611304565b3480156104c257600080fd5b506103e1611343565b3480156104d757600080fd5b506103e16104e636600461319d565b611355565b3480156104f757600080fd5b506103e1610506366004613449565b6113e5565b34801561051757600080fd5b506102c66113ef565b6103e161052e366004613462565b611404565b34801561053f57600080fd5b5061037a61156c565b34801561055457600080fd5b50610568610563366004613449565b611631565b6040516001600160a01b0390911681526020016102d2565b34801561058c57600080fd5b5061037a61059b3660046130ee565b80516020818301810180516101988252928201919093012091525481565b3480156105c557600080fd5b5060975460ff166102c6565b3480156105dd57600080fd5b5061037a6105ec36600461342e565b6001600160a01b031660009081526033602052604090205490565b34801561061357600080fd5b506103e161165c565b34801561062857600080fd5b506103e161063736600461342e565b61166e565b34801561064857600080fd5b506103e161065736600461319d565b6116a3565b34801561066857600080fd5b506103e16116b8565b34801561067d57600080fd5b506106ad61068c3660046130ee565b805160208183018101805161019b8252928201919093012091525460ff1681565b6040516102d291906134f2565b3480156106c657600080fd5b5060fb546001600160a01b0316610568565b3480156106e457600080fd5b506102f06116d0565b3480156106f957600080fd5b506103e1610708366004613500565b6116df565b34801561071957600080fd5b506102c661072836600461319d565b6118a1565b34801561073957600080fd5b506102c661074836600461319d565b611956565b34801561075957600080fd5b5061037a61076836600461358f565b6001600160a01b03918216600090815260346020908152604080832093909416825291909152205490565b34801561079f57600080fd5b506103e16107ae36600461342e565b611b6e565b3480156107bf57600080fd5b5061037a6107ce36600461342e565b611bfb565b3480156107df57600080fd5b506103e16107ee3660046130ee565b611c26565b606060368054610802906135b9565b80601f016020809104026020016040519081016040528092919081815260200182805461082e906135b9565b801561087b5780601f106108505761010080835404028352916020019161087b565b820191906000526020600020905b81548152906001019060200180831161085e57829003601f168201915b5050505050905090565b600033610893818585611f26565b60019150505b92915050565b6108a761207e565b6108af6120d8565b80518251146109055760405162461bcd60e51b815260206004820152601660248201527f417272617973206c656e677468206d69736d617463680000000000000000000060448201526064015b60405180910390fd5b61019254825160039161091791613609565b111561098b5760405162461bcd60e51b815260206004820152602e60248201527f45786365656473206d6178696d756d206e756d626572206f6620636f6d6d697360448201527f73696f6e2061646472657373657300000000000000000000000000000000000060648201526084016108fc565b6000805b82518110156109c7578281815181106109aa576109aa61361c565b6020026020010151826109bd9190613609565b915060010161098f565b5060005b61019254811015610a2857610195600061019283815481106109ef576109ef61361c565b60009182526020808320909101546001600160a01b03168352820192909252604001902054610a1e9083613609565b91506001016109cb565b506064811115610aa05760405162461bcd60e51b815260206004820152602860248201527f546f74616c20636f6d6d697373696f6e2070657263656e74616765206578636560448201527f656473203130302500000000000000000000000000000000000000000000000060648201526084016108fc565b60005b8351811015610c775760006001600160a01b0316848281518110610ac957610ac961361c565b60200260200101516001600160a01b031603610b4d5760405162461bcd60e51b815260206004820152602160248201527f436f6d6d697373696f6e20616464726573732063616e6e6f74206265207a657260448201527f6f0000000000000000000000000000000000000000000000000000000000000060648201526084016108fc565b6000848281518110610b6157610b6161361c565b602002602001015190506000848381518110610b7f57610b7f61361c565b602002602001015190506064811115610bda5760405162461bcd60e51b815260206004820152601960248201527f50657263656e74616765206d757374206265203c3d203130300000000000000060448201526064016108fc565b6001600160a01b038216600090815261019560205260408120549003610c545761019280546001810182556000919091527ffcfced99f9d921eebdc59aa6f7a664084bd564a3d2d54ebc1a5c057c99c67aba01805473ffffffffffffffffffffffffffffffffffffffff19166001600160a01b0384161790555b6001600160a01b0390911660009081526101956020526040902055600101610aa3565b507f95e8ea5dfce8b8cae6456c2f9c4a5c9b8d05268872500067a7a195b9e2256dcb8383604051610ca9929190613632565b60405180910390a1505050565b6000610cc06120d8565b610ccb84338461212b565b6001600160a01b038416610d215760405162461bcd60e51b815260206004820152601760248201527f5472616e736665722066726f6d2030206164647265737300000000000000000060448201526064016108fc565b60008211610d715760405162461bcd60e51b815260206004820152601d60248201527f416d6f756e74206d7573742062652067726561746572207468616e203000000060448201526064016108fc565b61019254600090819067ffffffffffffffff811115610d9257610d9261302f565b604051908082528060200260200182016040528015610dbb578160200160208202803683370190505b506101915490915060ff1615610e7f5760005b61019254811015610e7d5760006101928281548110610def57610def61361c565b60009182526020808320909101546001600160a01b0316808352610195909152604090912054909150606490610e2590886136b6565b610e2f91906136cd565b838381518110610e4157610e4161361c565b602002602001018181525050828281518110610e5f57610e5f61361c565b602002602001015184610e729190613609565b935050600101610dce565b505b83821115610eda5760405162461bcd60e51b815260206004820152602260248201527f436f6d6d697373696f6e2065786365656473207472616e7366657220616d6f756044820152611b9d60f21b60648201526084016108fc565b6101915460ff1615610f535760005b61019254811015610f5157610f49876101928381548110610f0c57610f0c61361c565b9060005260206000200160009054906101000a90046001600160a01b0316848481518110610f3c57610f3c61361c565b60200260200101516121bd565b600101610ee9565b505b610f678686610f6285886136ef565b6121bd565b6001925050505b9392505050565b610f7d61207e565b610f856120d8565b60008211610fd55760405162461bcd60e51b815260206004820152601760248201527f766f7465734e6565646564206d757374206265203e203000000000000000000060448201526064016108fc565b61019a83604051610fe69190613702565b90815260200160405180910390205460001461106a5760405162461bcd60e51b815260206004820152602560248201527f566f74696e6720776974682074686973207469746c6520616c7265616479206560448201527f786973747300000000000000000000000000000000000000000000000000000060648201526084016108fc565b8061019b8460405161107c9190613702565b908152604051908190036020019020805460ff191660018360038111156110a5576110a56134ba565b02179055508161019a846040516110bc9190613702565b9081526020016040518091039020819055506001610199846040516110e19190613702565b908152604051908190036020018120805492151560ff19909316929092179091557e974e7a9f2acf0f113201dd02a3c9904153c5c7f5a5b71959eb47bb505f9b8c90610ca9908590859061371e565b61113861207e565b6111406120d8565b610191805460ff19168215159081179091556040519081527f4d994b889ab3f885e3573cc03c143bd1e72ac3d62b93cfd86507d25b7a3541f4906020015b60405180910390a150565b6001600160a01b037f00000000000000000000000000000000000000000000000000000000000000001630036112165760405162461bcd60e51b815260206004820152602c60248201527f46756e6374696f6e206d7573742062652063616c6c6564207468726f7567682060448201526b19195b1959d85d1958d85b1b60a21b60648201526084016108fc565b7f00000000000000000000000000000000000000000000000000000000000000006001600160a01b03166112717f360894a13ba1a3210667c828492db98dca3e2076cc3735a920a3ca505d382bbc546001600160a01b031690565b6001600160a01b0316146112dc5760405162461bcd60e51b815260206004820152602c60248201527f46756e6374696f6e206d7573742062652063616c6c6564207468726f7567682060448201526b6163746976652070726f787960a01b60648201526084016108fc565b6112e5816123bc565b60408051600080825260208201909252611301918391906123c4565b50565b3360008181526034602090815260408083206001600160a01b0387168452909152812054909190610893908290869061133e908790613609565b611f26565b61134b61207e565b611353612569565b565b61135d61207e565b6113656120d8565b6101945460ff16156113d757610193548161137f60355490565b6113899190613609565b11156113d75760405162461bcd60e51b815260206004820152601c60248201527f45786365656473206d6178696d756d20746f74616c20737570706c790000000060448201526064016108fc565b6113e182826125bb565b5050565b6113013382612688565b60006113f96120d8565b506101915460ff1690565b6001600160a01b037f00000000000000000000000000000000000000000000000000000000000000001630036114915760405162461bcd60e51b815260206004820152602c60248201527f46756e6374696f6e206d7573742062652063616c6c6564207468726f7567682060448201526b19195b1959d85d1958d85b1b60a21b60648201526084016108fc565b7f00000000000000000000000000000000000000000000000000000000000000006001600160a01b03166114ec7f360894a13ba1a3210667c828492db98dca3e2076cc3735a920a3ca505d382bbc546001600160a01b031690565b6001600160a01b0316146115575760405162461bcd60e51b815260206004820152602c60248201527f46756e6374696f6e206d7573742062652063616c6c6564207468726f7567682060448201526b6163746976652070726f787960a01b60648201526084016108fc565b611560826123bc565b6113e1828260016123c4565b6000306001600160a01b037f0000000000000000000000000000000000000000000000000000000000000000161461160c5760405162461bcd60e51b815260206004820152603860248201527f555550535570677261646561626c653a206d757374206e6f742062652063616c60448201527f6c6564207468726f7567682064656c656761746563616c6c000000000000000060648201526084016108fc565b507f360894a13ba1a3210667c828492db98dca3e2076cc3735a920a3ca505d382bbc90565b610192818154811061164257600080fd5b6000918252602090912001546001600160a01b0316905081565b61166461207e565b61135360006127ff565b61167661207e565b61167e6120d8565b6001600160a01b0316600090815261019660205260409020805460ff19166001179055565b6116ae82338361212b565b6113e18282612688565b6116c061207e565b6116c86120d8565b61135361285e565b606060378054610802906135b9565b600054610100900460ff16158080156116ff5750600054600160ff909116105b806117195750303b158015611719575060005460ff166001145b61178b5760405162461bcd60e51b815260206004820152602e60248201527f496e697469616c697a61626c653a20636f6e747261637420697320616c72656160448201527f647920696e697469616c697a656400000000000000000000000000000000000060648201526084016108fc565b6000805460ff1916600117905580156117ae576000805461ff0019166101001790555b6001600160a01b0382166118045760405162461bcd60e51b815260206004820152601c60248201527f4f776e65722063616e6e6f74206265207a65726f20616464726573730000000060448201526064016108fc565b610193849055610194805484151560ff199182161790915561019180549091166001179055611833868661289b565b61183b612910565b61184361297b565b61184b6129ee565b611853612910565b8015611899576000805461ff0019169055604051600181527f7f26b83ff96e1f2b6a682f133852f6798a09c465da95921460cefb38474024989060200160405180910390a15b505050505050565b3360008181526034602090815260408083206001600160a01b03871684529091528120549091908381101561193e5760405162461bcd60e51b815260206004820152602560248201527f45524332303a2064656372656173656420616c6c6f77616e63652062656c6f7760448201527f207a65726f00000000000000000000000000000000000000000000000000000060648201526084016108fc565b61194b8286868403611f26565b506001949350505050565b60006119606120d8565b33806119ae5760405162461bcd60e51b815260206004820152601760248201527f5472616e736665722066726f6d2030206164647265737300000000000000000060448201526064016108fc565b61019254600090819067ffffffffffffffff8111156119cf576119cf61302f565b6040519080825280602002602001820160405280156119f8578160200160208202803683370190505b506101915490915060ff1615611abc5760005b61019254811015611aba5760006101928281548110611a2c57611a2c61361c565b60009182526020808320909101546001600160a01b0316808352610195909152604090912054909150606490611a6290896136b6565b611a6c91906136cd565b838381518110611a7e57611a7e61361c565b602002602001018181525050828281518110611a9c57611a9c61361c565b602002602001015184611aaf9190613609565b935050600101611a0b565b505b84821115611b175760405162461bcd60e51b815260206004820152602260248201527f436f6d6d697373696f6e2065786365656473207472616e7366657220616d6f756044820152611b9d60f21b60648201526084016108fc565b6101915460ff1615611b535760005b61019254811015611b5157611b49846101928381548110610f0c57610f0c61361c565b600101611b26565b505b611b628387610f6285896136ef565b50600195945050505050565b611b7661207e565b6001600160a01b038116611bf25760405162461bcd60e51b815260206004820152602660248201527f4f776e61626c653a206e6577206f776e657220697320746865207a65726f206160448201527f646472657373000000000000000000000000000000000000000000000000000060648201526084016108fc565b611301816127ff565b6000611c056120d8565b506001600160a01b038116600090815261019560205260409020545b919050565b611c2e6120d8565b6000815111611c7f5760405162461bcd60e51b815260206004820152601260248201527f456d70747920766f74696e67207469746c65000000000000000000000000000060448201526064016108fc565b61019981604051611c909190613702565b9081526040519081900360200190205460ff16611cef5760405162461bcd60e51b815260206004820152601a60248201527f566f74696e6720656e646564206f72206e6f742065786973747300000000000060448201526064016108fc565b336000908152610196602052604090205460ff1615611d505760405162461bcd60e51b815260206004820152601360248201527f4e6f7420616c6c6f77656420746f20766f74650000000000000000000000000060448201526064016108fc565b61019781604051611d619190613702565b9081526040805160209281900383019020336000908152925290205460ff1615611dcd5760405162461bcd60e51b815260206004820152600d60248201527f416c726561647920766f7465640000000000000000000000000000000000000060448201526064016108fc565b600161019782604051611de09190613702565b90815260408051602092819003830181203360009081529352908220805460ff1916931515939093179092559061019890611e1c908490613702565b9081526020016040518091039020546001611e379190613609565b90508061019883604051611e4b9190613702565b9081526020016040518091039020819055507f6df8a0bf3c87bd629e9f543b9d0831beeea8b80de3f478dd846541ed8d97405b8233604051611e8e929190613740565b60405180910390a161019a82604051611ea79190613702565b9081526020016040518091039020548110158015611ee5575061019982604051611ed19190613702565b9081526040519081900360200190205460ff165b156113e157600061019983604051611efd9190613702565b908152604051908190036020019020805491151560ff199092169190911790556113e182612a61565b6001600160a01b038316611fa15760405162461bcd60e51b8152602060048201526024808201527f45524332303a20617070726f76652066726f6d20746865207a65726f2061646460448201527f726573730000000000000000000000000000000000000000000000000000000060648201526084016108fc565b6001600160a01b03821661201d5760405162461bcd60e51b815260206004820152602260248201527f45524332303a20617070726f766520746f20746865207a65726f20616464726560448201527f737300000000000000000000000000000000000000000000000000000000000060648201526084016108fc565b6001600160a01b0383811660008181526034602090815260408083209487168084529482529182902085905590518481527f8c5be1e5ebec7d5bd14f71427d1e84f3dd0314c0f7b2291e5b200ac8c7c3b925910160405180910390a3505050565b60fb546001600160a01b031633146113535760405162461bcd60e51b815260206004820181905260248201527f4f776e61626c653a2063616c6c6572206973206e6f7420746865206f776e657260448201526064016108fc565b60975460ff16156113535760405162461bcd60e51b815260206004820152601060248201527f5061757361626c653a207061757365640000000000000000000000000000000060448201526064016108fc565b6001600160a01b0383811660009081526034602090815260408083209386168352929052205460001981146121b757818110156121aa5760405162461bcd60e51b815260206004820152601d60248201527f45524332303a20696e73756666696369656e7420616c6c6f77616e636500000060448201526064016108fc565b6121b78484848403611f26565b50505050565b6001600160a01b0383166122395760405162461bcd60e51b815260206004820152602560248201527f45524332303a207472616e736665722066726f6d20746865207a65726f20616460448201527f647265737300000000000000000000000000000000000000000000000000000060648201526084016108fc565b6001600160a01b0382166122b55760405162461bcd60e51b815260206004820152602360248201527f45524332303a207472616e7366657220746f20746865207a65726f206164647260448201527f657373000000000000000000000000000000000000000000000000000000000060648201526084016108fc565b6122c0838383612b16565b6001600160a01b0383166000908152603360205260409020548181101561234f5760405162461bcd60e51b815260206004820152602660248201527f45524332303a207472616e7366657220616d6f756e742065786365656473206260448201527f616c616e6365000000000000000000000000000000000000000000000000000060648201526084016108fc565b6001600160a01b0380851660008181526033602052604080822086860390559286168082529083902080548601905591517fddf252ad1be2c89b69c2b068fc378daa952ba7f163c4a11628f55a4df523b3ef906123af9086815260200190565b60405180910390a36121b7565b61130161207e565b7f4910fdfa16fed3260ed0e7147f7cc6da11a60208b5b9406d12a635614ffd91435460ff16156123fc576123f783612b21565b505050565b826001600160a01b03166352d1902d6040518163ffffffff1660e01b8152600401602060405180830381865afa925050508015612456575060408051601f3d908101601f191682019092526124539181019061376b565b60015b6124c85760405162461bcd60e51b815260206004820152602e60248201527f45524331393637557067726164653a206e657720696d706c656d656e7461746960448201527f6f6e206973206e6f74205555505300000000000000000000000000000000000060648201526084016108fc565b7f360894a13ba1a3210667c828492db98dca3e2076cc3735a920a3ca505d382bbc811461255d5760405162461bcd60e51b815260206004820152602960248201527f45524331393637557067726164653a20756e737570706f727465642070726f7860448201527f6961626c6555554944000000000000000000000000000000000000000000000060648201526084016108fc565b506123f7838383612bec565b612571612c11565b6097805460ff191690557f5db9ee0a495bf2e6ff9c91a7834c1ba4fdd244a5e8aa4e537bd38aeae4b073aa335b6040516001600160a01b03909116815260200160405180910390a1565b6001600160a01b0382166126115760405162461bcd60e51b815260206004820152601f60248201527f45524332303a206d696e7420746f20746865207a65726f20616464726573730060448201526064016108fc565b61261d60008383612b16565b806035600082825461262f9190613609565b90915550506001600160a01b0382166000818152603360209081526040808320805486019055518481527fddf252ad1be2c89b69c2b068fc378daa952ba7f163c4a11628f55a4df523b3ef910160405180910390a35050565b6001600160a01b0382166127045760405162461bcd60e51b815260206004820152602160248201527f45524332303a206275726e2066726f6d20746865207a65726f2061646472657360448201527f730000000000000000000000000000000000000000000000000000000000000060648201526084016108fc565b61271082600083612b16565b6001600160a01b0382166000908152603360205260409020548181101561279f5760405162461bcd60e51b815260206004820152602260248201527f45524332303a206275726e20616d6f756e7420657863656564732062616c616e60448201527f636500000000000000000000000000000000000000000000000000000000000060648201526084016108fc565b6001600160a01b03831660008181526033602090815260408083208686039055603580548790039055518581529192917fddf252ad1be2c89b69c2b068fc378daa952ba7f163c4a11628f55a4df523b3ef910160405180910390a3505050565b60fb80546001600160a01b0383811673ffffffffffffffffffffffffffffffffffffffff19831681179093556040519116919082907f8be0079c531659141344cd1fd0a4f28419497f9722a3daafe3b4186f6b6457e090600090a35050565b6128666120d8565b6097805460ff191660011790557f62e78cea01bee320cd4e420270b5ea74000d11b0c9f74754ebdbfc544b05a25861259e3390565b600054610100900460ff166129065760405162461bcd60e51b815260206004820152602b60248201527f496e697469616c697a61626c653a20636f6e7472616374206973206e6f74206960448201526a6e697469616c697a696e6760a81b60648201526084016108fc565b6113e18282612c63565b600054610100900460ff166113535760405162461bcd60e51b815260206004820152602b60248201527f496e697469616c697a61626c653a20636f6e7472616374206973206e6f74206960448201526a6e697469616c697a696e6760a81b60648201526084016108fc565b600054610100900460ff166129e65760405162461bcd60e51b815260206004820152602b60248201527f496e697469616c697a61626c653a20636f6e7472616374206973206e6f74206960448201526a6e697469616c697a696e6760a81b60648201526084016108fc565b611353612ce7565b600054610100900460ff16612a595760405162461bcd60e51b815260206004820152602b60248201527f496e697469616c697a61626c653a20636f6e7472616374206973206e6f74206960448201526a6e697469616c697a696e6760a81b60648201526084016108fc565b611353612d5e565b600061019b82604051612a749190613702565b9081526040519081900360200190205460ff1690506001816003811115612a9d57612a9d6134ba565b03612aaf57612aaa61285e565b612ad0565b6002816003811115612ac357612ac36134ba565b03612ad057612ad0612569565b612ad982612dd2565b7f870bd6c9e730a8bf0afe9ff73b776dd00fd2945417f1cef9fe0e074c603a5c398282604051612b0a929190613784565b60405180910390a15050565b6123f7838383612e33565b6001600160a01b0381163b612b9e5760405162461bcd60e51b815260206004820152602d60248201527f455243313936373a206e657720696d706c656d656e746174696f6e206973206e60448201527f6f74206120636f6e74726163740000000000000000000000000000000000000060648201526084016108fc565b7f360894a13ba1a3210667c828492db98dca3e2076cc3735a920a3ca505d382bbc805473ffffffffffffffffffffffffffffffffffffffff19166001600160a01b0392909216919091179055565b612bf583612eac565b600082511180612c025750805b156123f7576121b78383612eec565b60975460ff166113535760405162461bcd60e51b815260206004820152601460248201527f5061757361626c653a206e6f742070617573656400000000000000000000000060448201526064016108fc565b600054610100900460ff16612cce5760405162461bcd60e51b815260206004820152602b60248201527f496e697469616c697a61626c653a20636f6e7472616374206973206e6f74206960448201526a6e697469616c697a696e6760a81b60648201526084016108fc565b6036612cda83826137ee565b5060376123f782826137ee565b600054610100900460ff16612d525760405162461bcd60e51b815260206004820152602b60248201527f496e697469616c697a61626c653a20636f6e7472616374206973206e6f74206960448201526a6e697469616c697a696e6760a81b60648201526084016108fc565b6097805460ff19169055565b600054610100900460ff16612dc95760405162461bcd60e51b815260206004820152602b60248201527f496e697469616c697a61626c653a20636f6e7472616374206973206e6f74206960448201526a6e697469616c697a696e6760a81b60648201526084016108fc565b611353336127ff565b600061019982604051612de59190613702565b908152604051908190036020018120805492151560ff19909316929092179091557f74e0b2978c99ca20b757f0f8b458fc435f508ea64c542132a673e898b96f535d9061117e908390613173565b60975460ff16156123f75760405162461bcd60e51b815260206004820152602a60248201527f45524332305061757361626c653a20746f6b656e207472616e7366657220776860448201527f696c65207061757365640000000000000000000000000000000000000000000060648201526084016108fc565b612eb581612b21565b6040516001600160a01b038216907fbc7cd75a20ee27fd9adebab32041f755214dbc6bffa90cc0225b39da2e5c2d3b90600090a250565b6060610f6e83836040518060600160405280602781526020016138af602791396060600080856001600160a01b031685604051612f299190613702565b600060405180830381855af49150503d8060008114612f64576040519150601f19603f3d011682016040523d82523d6000602084013e612f69565b606091505b5091509150612f7a86838387612f84565b9695505050505050565b60608315612ff3578251600003612fec576001600160a01b0385163b612fec5760405162461bcd60e51b815260206004820152601d60248201527f416464726573733a2063616c6c20746f206e6f6e2d636f6e747261637400000060448201526064016108fc565b5081612ffd565b612ffd8383613005565b949350505050565b8151156130155781518083602001fd5b8060405162461bcd60e51b81526004016108fc9190613173565b634e487b7160e01b600052604160045260246000fd5b604051601f8201601f1916810167ffffffffffffffff8111828210171561306e5761306e61302f565b604052919050565b600067ffffffffffffffff8311156130905761309061302f565b6130a3601f8401601f1916602001613045565b90508281528383830111156130b757600080fd5b828260208301376000602084830101529392505050565b600082601f8301126130df57600080fd5b610f6e83833560208501613076565b60006020828403121561310057600080fd5b813567ffffffffffffffff81111561311757600080fd5b612ffd848285016130ce565b60005b8381101561313e578181015183820152602001613126565b50506000910152565b6000815180845261315f816020860160208601613123565b601f01601f19169290920160200192915050565b602081526000610f6e6020830184613147565b80356001600160a01b0381168114611c2157600080fd5b600080604083850312156131b057600080fd5b6131b983613186565b946020939093013593505050565b600080604083850312156131da57600080fd5b823567ffffffffffffffff8111156131f157600080fd5b6131fd858286016130ce565b92505061320c60208401613186565b90509250929050565b600067ffffffffffffffff82111561322f5761322f61302f565b5060051b60200190565b600082601f83011261324a57600080fd5b8135602061325f61325a83613215565b613045565b8083825260208201915060208460051b87010193508684111561328157600080fd5b602086015b8481101561329d5780358352918301918301613286565b509695505050505050565b600080604083850312156132bb57600080fd5b823567ffffffffffffffff808211156132d357600080fd5b818501915085601f8301126132e757600080fd5b813560206132f761325a83613215565b82815260059290921b8401810191818101908984111561331657600080fd5b948201945b8386101561333b5761332c86613186565b8252948201949082019061331b565b9650508601359250508082111561335157600080fd5b5061335e85828601613239565b9150509250929050565b60008060006060848603121561337d57600080fd5b61338684613186565b925061339460208501613186565b9150604084013590509250925092565b6000806000606084860312156133b957600080fd5b833567ffffffffffffffff8111156133d057600080fd5b6133dc868287016130ce565b935050602084013591506040840135600481106133f857600080fd5b809150509250925092565b80358015158114611c2157600080fd5b60006020828403121561342557600080fd5b610f6e82613403565b60006020828403121561344057600080fd5b610f6e82613186565b60006020828403121561345b57600080fd5b5035919050565b6000806040838503121561347557600080fd5b61347e83613186565b9150602083013567ffffffffffffffff81111561349a57600080fd5b8301601f810185136134ab57600080fd5b61335e85823560208401613076565b634e487b7160e01b600052602160045260246000fd5b600481106134ee57634e487b7160e01b600052602160045260246000fd5b9052565b6020810161089982846134d0565b600080600080600060a0868803121561351857600080fd5b853567ffffffffffffffff8082111561353057600080fd5b61353c89838a016130ce565b9650602088013591508082111561355257600080fd5b5061355f888289016130ce565b9450506040860135925061357560608701613403565b915061358360808701613186565b90509295509295909350565b600080604083850312156135a257600080fd5b6135ab83613186565b915061320c60208401613186565b600181811c908216806135cd57607f821691505b6020821081036135ed57634e487b7160e01b600052602260045260246000fd5b50919050565b634e487b7160e01b600052601160045260246000fd5b80820180821115610899576108996135f3565b634e487b7160e01b600052603260045260246000fd5b604080825283519082018190526000906020906060840190828701845b828110156136745781516001600160a01b03168452928401929084019060010161364f565b5050508381038285015284518082528583019183019060005b818110156136a95783518352928401929184019160010161368d565b5090979650505050505050565b8082028115828204841417610899576108996135f3565b6000826136ea57634e487b7160e01b600052601260045260246000fd5b500490565b81810381811115610899576108996135f3565b60008251613714818460208701613123565b9190910192915050565b6040815260006137316040830185613147565b90508260208301529392505050565b6040815260006137536040830185613147565b90506001600160a01b03831660208301529392505050565b60006020828403121561377d57600080fd5b5051919050565b6040815260006137976040830185613147565b9050610f6e60208301846134d0565b601f8211156123f7576000816000526020600020601f850160051c810160208610156137cf5750805b601f850160051c820191505b81811015611899578281556001016137db565b815167ffffffffffffffff8111156138085761380861302f565b61381c8161381684546135b9565b846137a6565b602080601f83116001811461385157600084156138395750858301515b600019600386901b1c1916600185901b178555611899565b600085815260208120601f198616915b8281101561388057888601518255948401946001909101908401613861565b508582101561389e5787850151600019600388901b60f8161c191681555b5050505050600190811b0190555056fe416464726573733a206c6f772d6c6576656c2064656c65676174652063616c6c206661696c6564a264697066735822122098dc459672babe17ed028c91ba53f19bef36e224c140a4b56cbc49c442ce061464736f6c63430008180033",
  "linkReferences": {},
  "deployedLinkReferences": {}
}