{
  "_format": "hh-sol-artifact-1",
  "contractName": "ImpressoGovernance",
  "sourceName": "contracts/ImpressoGovernance.sol",
  "abi": [
    {
      "anonymous": false,
      "inputs": [
        {
          "indexed": false,
          "internalType": "address",
          "name": "previousAdmin",
          "type": "address"
        },
        {
          "indexed": false,
          "internalType": "address",
          "name": "newAdmin",
          "type": "address"
        }
      ],
      "name": "AdminChanged",
      "type": "event"
    },
    {
      "anonymous": false,
      "inputs": [
        {
          "indexed": true,
          "internalType": "address",
          "name": "beacon",
          "type": "address"
        }
      ],
      "name": "BeaconUpgraded",
      "type": "event"
    },
    {
      "anonymous": false,
      "inputs": [
        {
          "indexed": false,
          "internalType": "uint256",
          "name": "proposalThreshold",
          "type": "uint256"
        },
        {
          "indexed": false,
          "internalType": "uint256",
          "name": "votingPeriod",
          "type": "uint256"
        },
        {
          "indexed": false,
          "internalType": "uint256",
          "name": "quorumBps",
          "type": "uint256"
        },
        {
          "indexed": false,
          "internalType": "uint256",
          "name": "approvalThresholdBps",
          "type": "uint256"
        }
      ],
      "name": "GovernanceParametersUpdated",
      "type": "event"
    },
    {
      "anonymous": false,
      "inputs": [
        {
          "indexed": false,
          "internalType": "uint8",
          "name": "version",
          "type": "uint8"
        }
      ],
      "name": "Initialized",
      "type": "event"
    },
    {
      "anonymous": false,
      "inputs": [
        {
          "indexed": true,
          "internalType": "address",
          "name": "previousOwner",
          "type": "address"
        },
        {
          "indexed": true,
          "internalType": "address",
          "name": "newOwner",
          "type": "address"
        }
      ],
      "name": "OwnershipTransferred",
      "type": "event"
    },
    {
      "anonymous": false,
      "inputs": [
        {
          "indexed": false,
          "internalType": "address",
          "name": "account",
          "type": "address"
        }
      ],
      "name": "Paused",
      "type": "event"
    },
    {
      "anonymous": false,
      "inputs": [
        {
          "indexed": true,
          "internalType": "uint256",
          "name": "proposalId",
          "type": "uint256"
        },
        {
          "indexed": true,
          "internalType": "address",
          "name": "proposer",
          "type": "address"
        },
        {
          "indexed": false,
          "internalType": "address",
          "name": "targetContract",
          "type": "address"
        },
        {
          "indexed": false,
          "internalType": "string",
          "name": "description",
          "type": "string"
        },
        {
          "indexed": false,
          "internalType": "uint256",
          "name": "startTime",
          "type": "uint256"
        },
        {
          "indexed": false,
          "internalType": "uint256",
          "name": "endTime",
          "type": "uint256"
        }
      ],
      "name": "ProposalCreated",
      "type": "event"
    },
    {
      "anonymous": false,
      "inputs": [
        {
          "indexed": true,
          "internalType": "uint256",
          "name": "proposalId",
          "type": "uint256"
        }
      ],
      "name": "ProposalImplemented",
      "type": "event"
    },
    {
      "anonymous": false,
      "inputs": [
        {
          "indexed": true,
          "internalType": "uint256",
          "name": "proposalId",
          "type": "uint256"
        },
        {
          "indexed": false,
          "internalType": "string",
          "name": "reason",
          "type": "string"
        }
      ],
      "name": "ProposalRejected",
      "type": "event"
    },
    {
      "anonymous": false,
      "inputs": [
        {
          "indexed": true,
          "internalType": "uint256",
          "name": "proposalId",
          "type": "uint256"
        },
        {
          "indexed": false,
          "internalType": "enum ImpressoGovernance.ProposalState",
          "name": "state",
          "type": "uint8"
        }
      ],
      "name": "ProposalStatusChanged",
      "type": "event"
    },
    {
      "anonymous": false,
      "inputs": [
        {
          "indexed": false,
          "internalType": "address",
          "name": "account",
          "type": "address"
        }
      ],
      "name": "Unpaused",
      "type": "event"
    },
    {
      "anonymous": false,
      "inputs": [
        {
          "indexed": true,
          "internalType": "address",
          "name": "implementation",
          "type": "address"
        }
      ],
      "name": "Upgraded",
      "type": "event"
    },
    {
      "anonymous": false,
      "inputs": [
        {
          "indexed": true,
          "internalType": "uint256",
          "name": "proposalId",
          "type": "uint256"
        },
        {
          "indexed": true,
          "internalType": "address",
          "name": "voter",
          "type": "address"
        },
        {
          "indexed": false,
          "internalType": "bool",
          "name": "support",
          "type": "bool"
        },
        {
          "indexed": false,
          "internalType": "uint256",
          "name": "weight",
          "type": "uint256"
        }
      ],
      "name": "VoteCast",
      "type": "event"
    },
    {
      "inputs": [],
      "name": "approvalThresholdBps",
      "outputs": [
        {
          "internalType": "uint256",
          "name": "",
          "type": "uint256"
        }
      ],
      "stateMutability": "view",
      "type": "function"
    },
    {
      "inputs": [
        {
          "internalType": "uint256",
          "name": "_proposalId",
          "type": "uint256"
        },
        {
          "internalType": "bool",
          "name": "_support",
          "type": "bool"
        }
      ],
      "name": "castVote",
      "outputs": [],
      "stateMutability": "nonpayable",
      "type": "function"
    },
    {
      "inputs": [
        {
          "internalType": "address",
          "name": "_targetContract",
          "type": "address"
        },
        {
          "internalType": "string",
          "name": "_description",
          "type": "string"
        },
        {
          "internalType": "bytes",
          "name": "_callData",
          "type": "bytes"
        }
      ],
      "name": "createProposal",
      "outputs": [],
      "stateMutability": "nonpayable",
      "type": "function"
    },
    {
      "inputs": [
        {
          "internalType": "uint256",
          "name": "_proposalId",
          "type": "uint256"
        }
      ],
      "name": "finalizeProposal",
      "outputs": [],
      "stateMutability": "nonpayable",
      "type": "function"
    },
    {
      "inputs": [],
      "name": "getAllProposalIds",
      "outputs": [
        {
          "internalType": "uint256[]",
          "name": "",
          "type": "uint256[]"
        }
      ],
      "stateMutability": "view",
      "type": "function"
    },
    {
      "inputs": [
        {
          "internalType": "uint256",
          "name": "_proposalId",
          "type": "uint256"
        }
      ],
      "name": "getProposalDetails",
      "outputs": [
        {
          "internalType": "uint256",
          "name": "id",
          "type": "uint256"
        },
        {
          "internalType": "address",
          "name": "proposer",
          "type": "address"
        },
        {
          "internalType": "string",
          "name": "description",
          "type": "string"
        },
        {
          "internalType": "address",
          "name": "targetContract",
          "type": "address"
        },
        {
          "internalType": "uint256",
          "name": "startTime",
          "type": "uint256"
        },
        {
          "internalType": "uint256",
          "name": "endTime",
          "type": "uint256"
        },
        {
          "internalType": "uint256",
          "name": "forVotes",
          "type": "uint256"
        },
        {
          "internalType": "uint256",
          "name": "againstVotes",
          "type": "uint256"
        },
        {
          "internalType": "bool",
          "name": "passed",
          "type": "bool"
        },
        {
          "internalType": "bool",
          "name": "implemented",
          "type": "bool"
        },
        {
          "internalType": "string",
          "name": "rejectionReason",
          "type": "string"
        }
      ],
      "stateMutability": "view",
      "type": "function"
    },
    {
      "inputs": [
        {
          "internalType": "uint256",
          "name": "_proposalId",
          "type": "uint256"
        }
      ],
      "name": "getProposalState",
      "outputs": [
        {
          "internalType": "enum ImpressoGovernance.ProposalState",
          "name": "",
          "type": "uint8"
        }
      ],
      "stateMutability": "view",
      "type": "function"
    },
    {
      "inputs": [
        {
          "internalType": "uint256",
          "name": "_proposalId",
          "type": "uint256"
        },
        {
          "internalType": "address",
          "name": "_voter",
          "type": "address"
        }
      ],
      "name": "hasVoted",
      "outputs": [
        {
          "internalType": "bool",
          "name": "",
          "type": "bool"
        }
      ],
      "stateMutability": "view",
      "type": "function"
    },
    {
      "inputs": [
        {
          "internalType": "uint256",
          "name": "_proposalId",
          "type": "uint256"
        }
      ],
      "name": "implementProposal",
      "outputs": [],
      "stateMutability": "nonpayable",
      "type": "function"
    },
    {
      "inputs": [
        {
          "internalType": "address",
          "name": "_tokenAddress",
          "type": "address"
        },
        {
          "internalType": "uint256",
          "name": "_proposalThreshold",
          "type": "uint256"
        },
        {
          "internalType": "uint256",
          "name": "_votingPeriod",
          "type": "uint256"
        },
        {
          "internalType": "uint256",
          "name": "_quorumBps",
          "type": "uint256"
        },
        {
          "internalType": "uint256",
          "name": "_approvalThresholdBps",
          "type": "uint256"
        }
      ],
      "name": "initialize",
      "outputs": [],
      "stateMutability": "nonpayable",
      "type": "function"
    },
    {
      "inputs": [],
      "name": "owner",
      "outputs": [
        {
          "internalType": "address",
          "name": "",
          "type": "address"
        }
      ],
      "stateMutability": "view",
      "type": "function"
    },
    {
      "inputs": [],
      "name": "pause",
      "outputs": [],
      "stateMutability": "nonpayable",
      "type": "function"
    },
    {
      "inputs": [],
      "name": "paused",
      "outputs": [
        {
          "internalType": "bool",
          "name": "",
          "type": "bool"
        }
      ],
      "stateMutability": "view",
      "type": "function"
    },
    {
      "inputs": [
        {
          "internalType": "uint256",
          "name": "",
          "type": "uint256"
        }
      ],
      "name": "proposalIds",
      "outputs": [
        {
          "internalType": "uint256",
          "name": "",
          "type": "uint256"
        }
      ],
      "stateMutability": "view",
      "type": "function"
    },
    {
      "inputs": [],
      "name": "proposalThreshold",
      "outputs": [
        {
          "internalType": "uint256",
          "name": "",
          "type": "uint256"
        }
      ],
      "stateMutability": "view",
      "type": "function"
    },
    {
      "inputs": [
        {
          "internalType": "uint256",
          "name": "",
          "type": "uint256"
        }
      ],
      "name": "proposals",
      "outputs": [
        {
          "internalType": "uint256",
          "name": "id",
          "type": "uint256"
        },
        {
          "internalType": "address",
          "name": "proposer",
          "type": "address"
        },
        {
          "internalType": "string",
          "name": "description",
          "type": "string"
        },
        {
          "internalType": "bytes",
          "name": "callData",
          "type": "bytes"
        },
        {
          "internalType": "address",
          "name": "targetContract",
          "type": "address"
        },
        {
          "internalType": "uint256",
          "name": "startTime",
          "type": "uint256"
        },
        {
          "internalType": "uint256",
          "name": "endTime",
          "type": "uint256"
        },
        {
          "internalType": "uint256",
          "name": "forVotes",
          "type": "uint256"
        },
        {
          "internalType": "uint256",
          "name": "againstVotes",
          "type": "uint256"
        },
        {
          "internalType": "bool",
          "name": "passed",
          "type": "bool"
        },
        {
          "internalType": "bool",
          "name": "implemented",
          "type": "bool"
        },
        {
          "internalType": "string",
          "name": "rejectionReason",
          "type": "string"
        }
      ],
      "stateMutability": "view",
      "type": "function"
    },
    {
      "inputs": [],
      "name": "proxiableUUID",
      "outputs": [
        {
          "internalType": "bytes32",
          "name": "",
          "type": "bytes32"
        }
      ],
      "stateMutability": "view",
      "type": "function"
    },
    {
      "inputs": [],
      "name": "quorumBps",
      "outputs": [
        {
          "internalType": "uint256",
          "name": "",
          "type": "uint256"
        }
      ],
      "stateMutability": "view",
      "type": "function"
    },
    {
      "inputs": [
        {
          "internalType": "uint256",
          "name": "_proposalId",
          "type": "uint256"
        },
        {
          "internalType": "string",
          "name": "_reason",
          "type": "string"
        }
      ],
      "name": "rejectProposal",
      "outputs": [],
      "stateMutability": "nonpayable",
      "type": "function"
    },
    {
      "inputs": [],
      "name": "renounceOwnership",
      "outputs": [],
      "stateMutability": "nonpayable",
      "type": "function"
    },
    {
      "inputs": [],
      "name": "tokenAddress",
      "outputs": [
        {
          "internalType": "address",
          "name": "",
          "type": "address"
        }
      ],
      "stateMutability": "view",
      "type": "function"
    },
    {
      "inputs": [
        {
          "internalType": "address",
          "name": "newOwner",
          "type": "address"
        }
      ],
      "name": "transferOwnership",
      "outputs": [],
      "stateMutability": "nonpayable",
      "type": "function"
    },
    {
      "inputs": [],
      "name": "unpause",
      "outputs": [],
      "stateMutability": "nonpayable",
      "type": "function"
    },
    {
      "inputs": [
        {
          "internalType": "uint256",
          "name": "_proposalThreshold",
          "type": "uint256"
        },
        {
          "internalType": "uint256",
          "name": "_votingPeriod",
          "type": "uint256"
        },
        {
          "internalType": "uint256",
          "name": "_quorumBps",
          "type": "uint256"
        },
        {
          "internalType": "uint256",
          "name": "_approvalThresholdBps",
          "type": "uint256"
        }
      ],
      "name": "updateGovernanceParameters",
      "outputs": [],
      "stateMutability": "nonpayable",
      "type": "function"
    },
    {
      "inputs": [
        {
          "internalType": "address",
          "name": "newImplementation",
          "type": "address"
        }
      ],
      "name": "upgradeTo",
      "outputs": [],
      "stateMutability": "nonpayable",
      "type": "function"
    },
    {
      "inputs": [
        {
          "internalType": "address",
          "name": "newImplementation",
          "type": "address"
        },
        {
          "internalType": "bytes",
          "name": "data",
          "type": "bytes"
        }
      ],
      "name": "upgradeToAndCall",
      "outputs": [],
      "stateMutability": "payable",
      "type": "function"
    },
    {
      "inputs": [],
      "name": "votingPeriod",
      "outputs": [
        {
          "internalType": "uint256",
          "name": "",
          "type": "uint256"
        }
      ],
      "stateMutability": "view",
      "type": "function"
    }
  ],
  "bytecode": "0x60a06040523060805234801561001457600080fd5b5060805161319261004c60003960008181610b1201528181610b9701528181610f2301528181610fa8015261108e01526131926000f3fe6080604052600436106101ac5760003560e01c80638456cb59116100ec578063b58131b01161008a578063cd2ddd0c11610064578063cd2ddd0c146104ad578063efa90d36146104c4578063f2fde38b146104e6578063f92ad2191461050657600080fd5b8063b58131b01461045f578063cb7c172b14610476578063cca6ba2a1461048d57600080fd5b8063952a5be7116100c6578063952a5be7146103de578063973a55da146103fe5780639b644a231461041e5780639d76ea581461043e57600080fd5b80638456cb591461036a5780638da5cb5b1461037f5780639080936f146103b157600080fd5b80633f4ba83a1161015957806352d1902d1161013357806352d1902d146103085780635652077c1461031d5780635c975abb1461033d578063715018a61461035557600080fd5b80633f4ba83a146102b057806343859632146102c55780634f1ef286146102f557600080fd5b806332427be41161018a57806332427be4146102395780633659cfe6146102595780633b4d01a71461027957600080fd5b8063013cf08b146101b157806302a251a3146101f257806315373e3d14610217575b600080fd5b3480156101bd57600080fd5b506101d16101cc3660046129da565b610526565b6040516101e99c9b9a99989796959493929190612a43565b60405180910390f35b3480156101fe57600080fd5b5061020961012f5481565b6040519081526020016101e9565b34801561022357600080fd5b50610237610232366004612ae3565b610739565b005b34801561024557600080fd5b50610237610254366004612b18565b6109e8565b34801561026557600080fd5b50610237610274366004612b66565b610b08565b34801561028557600080fd5b506102996102943660046129da565b610c83565b6040516101e99b9a99989796959493929190612b81565b3480156102bc57600080fd5b50610237610e84565b3480156102d157600080fd5b506102e56102e0366004612c05565b610e96565b60405190151581526020016101e9565b610237610303366004612cd4565b610f19565b34801561031457600080fd5b50610209611081565b34801561032957600080fd5b506102376103383660046129da565b611146565b34801561034957600080fd5b5060975460ff166102e5565b34801561036157600080fd5b506102376113dd565b34801561037657600080fd5b506102376113ef565b34801561038b57600080fd5b506033546001600160a01b03165b6040516001600160a01b0390911681526020016101e9565b3480156103bd57600080fd5b506103d16103cc3660046129da565b6113ff565b6040516101e99190612d38565b3480156103ea57600080fd5b506102376103f9366004612d60565b6115f0565b34801561040a57600080fd5b506102376104193660046129da565b6117a3565b34801561042a57600080fd5b506102096104393660046129da565b6119b1565b34801561044a57600080fd5b5061012d54610399906001600160a01b031681565b34801561046b57600080fd5b5061020961012e5481565b34801561048257600080fd5b506102096101315481565b34801561049957600080fd5b506102376104a8366004612d91565b6119d3565b3480156104b957600080fd5b506102096101305481565b3480156104d057600080fd5b506104d9611cfd565b6040516101e99190612e05565b3480156104f257600080fd5b50610237610501366004612b66565b611d56565b34801561051257600080fd5b50610237610521366004612e49565b611dcc565b6101336020526000908152604090208054600182015460028301805492936001600160a01b039092169261055990612e8b565b80601f016020809104026020016040519081016040528092919081815260200182805461058590612e8b565b80156105d25780601f106105a7576101008083540402835291602001916105d2565b820191906000526020600020905b8154815290600101906020018083116105b557829003601f168201915b5050505050908060030180546105e790612e8b565b80601f016020809104026020016040519081016040528092919081815260200182805461061390612e8b565b80156106605780601f1061063557610100808354040283529160200191610660565b820191906000526020600020905b81548152906001019060200180831161064357829003601f168201915b50505050600483015460058401546006850154600786015460088701546009880154600a8901805498996001600160a01b039097169895975093959294919360ff8083169461010090930416926106b690612e8b565b80601f01602080910402602001604051908101604052809291908181526020018280546106e290612e8b565b801561072f5780601f106107045761010080835404028352916020019161072f565b820191906000526020600020905b81548152906001019060200180831161071257829003601f168201915b505050505090508c565b61074161204b565b6107496120a4565b610752826120f7565b61079d5760405162461bcd60e51b8152602060048201526017602482015276141c9bdc1bdcd85b08191bd95cc81b9bdd08195e1a5cdd604a1b60448201526064015b60405180910390fd5b60016107a8836113ff565b60058111156107b9576107b9612d22565b146108065760405162461bcd60e51b815260206004820152601360248201527f50726f706f73616c206e6f7420616374697665000000000000000000000000006044820152606401610794565b600082815261013360209081526040808320338452600b81019092529091205460ff16156108765760405162461bcd60e51b815260206004820152600d60248201527f416c726561647920766f746564000000000000000000000000000000000000006044820152606401610794565b61012d546040516370a0823160e01b81523360048201526000916001600160a01b0316906370a0823190602401602060405180830381865afa1580156108c0573d6000803e3d6000fd5b505050506040513d601f19601f820116820180604052508101906108e49190612ebf565b9050600081116109365760405162461bcd60e51b815260206004820152600f60248201527f4e6f20766f74696e6720706f77657200000000000000000000000000000000006044820152606401610794565b821561095b57808260070160008282546109509190612eee565b909155506109759050565b8082600801600082825461096f9190612eee565b90915550505b336000818152600b8401602052604090819020805460ff191660011790555185907fcbdf6214089cba887ecbf35a0b6a734589959c9763342c756bb2a80ca2bc9f6e906109d090879086909115158252602082015260400190565b60405180910390a350506109e46001606555565b5050565b6109f0612113565b612710821115610a425760405162461bcd60e51b815260206004820152601960248201527f51756f72756d2063616e6e6f74206578636565642031303025000000000000006044820152606401610794565b612710811115610aa25760405162461bcd60e51b815260206004820152602560248201527f417070726f76616c207468726573686f6c642063616e6e6f7420657863656564604482015264203130302560d81b6064820152608401610794565b61012e84905561012f8390556101308290556101318190556040805185815260208101859052908101839052606081018290527f6bbac32a5a2a92e26346ac330e58305d8235e3c375610b70b81be0ac57c8d2019060800160405180910390a150505050565b6001600160a01b037f0000000000000000000000000000000000000000000000000000000000000000163003610b955760405162461bcd60e51b815260206004820152602c60248201527f46756e6374696f6e206d7573742062652063616c6c6564207468726f7567682060448201526b19195b1959d85d1958d85b1b60a21b6064820152608401610794565b7f00000000000000000000000000000000000000000000000000000000000000006001600160a01b0316610bf07f360894a13ba1a3210667c828492db98dca3e2076cc3735a920a3ca505d382bbc546001600160a01b031690565b6001600160a01b031614610c5b5760405162461bcd60e51b815260206004820152602c60248201527f46756e6374696f6e206d7573742062652063616c6c6564207468726f7567682060448201526b6163746976652070726f787960a01b6064820152608401610794565b610c648161216d565b60408051600080825260208201909252610c8091839190612175565b50565b600080606060008060008060008060006060610c9e8c6120f7565b610ce45760405162461bcd60e51b8152602060048201526017602482015276141c9bdc1bdcd85b08191bd95cc81b9bdd08195e1a5cdd604a1b6044820152606401610794565b60008c815261013360205260409020805460018201546004830154600584015460068501546007860154600887015460098801546002890180546001600160a01b03988916989197909116959493929160ff808216926101009092041690600a8c01908990610d5290612e8b565b80601f0160208091040260200160405190810160405280929190818152602001828054610d7e90612e8b565b8015610dcb5780601f10610da057610100808354040283529160200191610dcb565b820191906000526020600020905b815481529060010190602001808311610dae57829003601f168201915b50505050509850808054610dde90612e8b565b80601f0160208091040260200160405190810160405280929190818152602001828054610e0a90612e8b565b8015610e575780601f10610e2c57610100808354040283529160200191610e57565b820191906000526020600020905b815481529060010190602001808311610e3a57829003601f168201915b505050505090509b509b509b509b509b509b509b509b509b509b509b505091939597999b90929496989a50565b610e8c612113565b610e94612315565b565b6000610ea1836120f7565b610ee75760405162461bcd60e51b8152602060048201526017602482015276141c9bdc1bdcd85b08191bd95cc81b9bdd08195e1a5cdd604a1b6044820152606401610794565b506000828152610133602090815260408083206001600160a01b0385168452600b0190915290205460ff165b92915050565b6001600160a01b037f0000000000000000000000000000000000000000000000000000000000000000163003610fa65760405162461bcd60e51b815260206004820152602c60248201527f46756e6374696f6e206d7573742062652063616c6c6564207468726f7567682060448201526b19195b1959d85d1958d85b1b60a21b6064820152608401610794565b7f00000000000000000000000000000000000000000000000000000000000000006001600160a01b03166110017f360894a13ba1a3210667c828492db98dca3e2076cc3735a920a3ca505d382bbc546001600160a01b031690565b6001600160a01b03161461106c5760405162461bcd60e51b815260206004820152602c60248201527f46756e6374696f6e206d7573742062652063616c6c6564207468726f7567682060448201526b6163746976652070726f787960a01b6064820152608401610794565b6110758261216d565b6109e482826001612175565b6000306001600160a01b037f000000000000000000000000000000000000000000000000000000000000000016146111215760405162461bcd60e51b815260206004820152603860248201527f555550535570677261646561626c653a206d757374206e6f742062652063616c60448201527f6c6564207468726f7567682064656c656761746563616c6c00000000000000006064820152608401610794565b507f360894a13ba1a3210667c828492db98dca3e2076cc3735a920a3ca505d382bbc90565b61114e61204b565b6111566120a4565b61115f816120f7565b6111a55760405162461bcd60e51b8152602060048201526017602482015276141c9bdc1bdcd85b08191bd95cc81b9bdd08195e1a5cdd604a1b6044820152606401610794565b60006111b0826113ff565b905060018160058111156111c6576111c6612d22565b146112135760405162461bcd60e51b815260206004820152601360248201527f50726f706f73616c206e6f7420616374697665000000000000000000000000006044820152606401610794565b600082815261013360205260409020600681015442116112755760405162461bcd60e51b815260206004820152601760248201527f566f74696e6720706572696f64206e6f7420656e6465640000000000000000006044820152606401610794565b60008160080154826007015461128b9190612eee565b9050600061012d60009054906101000a90046001600160a01b03166001600160a01b03166318160ddd6040518163ffffffff1660e01b8152600401602060405180830381865afa1580156112e3573d6000803e3d6000fd5b505050506040513d601f19601f820116820180604052508101906113079190612ebf565b9050600061013054828461271061131e9190612f01565b6113289190612f18565b1015905060008085600701541180156113605750610131548486600701546127106113539190612f01565b61135d9190612f18565b10155b905081801561136c5750805b60098601805460ff1916911515918217905560009060ff1661138f576002611392565b60035b9050877f3346abf262ac5179e9052765fb72484e0baab1f356f08442bb7a3054147631de826040516113c49190612d38565b60405180910390a250505050505050610c806001606555565b6113e5612113565b610e946000612367565b6113f7612113565b610e946123b9565b600061140a826120f7565b6114505760405162461bcd60e51b8152602060048201526017602482015276141c9bdc1bdcd85b08191bd95cc81b9bdd08195e1a5cdd604a1b6044820152606401610794565b6000828152610133602052604090206009810154610100900460ff161561147a5750600492915050565b600081600a01805461148b90612e8b565b9050111561149c5750600592915050565b600981015460ff16156114b25750600392915050565b806006015442116114da57806005015442106114d15750600192915050565b50600092915050565b6000816008015482600701546114f09190612eee565b9050600061012d60009054906101000a90046001600160a01b03166001600160a01b03166318160ddd6040518163ffffffff1660e01b8152600401602060405180830381865afa158015611548573d6000803e3d6000fd5b505050506040513d601f19601f8201168201806040525081019061156c9190612ebf565b905060006101305482846127106115839190612f01565b61158d9190612f18565b1015905060008085600701541180156115c55750610131548486600701546127106115b89190612f01565b6115c29190612f18565b10155b90508180156115d15750805b6115dc5760026115df565b60035b979650505050505050565b50919050565b6115f8612113565b61160061204b565b611609826120f7565b61164f5760405162461bcd60e51b8152602060048201526017602482015276141c9bdc1bdcd85b08191bd95cc81b9bdd08195e1a5cdd604a1b6044820152606401610794565b600361165a836113ff565b600581111561166b5761166b612d22565b146116b85760405162461bcd60e51b815260206004820152601760248201527f50726f706f73616c206e6f74207375636365737366756c0000000000000000006044820152606401610794565b60008151116117095760405162461bcd60e51b815260206004820152601660248201527f526561736f6e2063616e6e6f7420626520656d707479000000000000000000006044820152606401610794565b600082815261013360205260409020600a81016117268382612f82565b50827fe5f9059dc551d2dcf73c3bc69f282e134799b450f062c909d9f7ff45951327bd836040516117579190613042565b60405180910390a2827f3346abf262ac5179e9052765fb72484e0baab1f356f08442bb7a3054147631de60056040516117909190612d38565b60405180910390a2506109e46001606555565b6117ab612113565b6117b361204b565b6117bc816120f7565b6118025760405162461bcd60e51b8152602060048201526017602482015276141c9bdc1bdcd85b08191bd95cc81b9bdd08195e1a5cdd604a1b6044820152606401610794565b600361180d826113ff565b600581111561181e5761181e612d22565b1461186b5760405162461bcd60e51b815260206004820152601760248201527f50726f706f73616c206e6f74207375636365737366756c0000000000000000006044820152606401610794565b60008181526101336020526040808220600481015491519092916001600160a01b03169061189d906003850190613055565b6000604051808303816000865af19150503d80600081146118da576040519150601f19603f3d011682016040523d82523d6000602084013e6118df565b606091505b50509050806119305760405162461bcd60e51b815260206004820152601960248201527f50726f706f73616c20657865637574696f6e206661696c6564000000000000006044820152606401610794565b60098201805461ff00191661010017905560405183907f064ce4f5c9791e8b069b54949ce1703d60c6f0454c34f6325e82adaaa19a8c8690600090a2827f3346abf262ac5179e9052765fb72484e0baab1f356f08442bb7a3054147631de600460405161199d9190612d38565b60405180910390a25050610c806001606555565b61013481815481106119c257600080fd5b600091825260209091200154905081565b6119db61204b565b6119e36120a4565b6001600160a01b038316611a485760405162461bcd60e51b815260206004820152602660248201527f54617267657420636f6e74726163742063616e6e6f74206265207a65726f206160448201526564647265737360d01b6064820152608401610794565b6000825111611a995760405162461bcd60e51b815260206004820152601b60248201527f4465736372697074696f6e2063616e6e6f7420626520656d70747900000000006044820152606401610794565b6000815111611aea5760405162461bcd60e51b815260206004820152601960248201527f43616c6c20646174612063616e6e6f7420626520656d707479000000000000006044820152606401610794565b61012d546040516370a0823160e01b81523360048201526000916001600160a01b0316906370a0823190602401602060405180830381865afa158015611b34573d6000803e3d6000fd5b505050506040513d601f19601f82011682018060405250810190611b589190612ebf565b905061012e54811015611bd35760405162461bcd60e51b815260206004820152602660248201527f496e73756666696369656e7420746f6b656e7320746f2063726561746520707260448201527f6f706f73616c00000000000000000000000000000000000000000000000000006064820152608401610794565b610132805460009182611be5836130cb565b9091555061012f549091504290600090611bff9083612eee565b6000848152610133602052604090208481556001810180546001600160a01b0319163317905590915060028101611c368882612f82565b5060038101611c458782612f82565b506004810180546001600160a01b0319166001600160a01b038a16179055600581018390556006810182905561013480546001810182556000919091527fe1c588fe1269da19c317f679b04e226f5e48296f9b2c8351127eb010907c472f01849055604051339085907f8a5ed66a83326884c08a1335fab35b7837b82dc7d3434dfc7e4236ed7a6920ce90611ce1908c908c90899089906130e4565b60405180910390a35050505050611cf86001606555565b505050565b6060610134805480602002602001604051908101604052809291908181526020018280548015611d4c57602002820191906000526020600020905b815481526020019060010190808311611d38575b5050505050905090565b611d5e612113565b6001600160a01b038116611dc35760405162461bcd60e51b815260206004820152602660248201527f4f776e61626c653a206e6577206f776e657220697320746865207a65726f206160448201526564647265737360d01b6064820152608401610794565b610c8081612367565b600054610100900460ff1615808015611dec5750600054600160ff909116105b80611e065750303b158015611e06575060005460ff166001145b611e785760405162461bcd60e51b815260206004820152602e60248201527f496e697469616c697a61626c653a20636f6e747261637420697320616c72656160448201527f647920696e697469616c697a65640000000000000000000000000000000000006064820152608401610794565b6000805460ff191660011790558015611e9b576000805461ff0019166101001790555b6001600160a01b038616611ef15760405162461bcd60e51b815260206004820152601c60248201527f546f6b656e20616464726573732063616e6e6f74206265207a65726f000000006044820152606401610794565b612710831115611f435760405162461bcd60e51b815260206004820152601960248201527f51756f72756d2063616e6e6f74206578636565642031303025000000000000006044820152606401610794565b612710821115611fa35760405162461bcd60e51b815260206004820152602560248201527f417070726f76616c207468726573686f6c642063616e6e6f7420657863656564604482015264203130302560d81b6064820152608401610794565b611fab6123f6565b611fb3612469565b611fbb6124dc565b611fc361254f565b61012d80546001600160a01b0319166001600160a01b03881617905561012e85905561012f8490556101308390556101318290556001610132558015612043576000805461ff0019169055604051600181527f7f26b83ff96e1f2b6a682f133852f6798a09c465da95921460cefb38474024989060200160405180910390a15b505050505050565b60026065540361209d5760405162461bcd60e51b815260206004820152601f60248201527f5265656e7472616e637947756172643a207265656e7472616e742063616c6c006044820152606401610794565b6002606555565b60975460ff1615610e945760405162461bcd60e51b815260206004820152601060248201527f5061757361626c653a20706175736564000000000000000000000000000000006044820152606401610794565b60008082118015610f13575050610132541190565b6001606555565b6033546001600160a01b03163314610e945760405162461bcd60e51b815260206004820181905260248201527f4f776e61626c653a2063616c6c6572206973206e6f7420746865206f776e65726044820152606401610794565b610c80612113565b7f4910fdfa16fed3260ed0e7147f7cc6da11a60208b5b9406d12a635614ffd91435460ff16156121a857611cf8836125ba565b826001600160a01b03166352d1902d6040518163ffffffff1660e01b8152600401602060405180830381865afa925050508015612202575060408051601f3d908101601f191682019092526121ff91810190612ebf565b60015b6122745760405162461bcd60e51b815260206004820152602e60248201527f45524331393637557067726164653a206e657720696d706c656d656e7461746960448201527f6f6e206973206e6f7420555550530000000000000000000000000000000000006064820152608401610794565b7f360894a13ba1a3210667c828492db98dca3e2076cc3735a920a3ca505d382bbc81146123095760405162461bcd60e51b815260206004820152602960248201527f45524331393637557067726164653a20756e737570706f727465642070726f7860448201527f6961626c655555494400000000000000000000000000000000000000000000006064820152608401610794565b50611cf8838383612678565b61231d6126a3565b6097805460ff191690557f5db9ee0a495bf2e6ff9c91a7834c1ba4fdd244a5e8aa4e537bd38aeae4b073aa335b6040516001600160a01b03909116815260200160405180910390a1565b603380546001600160a01b038381166001600160a01b0319831681179093556040519116919082907f8be0079c531659141344cd1fd0a4f28419497f9722a3daafe3b4186f6b6457e090600090a35050565b6123c16120a4565b6097805460ff191660011790557f62e78cea01bee320cd4e420270b5ea74000d11b0c9f74754ebdbfc544b05a25861234a3390565b600054610100900460ff166124615760405162461bcd60e51b815260206004820152602b60248201527f496e697469616c697a61626c653a20636f6e7472616374206973206e6f74206960448201526a6e697469616c697a696e6760a81b6064820152608401610794565b610e946126f5565b600054610100900460ff166124d45760405162461bcd60e51b815260206004820152602b60248201527f496e697469616c697a61626c653a20636f6e7472616374206973206e6f74206960448201526a6e697469616c697a696e6760a81b6064820152608401610794565b610e94612769565b600054610100900460ff166125475760405162461bcd60e51b815260206004820152602b60248201527f496e697469616c697a61626c653a20636f6e7472616374206973206e6f74206960448201526a6e697469616c697a696e6760a81b6064820152608401610794565b610e946127d4565b600054610100900460ff16610e945760405162461bcd60e51b815260206004820152602b60248201527f496e697469616c697a61626c653a20636f6e7472616374206973206e6f74206960448201526a6e697469616c697a696e6760a81b6064820152608401610794565b6001600160a01b0381163b6126375760405162461bcd60e51b815260206004820152602d60248201527f455243313936373a206e657720696d706c656d656e746174696f6e206973206e60448201527f6f74206120636f6e7472616374000000000000000000000000000000000000006064820152608401610794565b7f360894a13ba1a3210667c828492db98dca3e2076cc3735a920a3ca505d382bbc80546001600160a01b0319166001600160a01b0392909216919091179055565b6126818361284b565b60008251118061268e5750805b15611cf85761269d838361288b565b50505050565b60975460ff16610e945760405162461bcd60e51b815260206004820152601460248201527f5061757361626c653a206e6f74207061757365640000000000000000000000006044820152606401610794565b600054610100900460ff166127605760405162461bcd60e51b815260206004820152602b60248201527f496e697469616c697a61626c653a20636f6e7472616374206973206e6f74206960448201526a6e697469616c697a696e6760a81b6064820152608401610794565b610e9433612367565b600054610100900460ff1661210c5760405162461bcd60e51b815260206004820152602b60248201527f496e697469616c697a61626c653a20636f6e7472616374206973206e6f74206960448201526a6e697469616c697a696e6760a81b6064820152608401610794565b600054610100900460ff1661283f5760405162461bcd60e51b815260206004820152602b60248201527f496e697469616c697a61626c653a20636f6e7472616374206973206e6f74206960448201526a6e697469616c697a696e6760a81b6064820152608401610794565b6097805460ff19169055565b612854816125ba565b6040516001600160a01b038216907fbc7cd75a20ee27fd9adebab32041f755214dbc6bffa90cc0225b39da2e5c2d3b90600090a250565b60606128b08383604051806060016040528060278152602001613136602791396128b7565b9392505050565b6060600080856001600160a01b0316856040516128d49190613119565b600060405180830381855af49150503d806000811461290f576040519150601f19603f3d011682016040523d82523d6000602084013e612914565b606091505b50915091506129258683838761292f565b9695505050505050565b6060831561299e578251600003612997576001600160a01b0385163b6129975760405162461bcd60e51b815260206004820152601d60248201527f416464726573733a2063616c6c20746f206e6f6e2d636f6e74726163740000006044820152606401610794565b50816129a8565b6129a883836129b0565b949350505050565b8151156129c05781518083602001fd5b8060405162461bcd60e51b81526004016107949190613042565b6000602082840312156129ec57600080fd5b5035919050565b60005b83811015612a0e5781810151838201526020016129f6565b50506000910152565b60008151808452612a2f8160208601602086016129f3565b601f01601f19169290920160200192915050565b60006101808e83526001600160a01b03808f166020850152816040850152612a6d8285018f612a17565b91508382036060850152612a81828e612a17565b9150808c166080850152508960a08401528860c08401528760e084015286610100840152851515610120840152612abd61014084018615159052565b828103610160840152612ad08185612a17565b9f9e505050505050505050505050505050565b60008060408385031215612af657600080fd5b8235915060208301358015158114612b0d57600080fd5b809150509250929050565b60008060008060808587031215612b2e57600080fd5b5050823594602084013594506040840135936060013592509050565b80356001600160a01b0381168114612b6157600080fd5b919050565b600060208284031215612b7857600080fd5b6128b082612b4a565b60006101608d83526001600160a01b03808e166020850152816040850152612bab8285018e612a17565b9150808c166060850152508960808401528860a08401528760c08401528660e0840152851515610100840152841515610120840152828103610140840152612bf38185612a17565b9e9d5050505050505050505050505050565b60008060408385031215612c1857600080fd5b82359150612c2860208401612b4a565b90509250929050565b634e487b7160e01b600052604160045260246000fd5b600082601f830112612c5857600080fd5b813567ffffffffffffffff80821115612c7357612c73612c31565b604051601f8301601f19908116603f01168101908282118183101715612c9b57612c9b612c31565b81604052838152866020858801011115612cb457600080fd5b836020870160208301376000602085830101528094505050505092915050565b60008060408385031215612ce757600080fd5b612cf083612b4a565b9150602083013567ffffffffffffffff811115612d0c57600080fd5b612d1885828601612c47565b9150509250929050565b634e487b7160e01b600052602160045260246000fd5b6020810160068310612d5a57634e487b7160e01b600052602160045260246000fd5b91905290565b60008060408385031215612d7357600080fd5b82359150602083013567ffffffffffffffff811115612d0c57600080fd5b600080600060608486031215612da657600080fd5b612daf84612b4a565b9250602084013567ffffffffffffffff80821115612dcc57600080fd5b612dd887838801612c47565b93506040860135915080821115612dee57600080fd5b50612dfb86828701612c47565b9150509250925092565b6020808252825182820181905260009190848201906040850190845b81811015612e3d57835183529284019291840191600101612e21565b50909695505050505050565b600080600080600060a08688031215612e6157600080fd5b612e6a86612b4a565b97602087013597506040870135966060810135965060800135945092505050565b600181811c90821680612e9f57607f821691505b6020821081036115ea57634e487b7160e01b600052602260045260246000fd5b600060208284031215612ed157600080fd5b5051919050565b634e487b7160e01b600052601160045260246000fd5b80820180821115610f1357610f13612ed8565b8082028115828204841417610f1357610f13612ed8565b600082612f3557634e487b7160e01b600052601260045260246000fd5b500490565b601f821115611cf8576000816000526020600020601f850160051c81016020861015612f635750805b601f850160051c820191505b8181101561204357828155600101612f6f565b815167ffffffffffffffff811115612f9c57612f9c612c31565b612fb081612faa8454612e8b565b84612f3a565b602080601f831160018114612fe55760008415612fcd5750858301515b600019600386901b1c1916600185901b178555612043565b600085815260208120601f198616915b8281101561301457888601518255948401946001909101908401612ff5565b50858210156130325787850151600019600388901b60f8161c191681555b5050505050600190811b01905550565b6020815260006128b06020830184612a17565b600080835461306381612e8b565b6001828116801561307b5760018114613090576130bf565b60ff19841687528215158302870194506130bf565b8760005260208060002060005b858110156130b65781548a82015290840190820161309d565b50505082870194505b50929695505050505050565b6000600182016130dd576130dd612ed8565b5060010190565b6001600160a01b03851681526080602082015260006131066080830186612a17565b6040830194909452506060015292915050565b6000825161312b8184602087016129f3565b919091019291505056fe416464726573733a206c6f772d6c6576656c2064656c65676174652063616c6c206661696c6564a2646970667358221220a3789949620b5e5e09962b5542f00b4579c9db2962bfb76eb507c49dec10f8a964736f6c63430008180033",
  "linkReferences": {},
  "deployedLinkReferences": {}
}