{
  "_format": "hh-sol-artifact-1",
  "contractName": "ImpressoAC",
  "sourceName": "contracts/ImpressoAC.sol",
  "abi": [
    {
      "inputs": [],
      "stateMutability": "nonpayable",
      "type": "constructor"
    },
    {
      "anonymous": false,
      "inputs": [
        {
          "indexed": false,
          "internalType": "address",
          "name": "previousAdmin",
          "type": "address"
        },
        {
          "indexed": false,
          "internalType": "address",
          "name": "newAdmin",
          "type": "address"
        }
      ],
      "name": "AdminChanged",
      "type": "event"
    },
    {
      "anonymous": false,
      "inputs": [
        {
          "indexed": true,
          "internalType": "address",
          "name": "owner",
          "type": "address"
        },
        {
          "indexed": true,
          "internalType": "address",
          "name": "spender",
          "type": "address"
        },
        {
          "indexed": false,
          "internalType": "uint256",
          "name": "value",
          "type": "uint256"
        }
      ],
      "name": "Approval",
      "type": "event"
    },
    {
      "anonymous": false,
      "inputs": [
        {
          "indexed": true,
          "internalType": "address",
          "name": "beacon",
          "type": "address"
        }
      ],
      "name": "BeaconUpgraded",
      "type": "event"
    },
    {
      "anonymous": false,
      "inputs": [
        {
          "indexed": false,
          "internalType": "uint8",
          "name": "version",
          "type": "uint8"
        }
      ],
      "name": "Initialized",
      "type": "event"
    },
    {
      "anonymous": false,
      "inputs": [
        {
          "indexed": false,
          "internalType": "address",
          "name": "account",
          "type": "address"
        }
      ],
      "name": "Paused",
      "type": "event"
    },
    {
      "anonymous": false,
      "inputs": [
        {
          "indexed": true,
          "internalType": "bytes32",
          "name": "role",
          "type": "bytes32"
        },
        {
          "indexed": true,
          "internalType": "bytes32",
          "name": "previousAdminRole",
          "type": "bytes32"
        },
        {
          "indexed": true,
          "internalType": "bytes32",
          "name": "newAdminRole",
          "type": "bytes32"
        }
      ],
      "name": "RoleAdminChanged",
      "type": "event"
    },
    {
      "anonymous": false,
      "inputs": [
        {
          "indexed": true,
          "internalType": "bytes32",
          "name": "role",
          "type": "bytes32"
        },
        {
          "indexed": true,
          "internalType": "address",
          "name": "account",
          "type": "address"
        },
        {
          "indexed": true,
          "internalType": "address",
          "name": "sender",
          "type": "address"
        }
      ],
      "name": "RoleGranted",
      "type": "event"
    },
    {
      "anonymous": false,
      "inputs": [
        {
          "indexed": true,
          "internalType": "bytes32",
          "name": "role",
          "type": "bytes32"
        },
        {
          "indexed": true,
          "internalType": "address",
          "name": "account",
          "type": "address"
        },
        {
          "indexed": true,
          "internalType": "address",
          "name": "sender",
          "type": "address"
        }
      ],
      "name": "RoleRevoked",
      "type": "event"
    },
    {
      "anonymous": false,
      "inputs": [
        {
          "indexed": true,
          "internalType": "address",
          "name": "from",
          "type": "address"
        },
        {
          "indexed": true,
          "internalType": "address",
          "name": "to",
          "type": "address"
        },
        {
          "indexed": false,
          "internalType": "uint256",
          "name": "value",
          "type": "uint256"
        }
      ],
      "name": "Transfer",
      "type": "event"
    },
    {
      "anonymous": false,
      "inputs": [
        {
          "indexed": false,
          "internalType": "address",
          "name": "account",
          "type": "address"
        }
      ],
      "name": "Unpaused",
      "type": "event"
    },
    {
      "anonymous": false,
      "inputs": [
        {
          "indexed": true,
          "internalType": "address",
          "name": "implementation",
          "type": "address"
        }
      ],
      "name": "Upgraded",
      "type": "event"
    },
    {
      "inputs": [],
      "name": "BURNER_ROLE",
      "outputs": [
        {
          "internalType": "bytes32",
          "name": "",
          "type": "bytes32"
        }
      ],
      "stateMutability": "view",
      "type": "function"
    },
    {
      "inputs": [],
      "name": "DEFAULT_ADMIN_ROLE",
      "outputs": [
        {
          "internalType": "bytes32",
          "name": "",
          "type": "bytes32"
        }
      ],
      "stateMutability": "view",
      "type": "function"
    },
    {
      "inputs": [],
      "name": "MINTER_ROLE",
      "outputs": [
        {
          "internalType": "bytes32",
          "name": "",
          "type": "bytes32"
        }
      ],
      "stateMutability": "view",
      "type": "function"
    },
    {
      "inputs": [],
      "name": "PAUSER_ROLE",
      "outputs": [
        {
          "internalType": "bytes32",
          "name": "",
          "type": "bytes32"
        }
      ],
      "stateMutability": "view",
      "type": "function"
    },
    {
      "inputs": [],
      "name": "UPGRADER_ROLE",
      "outputs": [
        {
          "internalType": "bytes32",
          "name": "",
          "type": "bytes32"
        }
      ],
      "stateMutability": "view",
      "type": "function"
    },
    {
      "inputs": [
        {
          "internalType": "uint256",
          "name": "",
          "type": "uint256"
        }
      ],
      "name": "_commissionAddresses",
      "outputs": [
        {
          "internalType": "address",
          "name": "",
          "type": "address"
        }
      ],
      "stateMutability": "view",
      "type": "function"
    },
    {
      "inputs": [],
      "name": "_maxTotalSupply",
      "outputs": [
        {
          "internalType": "uint256",
          "name": "",
          "type": "uint256"
        }
      ],
      "stateMutability": "view",
      "type": "function"
    },
    {
      "inputs": [
        {
          "internalType": "address",
          "name": "owner",
          "type": "address"
        },
        {
          "internalType": "address",
          "name": "spender",
          "type": "address"
        }
      ],
      "name": "allowance",
      "outputs": [
        {
          "internalType": "uint256",
          "name": "",
          "type": "uint256"
        }
      ],
      "stateMutability": "view",
      "type": "function"
    },
    {
      "inputs": [
        {
          "internalType": "address",
          "name": "spender",
          "type": "address"
        },
        {
          "internalType": "uint256",
          "name": "amount",
          "type": "uint256"
        }
      ],
      "name": "approve",
      "outputs": [
        {
          "internalType": "bool",
          "name": "",
          "type": "bool"
        }
      ],
      "stateMutability": "nonpayable",
      "type": "function"
    },
    {
      "inputs": [
        {
          "internalType": "address",
          "name": "account",
          "type": "address"
        }
      ],
      "name": "balanceOf",
      "outputs": [
        {
          "internalType": "uint256",
          "name": "",
          "type": "uint256"
        }
      ],
      "stateMutability": "view",
      "type": "function"
    },
    {
      "inputs": [
        {
          "internalType": "uint256",
          "name": "amount",
          "type": "uint256"
        }
      ],
      "name": "burn",
      "outputs": [],
      "stateMutability": "nonpayable",
      "type": "function"
    },
    {
      "inputs": [
        {
          "internalType": "address",
          "name": "account",
          "type": "address"
        },
        {
          "internalType": "uint256",
          "name": "amount",
          "type": "uint256"
        }
      ],
      "name": "burn",
      "outputs": [],
      "stateMutability": "nonpayable",
      "type": "function"
    },
    {
      "inputs": [
        {
          "internalType": "address",
          "name": "account",
          "type": "address"
        },
        {
          "internalType": "uint256",
          "name": "amount",
          "type": "uint256"
        }
      ],
      "name": "burnFrom",
      "outputs": [],
      "stateMutability": "nonpayable",
      "type": "function"
    },
    {
      "inputs": [],
      "name": "decimals",
      "outputs": [
        {
          "internalType": "uint8",
          "name": "",
          "type": "uint8"
        }
      ],
      "stateMutability": "view",
      "type": "function"
    },
    {
      "inputs": [
        {
          "internalType": "address",
          "name": "spender",
          "type": "address"
        },
        {
          "internalType": "uint256",
          "name": "subtractedValue",
          "type": "uint256"
        }
      ],
      "name": "decreaseAllowance",
      "outputs": [
        {
          "internalType": "bool",
          "name": "",
          "type": "bool"
        }
      ],
      "stateMutability": "nonpayable",
      "type": "function"
    },
    {
      "inputs": [
        {
          "internalType": "address",
          "name": "addr",
          "type": "address"
        }
      ],
      "name": "getCommissionPercentage",
      "outputs": [
        {
          "internalType": "uint256",
          "name": "",
          "type": "uint256"
        }
      ],
      "stateMutability": "view",
      "type": "function"
    },
    {
      "inputs": [
        {
          "internalType": "bytes32",
          "name": "role",
          "type": "bytes32"
        }
      ],
      "name": "getRoleAdmin",
      "outputs": [
        {
          "internalType": "bytes32",
          "name": "",
          "type": "bytes32"
        }
      ],
      "stateMutability": "view",
      "type": "function"
    },
    {
      "inputs": [
        {
          "internalType": "bytes32",
          "name": "role",
          "type": "bytes32"
        },
        {
          "internalType": "address",
          "name": "account",
          "type": "address"
        }
      ],
      "name": "grantRole",
      "outputs": [],
      "stateMutability": "nonpayable",
      "type": "function"
    },
    {
      "inputs": [
        {
          "internalType": "address",
          "name": "user",
          "type": "address"
        },
        {
          "internalType": "string",
          "name": "role",
          "type": "string"
        }
      ],
      "name": "grantRoleForAddress",
      "outputs": [],
      "stateMutability": "nonpayable",
      "type": "function"
    },
    {
      "inputs": [
        {
          "internalType": "bytes32",
          "name": "role",
          "type": "bytes32"
        },
        {
          "internalType": "address",
          "name": "account",
          "type": "address"
        }
      ],
      "name": "hasRole",
      "outputs": [
        {
          "internalType": "bool",
          "name": "",
          "type": "bool"
        }
      ],
      "stateMutability": "view",
      "type": "function"
    },
    {
      "inputs": [
        {
          "internalType": "address",
          "name": "spender",
          "type": "address"
        },
        {
          "internalType": "uint256",
          "name": "addedValue",
          "type": "uint256"
        }
      ],
      "name": "increaseAllowance",
      "outputs": [
        {
          "internalType": "bool",
          "name": "",
          "type": "bool"
        }
      ],
      "stateMutability": "nonpayable",
      "type": "function"
    },
    {
      "inputs": [
        {
          "internalType": "string",
          "name": "name",
          "type": "string"
        },
        {
          "internalType": "string",
          "name": "symbol",
          "type": "string"
        },
        {
          "internalType": "uint256",
          "name": "maxTotalSupply",
          "type": "uint256"
        },
        {
          "internalType": "bool",
          "name": "useMaxTotalSupply",
          "type": "bool"
        },
        {
          "internalType": "address",
          "name": "owner",
          "type": "address"
        }
      ],
      "name": "initialize",
      "outputs": [],
      "stateMutability": "nonpayable",
      "type": "function"
    },
    {
      "inputs": [
        {
          "internalType": "address",
          "name": "to",
          "type": "address"
        },
        {
          "internalType": "uint256",
          "name": "amount",
          "type": "uint256"
        }
      ],
      "name": "mint",
      "outputs": [],
      "stateMutability": "nonpayable",
      "type": "function"
    },
    {
      "inputs": [],
      "name": "name",
      "outputs": [
        {
          "internalType": "string",
          "name": "",
          "type": "string"
        }
      ],
      "stateMutability": "view",
      "type": "function"
    },
    {
      "inputs": [],
      "name": "pause",
      "outputs": [],
      "stateMutability": "nonpayable",
      "type": "function"
    },
    {
      "inputs": [],
      "name": "paused",
      "outputs": [
        {
          "internalType": "bool",
          "name": "",
          "type": "bool"
        }
      ],
      "stateMutability": "view",
      "type": "function"
    },
    {
      "inputs": [],
      "name": "proxiableUUID",
      "outputs": [
        {
          "internalType": "bytes32",
          "name": "",
          "type": "bytes32"
        }
      ],
      "stateMutability": "view",
      "type": "function"
    },
    {
      "inputs": [
        {
          "internalType": "bytes32",
          "name": "role",
          "type": "bytes32"
        },
        {
          "internalType": "address",
          "name": "account",
          "type": "address"
        }
      ],
      "name": "renounceRole",
      "outputs": [],
      "stateMutability": "nonpayable",
      "type": "function"
    },
    {
      "inputs": [
        {
          "internalType": "bytes32",
          "name": "role",
          "type": "bytes32"
        },
        {
          "internalType": "address",
          "name": "account",
          "type": "address"
        }
      ],
      "name": "revokeRole",
      "outputs": [],
      "stateMutability": "nonpayable",
      "type": "function"
    },
    {
      "inputs": [
        {
          "internalType": "address[]",
          "name": "addrs",
          "type": "address[]"
        },
        {
          "internalType": "uint256[]",
          "name": "percentages",
          "type": "uint256[]"
        }
      ],
      "name": "setCommissionPercentages",
      "outputs": [],
      "stateMutability": "nonpayable",
      "type": "function"
    },
    {
      "inputs": [
        {
          "internalType": "bytes4",
          "name": "interfaceId",
          "type": "bytes4"
        }
      ],
      "name": "supportsInterface",
      "outputs": [
        {
          "internalType": "bool",
          "name": "",
          "type": "bool"
        }
      ],
      "stateMutability": "view",
      "type": "function"
    },
    {
      "inputs": [],
      "name": "symbol",
      "outputs": [
        {
          "internalType": "string",
          "name": "",
          "type": "string"
        }
      ],
      "stateMutability": "view",
      "type": "function"
    },
    {
      "inputs": [
        {
          "internalType": "bool",
          "name": "enable",
          "type": "bool"
        }
      ],
      "name": "toggleCommission",
      "outputs": [],
      "stateMutability": "nonpayable",
      "type": "function"
    },
    {
      "inputs": [],
      "name": "totalSupply",
      "outputs": [
        {
          "internalType": "uint256",
          "name": "",
          "type": "uint256"
        }
      ],
      "stateMutability": "view",
      "type": "function"
    },
    {
      "inputs": [
        {
          "internalType": "address",
          "name": "to",
          "type": "address"
        },
        {
          "internalType": "uint256",
          "name": "amount",
          "type": "uint256"
        }
      ],
      "name": "transfer",
      "outputs": [
        {
          "internalType": "bool",
          "name": "",
          "type": "bool"
        }
      ],
      "stateMutability": "nonpayable",
      "type": "function"
    },
    {
      "inputs": [
        {
          "internalType": "address",
          "name": "from",
          "type": "address"
        },
        {
          "internalType": "address",
          "name": "to",
          "type": "address"
        },
        {
          "internalType": "uint256",
          "name": "amount",
          "type": "uint256"
        }
      ],
      "name": "transferFrom",
      "outputs": [
        {
          "internalType": "bool",
          "name": "",
          "type": "bool"
        }
      ],
      "stateMutability": "nonpayable",
      "type": "function"
    },
    {
      "inputs": [],
      "name": "unpause",
      "outputs": [],
      "stateMutability": "nonpayable",
      "type": "function"
    },
    {
      "inputs": [
        {
          "internalType": "address",
          "name": "newImplementation",
          "type": "address"
        }
      ],
      "name": "upgradeTo",
      "outputs": [],
      "stateMutability": "nonpayable",
      "type": "function"
    },
    {
      "inputs": [
        {
          "internalType": "address",
          "name": "newImplementation",
          "type": "address"
        },
        {
          "internalType": "bytes",
          "name": "data",
          "type": "bytes"
        }
      ],
      "name": "upgradeToAndCall",
      "outputs": [],
      "stateMutability": "payable",
      "type": "function"
    }
  ],
  "bytecode": "0x60a06040523073ffffffffffffffffffffffffffffffffffffffff1660809073ffffffffffffffffffffffffffffffffffffffff168152503480156200004457600080fd5b5060016101c360006101000a81548160ff021916908315150217905550620000716200007760201b60201c565b62000221565b600060019054906101000a900460ff1615620000ca576040517f08c379a0000000000000000000000000000000000000000000000000000000008152600401620000c190620001c4565b60405180910390fd5b60ff801660008054906101000a900460ff1660ff16146200013b5760ff6000806101000a81548160ff021916908360ff1602179055507f7f26b83ff96e1f2b6a682f133852f6798a09c465da95921460cefb384740249860ff60405162000132919062000204565b60405180910390a15b565b600082825260208201905092915050565b7f496e697469616c697a61626c653a20636f6e747261637420697320696e69746960008201527f616c697a696e6700000000000000000000000000000000000000000000000000602082015250565b6000620001ac6027836200013d565b9150620001b9826200014e565b604082019050919050565b60006020820190508181036000830152620001df816200019d565b9050919050565b600060ff82169050919050565b620001fe81620001e6565b82525050565b60006020820190506200021b6000830184620001f3565b92915050565b6080516154496200025960003960008181610f890152818161101701528181611248015281816112d6015261138601526154496000f3fe6080604052600436106102305760003560e01c806352d1902d1161012e5780639dc29fac116100ab578063d547741f1161006f578063d547741f14610852578063dd62ed3e1461087b578063e63ab1e9146108b8578063f500aa0a146108e3578063f72c0d8b1461092057610230565b80639dc29fac14610759578063a217fddf14610782578063a457c2d7146107ad578063a9059cbb146107ea578063d53913931461082757610230565b806379cc6790116100f257806379cc6790146106885780638456cb59146106b157806391d14854146106c857806395d89b41146107055780639b6982751461073057610230565b806352d1902d1461058f57806356df006b146105ba5780635c975abb146105f757806360621e8a1461062257806370a082311461064b57610230565b8063313ce567116101bc578063395093511161018057806339509351146104cd5780633f4ba83a1461050a57806340c10f191461052157806342966c681461054a5780634f1ef2861461057357610230565b8063313ce567146103fc578063342d18671461042757806336568abe146104505780633659cfe6146104795780633730837c146104a257610230565b80632220112d116102035780632220112d1461030557806323b872dd1461032e578063248a9ca31461036b578063282c51f3146103a85780632f2ff15d146103d357610230565b806301ffc9a71461023557806306fdde0314610272578063095ea7b31461029d57806318160ddd146102da575b600080fd5b34801561024157600080fd5b5061025c6004803603810190610257919061341d565b61094b565b6040516102699190613465565b60405180910390f35b34801561027e57600080fd5b506102876109c5565b6040516102949190613510565b60405180910390f35b3480156102a957600080fd5b506102c460048036038101906102bf91906135c6565b610a57565b6040516102d19190613465565b60405180910390f35b3480156102e657600080fd5b506102ef610a7a565b6040516102fc9190613615565b60405180910390f35b34801561031157600080fd5b5061032c6004803603810190610327919061383b565b610a84565b005b34801561033a57600080fd5b50610355600480360381019061035091906138b3565b610cc8565b6040516103629190613465565b60405180910390f35b34801561037757600080fd5b50610392600480360381019061038d919061393c565b610e61565b60405161039f9190613978565b60405180910390f35b3480156103b457600080fd5b506103bd610e82565b6040516103ca9190613978565b60405180910390f35b3480156103df57600080fd5b506103fa60048036038101906103f59190613993565b610ea6565b005b34801561040857600080fd5b50610411610ec7565b60405161041e91906139ef565b60405180910390f35b34801561043357600080fd5b5061044e60048036038101906104499190613a36565b610ed0565b005b34801561045c57600080fd5b5061047760048036038101906104729190613993565b610f04565b005b34801561048557600080fd5b506104a0600480360381019061049b9190613a63565b610f87565b005b3480156104ae57600080fd5b506104b761110f565b6040516104c49190613615565b60405180910390f35b3480156104d957600080fd5b506104f460048036038101906104ef91906135c6565b611116565b6040516105019190613465565b60405180910390f35b34801561051657600080fd5b5061051f61114d565b005b34801561052d57600080fd5b50610548600480360381019061054391906135c6565b611182565b005b34801561055657600080fd5b50610571600480360381019061056c9190613a90565b611232565b005b61058d60048036038101906105889190613b72565b611246565b005b34801561059b57600080fd5b506105a4611382565b6040516105b19190613978565b60405180910390f35b3480156105c657600080fd5b506105e160048036038101906105dc9190613a90565b61143b565b6040516105ee9190613bdd565b60405180910390f35b34801561060357600080fd5b5061060c61147b565b6040516106199190613465565b60405180910390f35b34801561062e57600080fd5b5061064960048036038101906106449190613c99565b611492565b005b34801561065757600080fd5b50610672600480360381019061066d9190613a63565b6115c2565b60405161067f9190613615565b60405180910390f35b34801561069457600080fd5b506106af60048036038101906106aa91906135c6565b61160b565b005b3480156106bd57600080fd5b506106c661162b565b005b3480156106d457600080fd5b506106ef60048036038101906106ea9190613993565b611668565b6040516106fc9190613465565b60405180910390f35b34801561071157600080fd5b5061071a6116d4565b6040516107279190613510565b60405180910390f35b34801561073c57600080fd5b5061075760048036038101906107529190613cf5565b611766565b005b34801561076557600080fd5b50610780600480360381019061077b91906135c6565b6119a3565b005b34801561078e57600080fd5b506107976119e4565b6040516107a49190613978565b60405180910390f35b3480156107b957600080fd5b506107d460048036038101906107cf91906135c6565b6119eb565b6040516107e19190613465565b60405180910390f35b3480156107f657600080fd5b50610811600480360381019061080c91906135c6565b611a62565b60405161081e9190613465565b60405180910390f35b34801561083357600080fd5b5061083c611bf5565b6040516108499190613978565b60405180910390f35b34801561085e57600080fd5b5061087960048036038101906108749190613993565b611c19565b005b34801561088757600080fd5b506108a2600480360381019061089d9190613da8565b611c3a565b6040516108af9190613615565b60405180910390f35b3480156108c457600080fd5b506108cd611cc1565b6040516108da9190613978565b60405180910390f35b3480156108ef57600080fd5b5061090a60048036038101906109059190613a63565b611ce5565b6040516109179190613615565b60405180910390f35b34801561092c57600080fd5b50610935611d37565b6040516109429190613978565b60405180910390f35b60007f7965db0b000000000000000000000000000000000000000000000000000000007bffffffffffffffffffffffffffffffffffffffffffffffffffffffff1916827bffffffffffffffffffffffffffffffffffffffffffffffffffffffff191614806109be57506109bd82611d5b565b5b9050919050565b6060603680546109d490613e17565b80601f0160208091040260200160405190810160405280929190818152602001828054610a0090613e17565b8015610a4d5780601f10610a2257610100808354040283529160200191610a4d565b820191906000526020600020905b815481529060010190602001808311610a3057829003601f168201915b5050505050905090565b600080610a62611dc5565b9050610a6f818585611dcd565b600191505092915050565b6000603554905090565b6000801b610a9181611f96565b610a99611faa565b8151835114610add576040517f08c379a0000000000000000000000000000000000000000000000000000000008152600401610ad490613e94565b60405180910390fd5b60036101c4805490508451610af29190613ee3565b1115610b33576040517f08c379a0000000000000000000000000000000000000000000000000000000008152600401610b2a90613f89565b60405180910390fd5b60005b8351811015610cc2576000848281518110610b5457610b53613fa9565b5b602002602001015190506000848381518110610b7357610b72613fa9565b5b602002602001015190506064811115610bc1576040517f08c379a0000000000000000000000000000000000000000000000000000000008152600401610bb890614024565b60405180910390fd5b60006101c760008473ffffffffffffffffffffffffffffffffffffffff1673ffffffffffffffffffffffffffffffffffffffff1681526020019081526020016000205403610c6e576101c4829080600181540180825580915050600190039060005260206000200160009091909190916101000a81548173ffffffffffffffffffffffffffffffffffffffff021916908373ffffffffffffffffffffffffffffffffffffffff1602179055505b806101c760008473ffffffffffffffffffffffffffffffffffffffff1673ffffffffffffffffffffffffffffffffffffffff1681526020019081526020016000208190555050508080600101915050610b36565b50505050565b6000610cd2611faa565b610cdd843384611ff4565b600073ffffffffffffffffffffffffffffffffffffffff168473ffffffffffffffffffffffffffffffffffffffff1603610d4c576040517f08c379a0000000000000000000000000000000000000000000000000000000008152600401610d4390614090565b60405180910390fd5b60006101c360009054906101000a900460ff1615610e3f5760005b6101c480549050811015610e3d5760006101c48281548110610d8c57610d8b613fa9565b5b9060005260206000200160009054906101000a900473ffffffffffffffffffffffffffffffffffffffff169050600060646101c760008473ffffffffffffffffffffffffffffffffffffffff1673ffffffffffffffffffffffffffffffffffffffff1681526020019081526020016000205487610e0991906140b0565b610e139190614121565b90508084610e219190613ee3565b9350610e2e888383612080565b50508080600101915050610d67565b505b610e5585858386610e509190614152565b612080565b60019150509392505050565b600061012d6000838152602001908152602001600020600101549050919050565b7f3c11d16cbaffd01df69ce1c404f6340ee057498f5f00246190ea54220576a84881565b610eaf82610e61565b610eb881611f96565b610ec283836122f9565b505050565b60006012905090565b6000801b610edd81611f96565b610ee5611faa565b816101c360006101000a81548160ff0219169083151502179055505050565b610f0c611dc5565b73ffffffffffffffffffffffffffffffffffffffff168173ffffffffffffffffffffffffffffffffffffffff1614610f79576040517f08c379a0000000000000000000000000000000000000000000000000000000008152600401610f70906141f8565b60405180910390fd5b610f8382826123db565b5050565b7f000000000000000000000000000000000000000000000000000000000000000073ffffffffffffffffffffffffffffffffffffffff163073ffffffffffffffffffffffffffffffffffffffff1603611015576040517f08c379a000000000000000000000000000000000000000000000000000000000815260040161100c9061428a565b60405180910390fd5b7f000000000000000000000000000000000000000000000000000000000000000073ffffffffffffffffffffffffffffffffffffffff166110546124be565b73ffffffffffffffffffffffffffffffffffffffff16146110aa576040517f08c379a00000000000000000000000000000000000000000000000000000000081526004016110a19061431c565b60405180910390fd5b6110b381612515565b61110c81600067ffffffffffffffff8111156110d2576110d1613635565b5b6040519080825280601f01601f1916602001820160405280156111045781602001600182028036833780820191505090505b506000612543565b50565b6101c55481565b600080611121611dc5565b90506111428185856111338589611c3a565b61113d9190613ee3565b611dcd565b600191505092915050565b7f65d7a28e3265b37a6474929f336521b332c1681b933f6cb9f3376673440d862a61117781611f96565b61117f6126b1565b50565b7f9f2df0fed2c77648de5860a4cc508cd0818c85b8b8a1ab4ceeef8d981c8956a66111ac81611f96565b6111b4611faa565b6101c660009054906101000a900460ff1615611223576101c554826111d7610a7a565b6111e19190613ee3565b1115611222576040517f08c379a000000000000000000000000000000000000000000000000000000000815260040161121990614388565b60405180910390fd5b5b61122d8383612714565b505050565b61124361123d611dc5565b8261286b565b50565b7f000000000000000000000000000000000000000000000000000000000000000073ffffffffffffffffffffffffffffffffffffffff163073ffffffffffffffffffffffffffffffffffffffff16036112d4576040517f08c379a00000000000000000000000000000000000000000000000000000000081526004016112cb9061428a565b60405180910390fd5b7f000000000000000000000000000000000000000000000000000000000000000073ffffffffffffffffffffffffffffffffffffffff166113136124be565b73ffffffffffffffffffffffffffffffffffffffff1614611369576040517f08c379a00000000000000000000000000000000000000000000000000000000081526004016113609061431c565b60405180910390fd5b61137282612515565b61137e82826001612543565b5050565b60007f000000000000000000000000000000000000000000000000000000000000000073ffffffffffffffffffffffffffffffffffffffff163073ffffffffffffffffffffffffffffffffffffffff1614611412576040517f08c379a00000000000000000000000000000000000000000000000000000000081526004016114099061441a565b60405180910390fd5b7f360894a13ba1a3210667c828492db98dca3e2076cc3735a920a3ca505d382bbc60001b905090565b6101c4818154811061144c57600080fd5b906000526020600020016000915054906101000a900473ffffffffffffffffffffffffffffffffffffffff1681565b6000609760009054906101000a900460ff16905090565b6000801b61149f81611f96565b6114a7611faa565b6000826040516020016114ba9190614476565b6040516020818303038152906040528051906020012090507f3c11d16cbaffd01df69ce1c404f6340ee057498f5f00246190ea54220576a84881148061151f57507f65d7a28e3265b37a6474929f336521b332c1681b933f6cb9f3376673440d862a81145b8061154957507f9f2df0fed2c77648de5860a4cc508cd0818c85b8b8a1ab4ceeef8d981c8956a681145b8061157357507f189ab7a9244df0848122154315af71fe140f3db0fe014031783b0946b8c9d2e381145b6115b2576040517f08c379a00000000000000000000000000000000000000000000000000000000081526004016115a9906144d9565b60405180910390fd5b6115bc81856122f9565b50505050565b6000603360008373ffffffffffffffffffffffffffffffffffffffff1673ffffffffffffffffffffffffffffffffffffffff168152602001908152602001600020549050919050565b61161d82611617611dc5565b83611ff4565b611627828261286b565b5050565b7f65d7a28e3265b37a6474929f336521b332c1681b933f6cb9f3376673440d862a61165581611f96565b61165d611faa565b611665612a3a565b50565b600061012d600084815260200190815260200160002060000160008373ffffffffffffffffffffffffffffffffffffffff1673ffffffffffffffffffffffffffffffffffffffff16815260200190815260200160002060009054906101000a900460ff16905092915050565b6060603780546116e390613e17565b80601f016020809104026020016040519081016040528092919081815260200182805461170f90613e17565b801561175c5780601f106117315761010080835404028352916020019161175c565b820191906000526020600020905b81548152906001019060200180831161173f57829003601f168201915b5050505050905090565b60008060019054906101000a900460ff161590508080156117975750600160008054906101000a900460ff1660ff16105b806117c457506117a630612a9d565b1580156117c35750600160008054906101000a900460ff1660ff16145b5b611803576040517f08c379a00000000000000000000000000000000000000000000000000000000081526004016117fa9061456b565b60405180910390fd5b60016000806101000a81548160ff021916908360ff1602179055508015611840576001600060016101000a81548160ff0219169083151502179055505b836101c581905550826101c660006101000a81548160ff02191690831515021790555061186d8686612ac0565b611875612b1d565b61187d612b6e565b611885612bc7565b61188d612c18565b61189a6000801b836122f9565b6118c47f65d7a28e3265b37a6474929f336521b332c1681b933f6cb9f3376673440d862a836122f9565b6118ee7f9f2df0fed2c77648de5860a4cc508cd0818c85b8b8a1ab4ceeef8d981c8956a6836122f9565b6119187f189ab7a9244df0848122154315af71fe140f3db0fe014031783b0946b8c9d2e3836122f9565b6119427f3c11d16cbaffd01df69ce1c404f6340ee057498f5f00246190ea54220576a848836122f9565b801561199b5760008060016101000a81548160ff0219169083151502179055507f7f26b83ff96e1f2b6a682f133852f6798a09c465da95921460cefb3847402498600160405161199291906145d0565b60405180910390a15b505050505050565b7f3c11d16cbaffd01df69ce1c404f6340ee057498f5f00246190ea54220576a8486119cd81611f96565b6119d5611faa565b6119df838361286b565b505050565b6000801b81565b6000806119f6611dc5565b90506000611a048286611c3a565b905083811015611a49576040517f08c379a0000000000000000000000000000000000000000000000000000000008152600401611a409061465d565b60405180910390fd5b611a568286868403611dcd565b60019250505092915050565b6000611a6c611faa565b6000339050600073ffffffffffffffffffffffffffffffffffffffff168173ffffffffffffffffffffffffffffffffffffffff1603611ae0576040517f08c379a0000000000000000000000000000000000000000000000000000000008152600401611ad790614090565b60405180910390fd5b60006101c360009054906101000a900460ff1615611bd35760005b6101c480549050811015611bd15760006101c48281548110611b2057611b1f613fa9565b5b9060005260206000200160009054906101000a900473ffffffffffffffffffffffffffffffffffffffff169050600060646101c760008473ffffffffffffffffffffffffffffffffffffffff1673ffffffffffffffffffffffffffffffffffffffff1681526020019081526020016000205488611b9d91906140b0565b611ba79190614121565b90508084611bb59190613ee3565b9350611bc2858383612080565b50508080600101915050611afb565b505b611be982868387611be49190614152565b612080565b60019250505092915050565b7f9f2df0fed2c77648de5860a4cc508cd0818c85b8b8a1ab4ceeef8d981c8956a681565b611c2282610e61565b611c2b81611f96565b611c3583836123db565b505050565b6000603460008473ffffffffffffffffffffffffffffffffffffffff1673ffffffffffffffffffffffffffffffffffffffff16815260200190815260200160002060008373ffffffffffffffffffffffffffffffffffffffff1673ffffffffffffffffffffffffffffffffffffffff16815260200190815260200160002054905092915050565b7f65d7a28e3265b37a6474929f336521b332c1681b933f6cb9f3376673440d862a81565b6000611cef611faa565b6101c760008373ffffffffffffffffffffffffffffffffffffffff1673ffffffffffffffffffffffffffffffffffffffff168152602001908152602001600020549050919050565b7f189ab7a9244df0848122154315af71fe140f3db0fe014031783b0946b8c9d2e381565b60007f01ffc9a7000000000000000000000000000000000000000000000000000000007bffffffffffffffffffffffffffffffffffffffffffffffffffffffff1916827bffffffffffffffffffffffffffffffffffffffffffffffffffffffff1916149050919050565b600033905090565b600073ffffffffffffffffffffffffffffffffffffffff168373ffffffffffffffffffffffffffffffffffffffff1603611e3c576040517f08c379a0000000000000000000000000000000000000000000000000000000008152600401611e33906146ef565b60405180910390fd5b600073ffffffffffffffffffffffffffffffffffffffff168273ffffffffffffffffffffffffffffffffffffffff1603611eab576040517f08c379a0000000000000000000000000000000000000000000000000000000008152600401611ea290614781565b60405180910390fd5b80603460008573ffffffffffffffffffffffffffffffffffffffff1673ffffffffffffffffffffffffffffffffffffffff16815260200190815260200160002060008473ffffffffffffffffffffffffffffffffffffffff1673ffffffffffffffffffffffffffffffffffffffff168152602001908152602001600020819055508173ffffffffffffffffffffffffffffffffffffffff168373ffffffffffffffffffffffffffffffffffffffff167f8c5be1e5ebec7d5bd14f71427d1e84f3dd0314c0f7b2291e5b200ac8c7c3b92583604051611f899190613615565b60405180910390a3505050565b611fa781611fa2611dc5565b612c69565b50565b611fb261147b565b15611ff2576040517f08c379a0000000000000000000000000000000000000000000000000000000008152600401611fe9906147ed565b60405180910390fd5b565b60006120008484611c3a565b90507fffffffffffffffffffffffffffffffffffffffffffffffffffffffffffffffff811461207a578181101561206c576040517f08c379a000000000000000000000000000000000000000000000000000000000815260040161206390614859565b60405180910390fd5b6120798484848403611dcd565b5b50505050565b600073ffffffffffffffffffffffffffffffffffffffff168373ffffffffffffffffffffffffffffffffffffffff16036120ef576040517f08c379a00000000000000000000000000000000000000000000000000000000081526004016120e6906148eb565b60405180910390fd5b600073ffffffffffffffffffffffffffffffffffffffff168273ffffffffffffffffffffffffffffffffffffffff160361215e576040517f08c379a00000000000000000000000000000000000000000000000000000000081526004016121559061497d565b60405180910390fd5b612169838383612cee565b6000603360008573ffffffffffffffffffffffffffffffffffffffff1673ffffffffffffffffffffffffffffffffffffffff168152602001908152602001600020549050818110156121f0576040517f08c379a00000000000000000000000000000000000000000000000000000000081526004016121e790614a0f565b60405180910390fd5b818103603360008673ffffffffffffffffffffffffffffffffffffffff1673ffffffffffffffffffffffffffffffffffffffff1681526020019081526020016000208190555081603360008573ffffffffffffffffffffffffffffffffffffffff1673ffffffffffffffffffffffffffffffffffffffff168152602001908152602001600020600082825401925050819055508273ffffffffffffffffffffffffffffffffffffffff168473ffffffffffffffffffffffffffffffffffffffff167fddf252ad1be2c89b69c2b068fc378daa952ba7f163c4a11628f55a4df523b3ef846040516122e09190613615565b60405180910390a36122f3848484612cfe565b50505050565b6123038282611668565b6123d757600161012d600084815260200190815260200160002060000160008373ffffffffffffffffffffffffffffffffffffffff1673ffffffffffffffffffffffffffffffffffffffff16815260200190815260200160002060006101000a81548160ff02191690831515021790555061237c611dc5565b73ffffffffffffffffffffffffffffffffffffffff168173ffffffffffffffffffffffffffffffffffffffff16837f2f8788117e7eff1d82e926ec794901d17c78024a50270940304540a733656f0d60405160405180910390a45b5050565b6123e58282611668565b156124ba57600061012d600084815260200190815260200160002060000160008373ffffffffffffffffffffffffffffffffffffffff1673ffffffffffffffffffffffffffffffffffffffff16815260200190815260200160002060006101000a81548160ff02191690831515021790555061245f611dc5565b73ffffffffffffffffffffffffffffffffffffffff168173ffffffffffffffffffffffffffffffffffffffff16837ff6391f5c32d9c69d2a47ea670b442974b53935d1edc7fd64eb21e047a839171b60405160405180910390a45b5050565b60006124ec7f360894a13ba1a3210667c828492db98dca3e2076cc3735a920a3ca505d382bbc60001b612d03565b60000160009054906101000a900473ffffffffffffffffffffffffffffffffffffffff16905090565b7f189ab7a9244df0848122154315af71fe140f3db0fe014031783b0946b8c9d2e361253f81611f96565b5050565b61256f7f4910fdfa16fed3260ed0e7147f7cc6da11a60208b5b9406d12a635614ffd914360001b612d0d565b60000160009054906101000a900460ff16156125935761258e83612d17565b6126ac565b8273ffffffffffffffffffffffffffffffffffffffff166352d1902d6040518163ffffffff1660e01b8152600401602060405180830381865afa9250505080156125fb57506040513d601f19601f820116820180604052508101906125f89190614a44565b60015b61263a576040517f08c379a000000000000000000000000000000000000000000000000000000000815260040161263190614ae3565b60405180910390fd5b7f360894a13ba1a3210667c828492db98dca3e2076cc3735a920a3ca505d382bbc60001b811461269f576040517f08c379a000000000000000000000000000000000000000000000000000000000815260040161269690614b75565b60405180910390fd5b506126ab838383612dd0565b5b505050565b6126b9612dfc565b6000609760006101000a81548160ff0219169083151502179055507f5db9ee0a495bf2e6ff9c91a7834c1ba4fdd244a5e8aa4e537bd38aeae4b073aa6126fd611dc5565b60405161270a9190613bdd565b60405180910390a1565b600073ffffffffffffffffffffffffffffffffffffffff168273ffffffffffffffffffffffffffffffffffffffff1603612783576040517f08c379a000000000000000000000000000000000000000000000000000000000815260040161277a90614be1565b60405180910390fd5b61278f60008383612cee565b80603560008282546127a19190613ee3565b9250508190555080603360008473ffffffffffffffffffffffffffffffffffffffff1673ffffffffffffffffffffffffffffffffffffffff168152602001908152602001600020600082825401925050819055508173ffffffffffffffffffffffffffffffffffffffff16600073ffffffffffffffffffffffffffffffffffffffff167fddf252ad1be2c89b69c2b068fc378daa952ba7f163c4a11628f55a4df523b3ef836040516128539190613615565b60405180910390a361286760008383612cfe565b5050565b600073ffffffffffffffffffffffffffffffffffffffff168273ffffffffffffffffffffffffffffffffffffffff16036128da576040517f08c379a00000000000000000000000000000000000000000000000000000000081526004016128d190614c73565b60405180910390fd5b6128e682600083612cee565b6000603360008473ffffffffffffffffffffffffffffffffffffffff1673ffffffffffffffffffffffffffffffffffffffff1681526020019081526020016000205490508181101561296d576040517f08c379a000000000000000000000000000000000000000000000000000000000815260040161296490614d05565b60405180910390fd5b818103603360008573ffffffffffffffffffffffffffffffffffffffff1673ffffffffffffffffffffffffffffffffffffffff1681526020019081526020016000208190555081603560008282540392505081905550600073ffffffffffffffffffffffffffffffffffffffff168373ffffffffffffffffffffffffffffffffffffffff167fddf252ad1be2c89b69c2b068fc378daa952ba7f163c4a11628f55a4df523b3ef84604051612a219190613615565b60405180910390a3612a3583600084612cfe565b505050565b612a42611faa565b6001609760006101000a81548160ff0219169083151502179055507f62e78cea01bee320cd4e420270b5ea74000d11b0c9f74754ebdbfc544b05a258612a86611dc5565b604051612a939190613bdd565b60405180910390a1565b6000808273ffffffffffffffffffffffffffffffffffffffff163b119050919050565b600060019054906101000a900460ff16612b0f576040517f08c379a0000000000000000000000000000000000000000000000000000000008152600401612b0690614d97565b60405180910390fd5b612b198282612e45565b5050565b600060019054906101000a900460ff16612b6c576040517f08c379a0000000000000000000000000000000000000000000000000000000008152600401612b6390614d97565b60405180910390fd5b565b600060019054906101000a900460ff16612bbd576040517f08c379a0000000000000000000000000000000000000000000000000000000008152600401612bb490614d97565b60405180910390fd5b612bc5612eb8565b565b600060019054906101000a900460ff16612c16576040517f08c379a0000000000000000000000000000000000000000000000000000000008152600401612c0d90614d97565b60405180910390fd5b565b600060019054906101000a900460ff16612c67576040517f08c379a0000000000000000000000000000000000000000000000000000000008152600401612c5e90614d97565b60405180910390fd5b565b612c738282611668565b612cea57612c8081612f24565b612c8e8360001c6020612f51565b604051602001612c9f929190614e4f565b6040516020818303038152906040526040517f08c379a0000000000000000000000000000000000000000000000000000000008152600401612ce19190613510565b60405180910390fd5b5050565b612cf983838361318d565b505050565b505050565b6000819050919050565b6000819050919050565b612d2081612a9d565b612d5f576040517f08c379a0000000000000000000000000000000000000000000000000000000008152600401612d5690614efb565b60405180910390fd5b80612d8c7f360894a13ba1a3210667c828492db98dca3e2076cc3735a920a3ca505d382bbc60001b612d03565b60000160006101000a81548173ffffffffffffffffffffffffffffffffffffffff021916908373ffffffffffffffffffffffffffffffffffffffff16021790555050565b612dd9836131e5565b600082511180612de65750805b15612df757612df58383613234565b505b505050565b612e0461147b565b612e43576040517f08c379a0000000000000000000000000000000000000000000000000000000008152600401612e3a90614f67565b60405180910390fd5b565b600060019054906101000a900460ff16612e94576040517f08c379a0000000000000000000000000000000000000000000000000000000008152600401612e8b90614d97565b60405180910390fd5b8160369081612ea39190615129565b508060379081612eb39190615129565b505050565b600060019054906101000a900460ff16612f07576040517f08c379a0000000000000000000000000000000000000000000000000000000008152600401612efe90614d97565b60405180910390fd5b6000609760006101000a81548160ff021916908315150217905550565b6060612f4a8273ffffffffffffffffffffffffffffffffffffffff16601460ff16612f51565b9050919050565b606060006002836002612f6491906140b0565b612f6e9190613ee3565b67ffffffffffffffff811115612f8757612f86613635565b5b6040519080825280601f01601f191660200182016040528015612fb95781602001600182028036833780820191505090505b5090507f300000000000000000000000000000000000000000000000000000000000000081600081518110612ff157612ff0613fa9565b5b60200101907effffffffffffffffffffffffffffffffffffffffffffffffffffffffffffff1916908160001a9053507f78000000000000000000000000000000000000000000000000000000000000008160018151811061305557613054613fa9565b5b60200101907effffffffffffffffffffffffffffffffffffffffffffffffffffffffffffff1916908160001a9053506000600184600261309591906140b0565b61309f9190613ee3565b90505b600181111561313f577f3031323334353637383961626364656600000000000000000000000000000000600f8616601081106130e1576130e0613fa9565b5b1a60f81b8282815181106130f8576130f7613fa9565b5b60200101907effffffffffffffffffffffffffffffffffffffffffffffffffffffffffffff1916908160001a905350600485901c945080613138906151fb565b90506130a2565b5060008414613183576040517f08c379a000000000000000000000000000000000000000000000000000000000815260040161317a90615270565b60405180910390fd5b8091505092915050565b613198838383613261565b6131a061147b565b156131e0576040517f08c379a00000000000000000000000000000000000000000000000000000000081526004016131d790615302565b60405180910390fd5b505050565b6131ee81612d17565b8073ffffffffffffffffffffffffffffffffffffffff167fbc7cd75a20ee27fd9adebab32041f755214dbc6bffa90cc0225b39da2e5c2d3b60405160405180910390a250565b606061325983836040518060600160405280602781526020016153ed60279139613266565b905092915050565b505050565b60606000808573ffffffffffffffffffffffffffffffffffffffff16856040516132909190615369565b600060405180830381855af49150503d80600081146132cb576040519150601f19603f3d011682016040523d82523d6000602084013e6132d0565b606091505b50915091506132e1868383876132ec565b925050509392505050565b6060831561334e5760008351036133465761330685612a9d565b613345576040517f08c379a000000000000000000000000000000000000000000000000000000000815260040161333c906153cc565b60405180910390fd5b5b829050613359565b6133588383613361565b5b949350505050565b6000825111156133745781518083602001fd5b806040517f08c379a00000000000000000000000000000000000000000000000000000000081526004016133a89190613510565b60405180910390fd5b6000604051905090565b600080fd5b600080fd5b60007fffffffff0000000000000000000000000000000000000000000000000000000082169050919050565b6133fa816133c5565b811461340557600080fd5b50565b600081359050613417816133f1565b92915050565b600060208284031215613433576134326133bb565b5b600061344184828501613408565b91505092915050565b60008115159050919050565b61345f8161344a565b82525050565b600060208201905061347a6000830184613456565b92915050565b600081519050919050565b600082825260208201905092915050565b60005b838110156134ba57808201518184015260208101905061349f565b60008484015250505050565b6000601f19601f8301169050919050565b60006134e282613480565b6134ec818561348b565b93506134fc81856020860161349c565b613505816134c6565b840191505092915050565b6000602082019050818103600083015261352a81846134d7565b905092915050565b600073ffffffffffffffffffffffffffffffffffffffff82169050919050565b600061355d82613532565b9050919050565b61356d81613552565b811461357857600080fd5b50565b60008135905061358a81613564565b92915050565b6000819050919050565b6135a381613590565b81146135ae57600080fd5b50565b6000813590506135c08161359a565b92915050565b600080604083850312156135dd576135dc6133bb565b5b60006135eb8582860161357b565b92505060206135fc858286016135b1565b9150509250929050565b61360f81613590565b82525050565b600060208201905061362a6000830184613606565b92915050565b600080fd5b7f4e487b7100000000000000000000000000000000000000000000000000000000600052604160045260246000fd5b61366d826134c6565b810181811067ffffffffffffffff8211171561368c5761368b613635565b5b80604052505050565b600061369f6133b1565b90506136ab8282613664565b919050565b600067ffffffffffffffff8211156136cb576136ca613635565b5b602082029050602081019050919050565b600080fd5b60006136f46136ef846136b0565b613695565b90508083825260208201905060208402830185811115613717576137166136dc565b5b835b81811015613740578061372c888261357b565b845260208401935050602081019050613719565b5050509392505050565b600082601f83011261375f5761375e613630565b5b813561376f8482602086016136e1565b91505092915050565b600067ffffffffffffffff82111561379357613792613635565b5b602082029050602081019050919050565b60006137b76137b284613778565b613695565b905080838252602082019050602084028301858111156137da576137d96136dc565b5b835b8181101561380357806137ef88826135b1565b8452602084019350506020810190506137dc565b5050509392505050565b600082601f83011261382257613821613630565b5b81356138328482602086016137a4565b91505092915050565b60008060408385031215613852576138516133bb565b5b600083013567ffffffffffffffff8111156138705761386f6133c0565b5b61387c8582860161374a565b925050602083013567ffffffffffffffff81111561389d5761389c6133c0565b5b6138a98582860161380d565b9150509250929050565b6000806000606084860312156138cc576138cb6133bb565b5b60006138da8682870161357b565b93505060206138eb8682870161357b565b92505060406138fc868287016135b1565b9150509250925092565b6000819050919050565b61391981613906565b811461392457600080fd5b50565b60008135905061393681613910565b92915050565b600060208284031215613952576139516133bb565b5b600061396084828501613927565b91505092915050565b61397281613906565b82525050565b600060208201905061398d6000830184613969565b92915050565b600080604083850312156139aa576139a96133bb565b5b60006139b885828601613927565b92505060206139c98582860161357b565b9150509250929050565b600060ff82169050919050565b6139e9816139d3565b82525050565b6000602082019050613a0460008301846139e0565b92915050565b613a138161344a565b8114613a1e57600080fd5b50565b600081359050613a3081613a0a565b92915050565b600060208284031215613a4c57613a4b6133bb565b5b6000613a5a84828501613a21565b91505092915050565b600060208284031215613a7957613a786133bb565b5b6000613a878482850161357b565b91505092915050565b600060208284031215613aa657613aa56133bb565b5b6000613ab4848285016135b1565b91505092915050565b600080fd5b600067ffffffffffffffff821115613add57613adc613635565b5b613ae6826134c6565b9050602081019050919050565b82818337600083830152505050565b6000613b15613b1084613ac2565b613695565b905082815260208101848484011115613b3157613b30613abd565b5b613b3c848285613af3565b509392505050565b600082601f830112613b5957613b58613630565b5b8135613b69848260208601613b02565b91505092915050565b60008060408385031215613b8957613b886133bb565b5b6000613b978582860161357b565b925050602083013567ffffffffffffffff811115613bb857613bb76133c0565b5b613bc485828601613b44565b9150509250929050565b613bd781613552565b82525050565b6000602082019050613bf26000830184613bce565b92915050565b600067ffffffffffffffff821115613c1357613c12613635565b5b613c1c826134c6565b9050602081019050919050565b6000613c3c613c3784613bf8565b613695565b905082815260208101848484011115613c5857613c57613abd565b5b613c63848285613af3565b509392505050565b600082601f830112613c8057613c7f613630565b5b8135613c90848260208601613c29565b91505092915050565b60008060408385031215613cb057613caf6133bb565b5b6000613cbe8582860161357b565b925050602083013567ffffffffffffffff811115613cdf57613cde6133c0565b5b613ceb85828601613c6b565b9150509250929050565b600080600080600060a08688031215613d1157613d106133bb565b5b600086013567ffffffffffffffff811115613d2f57613d2e6133c0565b5b613d3b88828901613c6b565b955050602086013567ffffffffffffffff811115613d5c57613d5b6133c0565b5b613d6888828901613c6b565b9450506040613d79888289016135b1565b9350506060613d8a88828901613a21565b9250506080613d9b8882890161357b565b9150509295509295909350565b60008060408385031215613dbf57613dbe6133bb565b5b6000613dcd8582860161357b565b9250506020613dde8582860161357b565b9150509250929050565b7f4e487b7100000000000000000000000000000000000000000000000000000000600052602260045260246000fd5b60006002820490506001821680613e2f57607f821691505b602082108103613e4257613e41613de8565b5b50919050565b7f417272617973206c656e677468206d69736d6174636800000000000000000000600082015250565b6000613e7e60168361348b565b9150613e8982613e48565b602082019050919050565b60006020820190508181036000830152613ead81613e71565b9050919050565b7f4e487b7100000000000000000000000000000000000000000000000000000000600052601160045260246000fd5b6000613eee82613590565b9150613ef983613590565b9250828201905080821115613f1157613f10613eb4565b5b92915050565b7f45786365656473206d6178696d756d206e756d626572206f6620636f6d6d697360008201527f73696f6e20616464726573736573000000000000000000000000000000000000602082015250565b6000613f73602e8361348b565b9150613f7e82613f17565b604082019050919050565b60006020820190508181036000830152613fa281613f66565b9050919050565b7f4e487b7100000000000000000000000000000000000000000000000000000000600052603260045260246000fd5b7f50657263656e74616765206d757374206265203c3d2031303000000000000000600082015250565b600061400e60198361348b565b915061401982613fd8565b602082019050919050565b6000602082019050818103600083015261403d81614001565b9050919050565b7f5472616e736665722066726f6d20302061646472657373000000000000000000600082015250565b600061407a60178361348b565b915061408582614044565b602082019050919050565b600060208201905081810360008301526140a98161406d565b9050919050565b60006140bb82613590565b91506140c683613590565b92508282026140d481613590565b915082820484148315176140eb576140ea613eb4565b5b5092915050565b7f4e487b7100000000000000000000000000000000000000000000000000000000600052601260045260246000fd5b600061412c82613590565b915061413783613590565b925082614147576141466140f2565b5b828204905092915050565b600061415d82613590565b915061416883613590565b92508282039050818111156141805761417f613eb4565b5b92915050565b7f416363657373436f6e74726f6c3a2063616e206f6e6c792072656e6f756e636560008201527f20726f6c657320666f722073656c660000000000000000000000000000000000602082015250565b60006141e2602f8361348b565b91506141ed82614186565b604082019050919050565b60006020820190508181036000830152614211816141d5565b9050919050565b7f46756e6374696f6e206d7573742062652063616c6c6564207468726f7567682060008201527f64656c656761746563616c6c0000000000000000000000000000000000000000602082015250565b6000614274602c8361348b565b915061427f82614218565b604082019050919050565b600060208201905081810360008301526142a381614267565b9050919050565b7f46756e6374696f6e206d7573742062652063616c6c6564207468726f7567682060008201527f6163746976652070726f78790000000000000000000000000000000000000000602082015250565b6000614306602c8361348b565b9150614311826142aa565b604082019050919050565b60006020820190508181036000830152614335816142f9565b9050919050565b7f45786365656473206d6178696d756d20746f74616c20737570706c7900000000600082015250565b6000614372601c8361348b565b915061437d8261433c565b602082019050919050565b600060208201905081810360008301526143a181614365565b9050919050565b7f555550535570677261646561626c653a206d757374206e6f742062652063616c60008201527f6c6564207468726f7567682064656c656761746563616c6c0000000000000000602082015250565b600061440460388361348b565b915061440f826143a8565b604082019050919050565b60006020820190508181036000830152614433816143f7565b9050919050565b600081905092915050565b600061445082613480565b61445a818561443a565b935061446a81856020860161349c565b80840191505092915050565b60006144828284614445565b915081905092915050565b7f496e76616c696420726f6c650000000000000000000000000000000000000000600082015250565b60006144c3600c8361348b565b91506144ce8261448d565b602082019050919050565b600060208201905081810360008301526144f2816144b6565b9050919050565b7f496e697469616c697a61626c653a20636f6e747261637420697320616c72656160008201527f647920696e697469616c697a6564000000000000000000000000000000000000602082015250565b6000614555602e8361348b565b9150614560826144f9565b604082019050919050565b6000602082019050818103600083015261458481614548565b9050919050565b6000819050919050565b6000819050919050565b60006145ba6145b56145b08461458b565b614595565b6139d3565b9050919050565b6145ca8161459f565b82525050565b60006020820190506145e560008301846145c1565b92915050565b7f45524332303a2064656372656173656420616c6c6f77616e63652062656c6f7760008201527f207a65726f000000000000000000000000000000000000000000000000000000602082015250565b600061464760258361348b565b9150614652826145eb565b604082019050919050565b600060208201905081810360008301526146768161463a565b9050919050565b7f45524332303a20617070726f76652066726f6d20746865207a65726f2061646460008201527f7265737300000000000000000000000000000000000000000000000000000000602082015250565b60006146d960248361348b565b91506146e48261467d565b604082019050919050565b60006020820190508181036000830152614708816146cc565b9050919050565b7f45524332303a20617070726f766520746f20746865207a65726f20616464726560008201527f7373000000000000000000000000000000000000000000000000000000000000602082015250565b600061476b60228361348b565b91506147768261470f565b604082019050919050565b6000602082019050818103600083015261479a8161475e565b9050919050565b7f5061757361626c653a2070617573656400000000000000000000000000000000600082015250565b60006147d760108361348b565b91506147e2826147a1565b602082019050919050565b60006020820190508181036000830152614806816147ca565b9050919050565b7f45524332303a20696e73756666696369656e7420616c6c6f77616e6365000000600082015250565b6000614843601d8361348b565b915061484e8261480d565b602082019050919050565b6000602082019050818103600083015261487281614836565b9050919050565b7f45524332303a207472616e736665722066726f6d20746865207a65726f20616460008201527f6472657373000000000000000000000000000000000000000000000000000000602082015250565b60006148d560258361348b565b91506148e082614879565b604082019050919050565b60006020820190508181036000830152614904816148c8565b9050919050565b7f45524332303a207472616e7366657220746f20746865207a65726f206164647260008201527f6573730000000000000000000000000000000000000000000000000000000000602082015250565b600061496760238361348b565b91506149728261490b565b604082019050919050565b600060208201905081810360008301526149968161495a565b9050919050565b7f45524332303a207472616e7366657220616d6f756e742065786365656473206260008201527f616c616e63650000000000000000000000000000000000000000000000000000602082015250565b60006149f960268361348b565b9150614a048261499d565b604082019050919050565b60006020820190508181036000830152614a28816149ec565b9050919050565b600081519050614a3e81613910565b92915050565b600060208284031215614a5a57614a596133bb565b5b6000614a6884828501614a2f565b91505092915050565b7f45524331393637557067726164653a206e657720696d706c656d656e7461746960008201527f6f6e206973206e6f742055555053000000000000000000000000000000000000602082015250565b6000614acd602e8361348b565b9150614ad882614a71565b604082019050919050565b60006020820190508181036000830152614afc81614ac0565b9050919050565b7f45524331393637557067726164653a20756e737570706f727465642070726f7860008201527f6961626c65555549440000000000000000000000000000000000000000000000602082015250565b6000614b5f60298361348b565b9150614b6a82614b03565b604082019050919050565b60006020820190508181036000830152614b8e81614b52565b9050919050565b7f45524332303a206d696e7420746f20746865207a65726f206164647265737300600082015250565b6000614bcb601f8361348b565b9150614bd682614b95565b602082019050919050565b60006020820190508181036000830152614bfa81614bbe565b9050919050565b7f45524332303a206275726e2066726f6d20746865207a65726f2061646472657360008201527f7300000000000000000000000000000000000000000000000000000000000000602082015250565b6000614c5d60218361348b565b9150614c6882614c01565b604082019050919050565b60006020820190508181036000830152614c8c81614c50565b9050919050565b7f45524332303a206275726e20616d6f756e7420657863656564732062616c616e60008201527f6365000000000000000000000000000000000000000000000000000000000000602082015250565b6000614cef60228361348b565b9150614cfa82614c93565b604082019050919050565b60006020820190508181036000830152614d1e81614ce2565b9050919050565b7f496e697469616c697a61626c653a20636f6e7472616374206973206e6f74206960008201527f6e697469616c697a696e67000000000000000000000000000000000000000000602082015250565b6000614d81602b8361348b565b9150614d8c82614d25565b604082019050919050565b60006020820190508181036000830152614db081614d74565b9050919050565b7f416363657373436f6e74726f6c3a206163636f756e7420000000000000000000600082015250565b6000614ded60178361443a565b9150614df882614db7565b601782019050919050565b7f206973206d697373696e6720726f6c6520000000000000000000000000000000600082015250565b6000614e3960118361443a565b9150614e4482614e03565b601182019050919050565b6000614e5a82614de0565b9150614e668285614445565b9150614e7182614e2c565b9150614e7d8284614445565b91508190509392505050565b7f455243313936373a206e657720696d706c656d656e746174696f6e206973206e60008201527f6f74206120636f6e747261637400000000000000000000000000000000000000602082015250565b6000614ee5602d8361348b565b9150614ef082614e89565b604082019050919050565b60006020820190508181036000830152614f1481614ed8565b9050919050565b7f5061757361626c653a206e6f7420706175736564000000000000000000000000600082015250565b6000614f5160148361348b565b9150614f5c82614f1b565b602082019050919050565b60006020820190508181036000830152614f8081614f44565b9050919050565b60008190508160005260206000209050919050565b60006020601f8301049050919050565b600082821b905092915050565b600060088302614fe97fffffffffffffffffffffffffffffffffffffffffffffffffffffffffffffffff82614fac565b614ff38683614fac565b95508019841693508086168417925050509392505050565b600061502661502161501c84613590565b614595565b613590565b9050919050565b6000819050919050565b6150408361500b565b61505461504c8261502d565b848454614fb9565b825550505050565b600090565b61506961505c565b615074818484615037565b505050565b5b818110156150985761508d600082615061565b60018101905061507a565b5050565b601f8211156150dd576150ae81614f87565b6150b784614f9c565b810160208510156150c6578190505b6150da6150d285614f9c565b830182615079565b50505b505050565b600082821c905092915050565b6000615100600019846008026150e2565b1980831691505092915050565b600061511983836150ef565b9150826002028217905092915050565b61513282613480565b67ffffffffffffffff81111561514b5761514a613635565b5b6151558254613e17565b61516082828561509c565b600060209050601f8311600181146151935760008415615181578287015190505b61518b858261510d565b8655506151f3565b601f1984166151a186614f87565b60005b828110156151c9578489015182556001820191506020850194506020810190506151a4565b868310156151e657848901516151e2601f8916826150ef565b8355505b6001600288020188555050505b505050505050565b600061520682613590565b91506000820361521957615218613eb4565b5b600182039050919050565b7f537472696e67733a20686578206c656e67746820696e73756666696369656e74600082015250565b600061525a60208361348b565b915061526582615224565b602082019050919050565b600060208201905081810360008301526152898161524d565b9050919050565b7f45524332305061757361626c653a20746f6b656e207472616e7366657220776860008201527f696c652070617573656400000000000000000000000000000000000000000000602082015250565b60006152ec602a8361348b565b91506152f782615290565b604082019050919050565b6000602082019050818103600083015261531b816152df565b9050919050565b600081519050919050565b600081905092915050565b600061534382615322565b61534d818561532d565b935061535d81856020860161349c565b80840191505092915050565b60006153758284615338565b915081905092915050565b7f416464726573733a2063616c6c20746f206e6f6e2d636f6e7472616374000000600082015250565b60006153b6601d8361348b565b91506153c182615380565b602082019050919050565b600060208201905081810360008301526153e5816153a9565b905091905056fe416464726573733a206c6f772d6c6576656c2064656c65676174652063616c6c206661696c6564a2646970667358221220e0e11830c3959e53e97a3e48e68bbaa012e97856be666b4152468cebe88ded4d64736f6c63430008180033",
  "linkReferences": {},
  "deployedLinkReferences": {}
}