{
  "_format": "hh-sol-artifact-1",
  "contractName": "Impresso",
  "sourceName": "contracts/Impresso.sol",
  "abi": [
    {
      "inputs": [],
      "stateMutability": "nonpayable",
      "type": "constructor"
    },
    {
      "anonymous": false,
      "inputs": [
        {
          "indexed": false,
          "internalType": "address",
          "name": "previousAdmin",
          "type": "address"
        },
        {
          "indexed": false,
          "internalType": "address",
          "name": "newAdmin",
          "type": "address"
        }
      ],
      "name": "AdminChanged",
      "type": "event"
    },
    {
      "anonymous": false,
      "inputs": [
        {
          "indexed": true,
          "internalType": "address",
          "name": "owner",
          "type": "address"
        },
        {
          "indexed": true,
          "internalType": "address",
          "name": "spender",
          "type": "address"
        },
        {
          "indexed": false,
          "internalType": "uint256",
          "name": "value",
          "type": "uint256"
        }
      ],
      "name": "Approval",
      "type": "event"
    },
    {
      "anonymous": false,
      "inputs": [
        {
          "indexed": true,
          "internalType": "address",
          "name": "beacon",
          "type": "address"
        }
      ],
      "name": "BeaconUpgraded",
      "type": "event"
    },
    {
      "anonymous": false,
      "inputs": [
        {
          "indexed": false,
          "internalType": "uint8",
          "name": "version",
          "type": "uint8"
        }
      ],
      "name": "Initialized",
      "type": "event"
    },
    {
      "anonymous": false,
      "inputs": [
        {
          "indexed": true,
          "internalType": "address",
          "name": "previousOwner",
          "type": "address"
        },
        {
          "indexed": true,
          "internalType": "address",
          "name": "newOwner",
          "type": "address"
        }
      ],
      "name": "OwnershipTransferred",
      "type": "event"
    },
    {
      "anonymous": false,
      "inputs": [
        {
          "indexed": false,
          "internalType": "address",
          "name": "account",
          "type": "address"
        }
      ],
      "name": "Paused",
      "type": "event"
    },
    {
      "anonymous": false,
      "inputs": [
        {
          "indexed": true,
          "internalType": "address",
          "name": "from",
          "type": "address"
        },
        {
          "indexed": true,
          "internalType": "address",
          "name": "to",
          "type": "address"
        },
        {
          "indexed": false,
          "internalType": "uint256",
          "name": "value",
          "type": "uint256"
        }
      ],
      "name": "Transfer",
      "type": "event"
    },
    {
      "anonymous": false,
      "inputs": [
        {
          "indexed": false,
          "internalType": "address",
          "name": "account",
          "type": "address"
        }
      ],
      "name": "Unpaused",
      "type": "event"
    },
    {
      "anonymous": false,
      "inputs": [
        {
          "indexed": true,
          "internalType": "address",
          "name": "implementation",
          "type": "address"
        }
      ],
      "name": "Upgraded",
      "type": "event"
    },
    {
      "inputs": [
        {
          "internalType": "uint256",
          "name": "",
          "type": "uint256"
        }
      ],
      "name": "_commissionAddresses",
      "outputs": [
        {
          "internalType": "address",
          "name": "",
          "type": "address"
        }
      ],
      "stateMutability": "view",
      "type": "function"
    },
    {
      "inputs": [],
      "name": "_maxTotalSupply",
      "outputs": [
        {
          "internalType": "uint256",
          "name": "",
          "type": "uint256"
        }
      ],
      "stateMutability": "view",
      "type": "function"
    },
    {
      "inputs": [
        {
          "internalType": "address",
          "name": "owner",
          "type": "address"
        },
        {
          "internalType": "address",
          "name": "spender",
          "type": "address"
        }
      ],
      "name": "allowance",
      "outputs": [
        {
          "internalType": "uint256",
          "name": "",
          "type": "uint256"
        }
      ],
      "stateMutability": "view",
      "type": "function"
    },
    {
      "inputs": [
        {
          "internalType": "address",
          "name": "spender",
          "type": "address"
        },
        {
          "internalType": "uint256",
          "name": "amount",
          "type": "uint256"
        }
      ],
      "name": "approve",
      "outputs": [
        {
          "internalType": "bool",
          "name": "",
          "type": "bool"
        }
      ],
      "stateMutability": "nonpayable",
      "type": "function"
    },
    {
      "inputs": [
        {
          "internalType": "address",
          "name": "account",
          "type": "address"
        }
      ],
      "name": "balanceOf",
      "outputs": [
        {
          "internalType": "uint256",
          "name": "",
          "type": "uint256"
        }
      ],
      "stateMutability": "view",
      "type": "function"
    },
    {
      "inputs": [
        {
          "internalType": "uint256",
          "name": "amount",
          "type": "uint256"
        }
      ],
      "name": "burn",
      "outputs": [],
      "stateMutability": "nonpayable",
      "type": "function"
    },
    {
      "inputs": [
        {
          "internalType": "address",
          "name": "account",
          "type": "address"
        },
        {
          "internalType": "uint256",
          "name": "amount",
          "type": "uint256"
        }
      ],
      "name": "burnFrom",
      "outputs": [],
      "stateMutability": "nonpayable",
      "type": "function"
    },
    {
      "inputs": [],
      "name": "decimals",
      "outputs": [
        {
          "internalType": "uint8",
          "name": "",
          "type": "uint8"
        }
      ],
      "stateMutability": "view",
      "type": "function"
    },
    {
      "inputs": [
        {
          "internalType": "address",
          "name": "spender",
          "type": "address"
        },
        {
          "internalType": "uint256",
          "name": "subtractedValue",
          "type": "uint256"
        }
      ],
      "name": "decreaseAllowance",
      "outputs": [
        {
          "internalType": "bool",
          "name": "",
          "type": "bool"
        }
      ],
      "stateMutability": "nonpayable",
      "type": "function"
    },
    {
      "inputs": [
        {
          "internalType": "address",
          "name": "addr",
          "type": "address"
        }
      ],
      "name": "getCommissionPercentage",
      "outputs": [
        {
          "internalType": "uint256",
          "name": "",
          "type": "uint256"
        }
      ],
      "stateMutability": "view",
      "type": "function"
    },
    {
      "inputs": [
        {
          "internalType": "address",
          "name": "spender",
          "type": "address"
        },
        {
          "internalType": "uint256",
          "name": "addedValue",
          "type": "uint256"
        }
      ],
      "name": "increaseAllowance",
      "outputs": [
        {
          "internalType": "bool",
          "name": "",
          "type": "bool"
        }
      ],
      "stateMutability": "nonpayable",
      "type": "function"
    },
    {
      "inputs": [
        {
          "internalType": "string",
          "name": "name",
          "type": "string"
        },
        {
          "internalType": "string",
          "name": "symbol",
          "type": "string"
        },
        {
          "internalType": "uint256",
          "name": "maxTotalSupply",
          "type": "uint256"
        },
        {
          "internalType": "bool",
          "name": "useMaxTotalSupply",
          "type": "bool"
        }
      ],
      "name": "initialize",
      "outputs": [],
      "stateMutability": "nonpayable",
      "type": "function"
    },
    {
      "inputs": [
        {
          "internalType": "address",
          "name": "to",
          "type": "address"
        },
        {
          "internalType": "uint256",
          "name": "amount",
          "type": "uint256"
        }
      ],
      "name": "mint",
      "outputs": [],
      "stateMutability": "nonpayable",
      "type": "function"
    },
    {
      "inputs": [],
      "name": "name",
      "outputs": [
        {
          "internalType": "string",
          "name": "",
          "type": "string"
        }
      ],
      "stateMutability": "view",
      "type": "function"
    },
    {
      "inputs": [],
      "name": "owner",
      "outputs": [
        {
          "internalType": "address",
          "name": "",
          "type": "address"
        }
      ],
      "stateMutability": "view",
      "type": "function"
    },
    {
      "inputs": [],
      "name": "pause",
      "outputs": [],
      "stateMutability": "nonpayable",
      "type": "function"
    },
    {
      "inputs": [],
      "name": "paused",
      "outputs": [
        {
          "internalType": "bool",
          "name": "",
          "type": "bool"
        }
      ],
      "stateMutability": "view",
      "type": "function"
    },
    {
      "inputs": [],
      "name": "proxiableUUID",
      "outputs": [
        {
          "internalType": "bytes32",
          "name": "",
          "type": "bytes32"
        }
      ],
      "stateMutability": "view",
      "type": "function"
    },
    {
      "inputs": [],
      "name": "renounceOwnership",
      "outputs": [],
      "stateMutability": "nonpayable",
      "type": "function"
    },
    {
      "inputs": [
        {
          "internalType": "address[]",
          "name": "addrs",
          "type": "address[]"
        },
        {
          "internalType": "uint256[]",
          "name": "percentages",
          "type": "uint256[]"
        }
      ],
      "name": "setCommissionPercentages",
      "outputs": [],
      "stateMutability": "nonpayable",
      "type": "function"
    },
    {
      "inputs": [],
      "name": "symbol",
      "outputs": [
        {
          "internalType": "string",
          "name": "",
          "type": "string"
        }
      ],
      "stateMutability": "view",
      "type": "function"
    },
    {
      "inputs": [
        {
          "internalType": "bool",
          "name": "enable",
          "type": "bool"
        }
      ],
      "name": "toggleCommission",
      "outputs": [],
      "stateMutability": "nonpayable",
      "type": "function"
    },
    {
      "inputs": [],
      "name": "totalSupply",
      "outputs": [
        {
          "internalType": "uint256",
          "name": "",
          "type": "uint256"
        }
      ],
      "stateMutability": "view",
      "type": "function"
    },
    {
      "inputs": [
        {
          "internalType": "address",
          "name": "to",
          "type": "address"
        },
        {
          "internalType": "uint256",
          "name": "amount",
          "type": "uint256"
        }
      ],
      "name": "transfer",
      "outputs": [
        {
          "internalType": "bool",
          "name": "",
          "type": "bool"
        }
      ],
      "stateMutability": "nonpayable",
      "type": "function"
    },
    {
      "inputs": [
        {
          "internalType": "address",
          "name": "from",
          "type": "address"
        },
        {
          "internalType": "address",
          "name": "to",
          "type": "address"
        },
        {
          "internalType": "uint256",
          "name": "amount",
          "type": "uint256"
        }
      ],
      "name": "transferFrom",
      "outputs": [
        {
          "internalType": "bool",
          "name": "",
          "type": "bool"
        }
      ],
      "stateMutability": "nonpayable",
      "type": "function"
    },
    {
      "inputs": [
        {
          "internalType": "address",
          "name": "newOwner",
          "type": "address"
        }
      ],
      "name": "transferOwnership",
      "outputs": [],
      "stateMutability": "nonpayable",
      "type": "function"
    },
    {
      "inputs": [],
      "name": "unpause",
      "outputs": [],
      "stateMutability": "nonpayable",
      "type": "function"
    },
    {
      "inputs": [
        {
          "internalType": "address",
          "name": "newImplementation",
          "type": "address"
        }
      ],
      "name": "upgradeTo",
      "outputs": [],
      "stateMutability": "nonpayable",
      "type": "function"
    },
    {
      "inputs": [
        {
          "internalType": "address",
          "name": "newImplementation",
          "type": "address"
        },
        {
          "internalType": "bytes",
          "name": "data",
          "type": "bytes"
        }
      ],
      "name": "upgradeToAndCall",
      "outputs": [],
      "stateMutability": "payable",
      "type": "function"
    }
  ],
  "bytecode": "0x60a06040523073ffffffffffffffffffffffffffffffffffffffff1660809073ffffffffffffffffffffffffffffffffffffffff168152503480156200004457600080fd5b50600161019160006101000a81548160ff021916908315150217905550620000716200007760201b60201c565b62000221565b600060019054906101000a900460ff1615620000ca576040517f08c379a0000000000000000000000000000000000000000000000000000000008152600401620000c190620001c4565b60405180910390fd5b60ff801660008054906101000a900460ff1660ff16146200013b5760ff6000806101000a81548160ff021916908360ff1602179055507f7f26b83ff96e1f2b6a682f133852f6798a09c465da95921460cefb384740249860ff60405162000132919062000204565b60405180910390a15b565b600082825260208201905092915050565b7f496e697469616c697a61626c653a20636f6e747261637420697320696e69746960008201527f616c697a696e6700000000000000000000000000000000000000000000000000602082015250565b6000620001ac6027836200013d565b9150620001b9826200014e565b604082019050919050565b60006020820190508181036000830152620001df816200019d565b9050919050565b600060ff82169050919050565b620001fe81620001e6565b82525050565b60006020820190506200021b6000830184620001f3565b92915050565b6080516146d56200025960003960008181610d4301528181610dd101528181610fbc0152818161104a01526110fa01526146d56000f3fe6080604052600436106101c25760003560e01c80634f1ef286116100f75780638456cb5911610095578063a9059cbb11610064578063a9059cbb1461060d578063dd62ed3e1461064a578063f2fde38b14610687578063f500aa0a146106b0576101c2565b80638456cb59146105635780638da5cb5b1461057a57806395d89b41146105a5578063a457c2d7146105d0576101c2565b80635c975abb116100d15780635c975abb146104bb57806370a08231146104e6578063715018a61461052357806379cc67901461053a576101c2565b80634f1ef2861461043757806352d1902d1461045357806356df006b1461047e576101c2565b8063342d186711610164578063395093511161013e57806339509351146103915780633f4ba83a146103ce57806340c10f19146103e557806342966c681461040e576101c2565b8063342d1867146103145780633659cfe61461033d5780633730837c14610366576101c2565b806319f7f532116101a057806319f7f5321461025a5780632220112d1461028357806323b872dd146102ac578063313ce567146102e9576101c2565b806306fdde03146101c7578063095ea7b3146101f257806318160ddd1461022f575b600080fd5b3480156101d357600080fd5b506101dc6106ed565b6040516101e991906129fe565b60405180910390f35b3480156101fe57600080fd5b5061021960048036038101906102149190612ac8565b61077f565b6040516102269190612b23565b60405180910390f35b34801561023b57600080fd5b506102446107a2565b6040516102519190612b4d565b60405180910390f35b34801561026657600080fd5b50610281600480360381019061027c9190612cc9565b6107ac565b005b34801561028f57600080fd5b506102aa60048036038101906102a59190612ef3565b610933565b005b3480156102b857600080fd5b506102d360048036038101906102ce9190612f6b565b610b71565b6040516102e09190612b23565b60405180910390f35b3480156102f557600080fd5b506102fe610d0a565b60405161030b9190612fda565b60405180910390f35b34801561032057600080fd5b5061033b60048036038101906103369190612ff5565b610d13565b005b34801561034957600080fd5b50610364600480360381019061035f9190613022565b610d41565b005b34801561037257600080fd5b5061037b610ec9565b6040516103889190612b4d565b60405180910390f35b34801561039d57600080fd5b506103b860048036038101906103b39190612ac8565b610ed0565b6040516103c59190612b23565b60405180910390f35b3480156103da57600080fd5b506103e3610f07565b005b3480156103f157600080fd5b5061040c60048036038101906104079190612ac8565b610f19565b005b34801561041a57600080fd5b506104356004803603810190610430919061304f565b610fa6565b005b610451600480360381019061044c919061311d565b610fba565b005b34801561045f57600080fd5b506104686110f6565b6040516104759190613192565b60405180910390f35b34801561048a57600080fd5b506104a560048036038101906104a0919061304f565b6111af565b6040516104b291906131bc565b60405180910390f35b3480156104c757600080fd5b506104d06111ef565b6040516104dd9190612b23565b60405180910390f35b3480156104f257600080fd5b5061050d60048036038101906105089190613022565b611206565b60405161051a9190612b4d565b60405180910390f35b34801561052f57600080fd5b5061053861124f565b005b34801561054657600080fd5b50610561600480360381019061055c9190612ac8565b611263565b005b34801561056f57600080fd5b50610578611283565b005b34801561058657600080fd5b5061058f61129d565b60405161059c91906131bc565b60405180910390f35b3480156105b157600080fd5b506105ba6112c7565b6040516105c791906129fe565b60405180910390f35b3480156105dc57600080fd5b506105f760048036038101906105f29190612ac8565b611359565b6040516106049190612b23565b60405180910390f35b34801561061957600080fd5b50610634600480360381019061062f9190612ac8565b6113d0565b6040516106419190612b23565b60405180910390f35b34801561065657600080fd5b50610671600480360381019061066c91906131d7565b611563565b60405161067e9190612b4d565b60405180910390f35b34801561069357600080fd5b506106ae60048036038101906106a99190613022565b6115ea565b005b3480156106bc57600080fd5b506106d760048036038101906106d29190613022565b61166d565b6040516106e49190612b4d565b60405180910390f35b6060603680546106fc90613246565b80601f016020809104026020016040519081016040528092919081815260200182805461072890613246565b80156107755780601f1061074a57610100808354040283529160200191610775565b820191906000526020600020905b81548152906001019060200180831161075857829003601f168201915b5050505050905090565b60008061078a6116bf565b90506107978185856116c7565b600191505092915050565b6000603554905090565b60008060019054906101000a900460ff161590508080156107dd5750600160008054906101000a900460ff1660ff16105b8061080a57506107ec30611890565b1580156108095750600160008054906101000a900460ff1660ff16145b5b610849576040517f08c379a0000000000000000000000000000000000000000000000000000000008152600401610840906132e9565b60405180910390fd5b60016000806101000a81548160ff021916908360ff1602179055508015610886576001600060016101000a81548160ff0219169083151502179055505b82610193819055508161019460006101000a81548160ff0219169083151502179055506108b385856118b3565b6108bb611910565b6108c3611961565b6108cb6119ba565b6108d3611a13565b801561092c5760008060016101000a81548160ff0219169083151502179055507f7f26b83ff96e1f2b6a682f133852f6798a09c465da95921460cefb38474024986001604051610923919061334e565b60405180910390a15b5050505050565b61093b611a64565b610943611ae2565b8051825114610987576040517f08c379a000000000000000000000000000000000000000000000000000000000815260040161097e906133b5565b60405180910390fd5b600361019280549050835161099c9190613404565b11156109dd576040517f08c379a00000000000000000000000000000000000000000000000000000000081526004016109d4906134aa565b60405180910390fd5b60005b8251811015610b6c5760008382815181106109fe576109fd6134ca565b5b602002602001015190506000838381518110610a1d57610a1c6134ca565b5b602002602001015190506064811115610a6b576040517f08c379a0000000000000000000000000000000000000000000000000000000008152600401610a6290613545565b60405180910390fd5b600061019560008473ffffffffffffffffffffffffffffffffffffffff1673ffffffffffffffffffffffffffffffffffffffff1681526020019081526020016000205403610b1857610192829080600181540180825580915050600190039060005260206000200160009091909190916101000a81548173ffffffffffffffffffffffffffffffffffffffff021916908373ffffffffffffffffffffffffffffffffffffffff1602179055505b8061019560008473ffffffffffffffffffffffffffffffffffffffff1673ffffffffffffffffffffffffffffffffffffffff16815260200190815260200160002081905550505080806001019150506109e0565b505050565b6000610b7b611ae2565b610b86843384611b2c565b600073ffffffffffffffffffffffffffffffffffffffff168473ffffffffffffffffffffffffffffffffffffffff1603610bf5576040517f08c379a0000000000000000000000000000000000000000000000000000000008152600401610bec906135b1565b60405180910390fd5b600061019160009054906101000a900460ff1615610ce85760005b61019280549050811015610ce65760006101928281548110610c3557610c346134ca565b5b9060005260206000200160009054906101000a900473ffffffffffffffffffffffffffffffffffffffff1690506000606461019560008473ffffffffffffffffffffffffffffffffffffffff1673ffffffffffffffffffffffffffffffffffffffff1681526020019081526020016000205487610cb291906135d1565b610cbc9190613642565b90508084610cca9190613404565b9350610cd7888383611bb8565b50508080600101915050610c10565b505b610cfe85858386610cf99190613673565b611bb8565b60019150509392505050565b60006012905090565b610d1b611a64565b610d23611ae2565b8061019160006101000a81548160ff02191690831515021790555050565b7f000000000000000000000000000000000000000000000000000000000000000073ffffffffffffffffffffffffffffffffffffffff163073ffffffffffffffffffffffffffffffffffffffff1603610dcf576040517f08c379a0000000000000000000000000000000000000000000000000000000008152600401610dc690613719565b60405180910390fd5b7f000000000000000000000000000000000000000000000000000000000000000073ffffffffffffffffffffffffffffffffffffffff16610e0e611e31565b73ffffffffffffffffffffffffffffffffffffffff1614610e64576040517f08c379a0000000000000000000000000000000000000000000000000000000008152600401610e5b906137ab565b60405180910390fd5b610e6d81611e88565b610ec681600067ffffffffffffffff811115610e8c57610e8b612b72565b5b6040519080825280601f01601f191660200182016040528015610ebe5781602001600182028036833780820191505090505b506000611e93565b50565b6101935481565b600080610edb6116bf565b9050610efc818585610eed8589611563565b610ef79190613404565b6116c7565b600191505092915050565b610f0f611a64565b610f17612001565b565b610f21611a64565b610f29611ae2565b61019460009054906101000a900460ff1615610f98576101935481610f4c6107a2565b610f569190613404565b1115610f97576040517f08c379a0000000000000000000000000000000000000000000000000000000008152600401610f8e90613817565b60405180910390fd5b5b610fa28282612064565b5050565b610fb7610fb16116bf565b826121bb565b50565b7f000000000000000000000000000000000000000000000000000000000000000073ffffffffffffffffffffffffffffffffffffffff163073ffffffffffffffffffffffffffffffffffffffff1603611048576040517f08c379a000000000000000000000000000000000000000000000000000000000815260040161103f90613719565b60405180910390fd5b7f000000000000000000000000000000000000000000000000000000000000000073ffffffffffffffffffffffffffffffffffffffff16611087611e31565b73ffffffffffffffffffffffffffffffffffffffff16146110dd576040517f08c379a00000000000000000000000000000000000000000000000000000000081526004016110d4906137ab565b60405180910390fd5b6110e682611e88565b6110f282826001611e93565b5050565b60007f000000000000000000000000000000000000000000000000000000000000000073ffffffffffffffffffffffffffffffffffffffff163073ffffffffffffffffffffffffffffffffffffffff1614611186576040517f08c379a000000000000000000000000000000000000000000000000000000000815260040161117d906138a9565b60405180910390fd5b7f360894a13ba1a3210667c828492db98dca3e2076cc3735a920a3ca505d382bbc60001b905090565b61019281815481106111c057600080fd5b906000526020600020016000915054906101000a900473ffffffffffffffffffffffffffffffffffffffff1681565b6000609760009054906101000a900460ff16905090565b6000603360008373ffffffffffffffffffffffffffffffffffffffff1673ffffffffffffffffffffffffffffffffffffffff168152602001908152602001600020549050919050565b611257611a64565b611261600061238a565b565b6112758261126f6116bf565b83611b2c565b61127f82826121bb565b5050565b61128b611a64565b611293611ae2565b61129b612450565b565b600060fb60009054906101000a900473ffffffffffffffffffffffffffffffffffffffff16905090565b6060603780546112d690613246565b80601f016020809104026020016040519081016040528092919081815260200182805461130290613246565b801561134f5780601f106113245761010080835404028352916020019161134f565b820191906000526020600020905b81548152906001019060200180831161133257829003601f168201915b5050505050905090565b6000806113646116bf565b905060006113728286611563565b9050838110156113b7576040517f08c379a00000000000000000000000000000000000000000000000000000000081526004016113ae9061393b565b60405180910390fd5b6113c482868684036116c7565b60019250505092915050565b60006113da611ae2565b6000339050600073ffffffffffffffffffffffffffffffffffffffff168173ffffffffffffffffffffffffffffffffffffffff160361144e576040517f08c379a0000000000000000000000000000000000000000000000000000000008152600401611445906135b1565b60405180910390fd5b600061019160009054906101000a900460ff16156115415760005b6101928054905081101561153f576000610192828154811061148e5761148d6134ca565b5b9060005260206000200160009054906101000a900473ffffffffffffffffffffffffffffffffffffffff1690506000606461019560008473ffffffffffffffffffffffffffffffffffffffff1673ffffffffffffffffffffffffffffffffffffffff168152602001908152602001600020548861150b91906135d1565b6115159190613642565b905080846115239190613404565b9350611530858383611bb8565b50508080600101915050611469565b505b611557828683876115529190613673565b611bb8565b60019250505092915050565b6000603460008473ffffffffffffffffffffffffffffffffffffffff1673ffffffffffffffffffffffffffffffffffffffff16815260200190815260200160002060008373ffffffffffffffffffffffffffffffffffffffff1673ffffffffffffffffffffffffffffffffffffffff16815260200190815260200160002054905092915050565b6115f2611a64565b600073ffffffffffffffffffffffffffffffffffffffff168173ffffffffffffffffffffffffffffffffffffffff1603611661576040517f08c379a0000000000000000000000000000000000000000000000000000000008152600401611658906139cd565b60405180910390fd5b61166a8161238a565b50565b6000611677611ae2565b61019560008373ffffffffffffffffffffffffffffffffffffffff1673ffffffffffffffffffffffffffffffffffffffff168152602001908152602001600020549050919050565b600033905090565b600073ffffffffffffffffffffffffffffffffffffffff168373ffffffffffffffffffffffffffffffffffffffff1603611736576040517f08c379a000000000000000000000000000000000000000000000000000000000815260040161172d90613a5f565b60405180910390fd5b600073ffffffffffffffffffffffffffffffffffffffff168273ffffffffffffffffffffffffffffffffffffffff16036117a5576040517f08c379a000000000000000000000000000000000000000000000000000000000815260040161179c90613af1565b60405180910390fd5b80603460008573ffffffffffffffffffffffffffffffffffffffff1673ffffffffffffffffffffffffffffffffffffffff16815260200190815260200160002060008473ffffffffffffffffffffffffffffffffffffffff1673ffffffffffffffffffffffffffffffffffffffff168152602001908152602001600020819055508173ffffffffffffffffffffffffffffffffffffffff168373ffffffffffffffffffffffffffffffffffffffff167f8c5be1e5ebec7d5bd14f71427d1e84f3dd0314c0f7b2291e5b200ac8c7c3b925836040516118839190612b4d565b60405180910390a3505050565b6000808273ffffffffffffffffffffffffffffffffffffffff163b119050919050565b600060019054906101000a900460ff16611902576040517f08c379a00000000000000000000000000000000000000000000000000000000081526004016118f990613b83565b60405180910390fd5b61190c82826124b3565b5050565b600060019054906101000a900460ff1661195f576040517f08c379a000000000000000000000000000000000000000000000000000000000815260040161195690613b83565b60405180910390fd5b565b600060019054906101000a900460ff166119b0576040517f08c379a00000000000000000000000000000000000000000000000000000000081526004016119a790613b83565b60405180910390fd5b6119b8612526565b565b600060019054906101000a900460ff16611a09576040517f08c379a0000000000000000000000000000000000000000000000000000000008152600401611a0090613b83565b60405180910390fd5b611a11612592565b565b600060019054906101000a900460ff16611a62576040517f08c379a0000000000000000000000000000000000000000000000000000000008152600401611a5990613b83565b60405180910390fd5b565b611a6c6116bf565b73ffffffffffffffffffffffffffffffffffffffff16611a8a61129d565b73ffffffffffffffffffffffffffffffffffffffff1614611ae0576040517f08c379a0000000000000000000000000000000000000000000000000000000008152600401611ad790613bef565b60405180910390fd5b565b611aea6111ef565b15611b2a576040517f08c379a0000000000000000000000000000000000000000000000000000000008152600401611b2190613c5b565b60405180910390fd5b565b6000611b388484611563565b90507fffffffffffffffffffffffffffffffffffffffffffffffffffffffffffffffff8114611bb25781811015611ba4576040517f08c379a0000000000000000000000000000000000000000000000000000000008152600401611b9b90613cc7565b60405180910390fd5b611bb184848484036116c7565b5b50505050565b600073ffffffffffffffffffffffffffffffffffffffff168373ffffffffffffffffffffffffffffffffffffffff1603611c27576040517f08c379a0000000000000000000000000000000000000000000000000000000008152600401611c1e90613d59565b60405180910390fd5b600073ffffffffffffffffffffffffffffffffffffffff168273ffffffffffffffffffffffffffffffffffffffff1603611c96576040517f08c379a0000000000000000000000000000000000000000000000000000000008152600401611c8d90613deb565b60405180910390fd5b611ca18383836125f3565b6000603360008573ffffffffffffffffffffffffffffffffffffffff1673ffffffffffffffffffffffffffffffffffffffff16815260200190815260200160002054905081811015611d28576040517f08c379a0000000000000000000000000000000000000000000000000000000008152600401611d1f90613e7d565b60405180910390fd5b818103603360008673ffffffffffffffffffffffffffffffffffffffff1673ffffffffffffffffffffffffffffffffffffffff1681526020019081526020016000208190555081603360008573ffffffffffffffffffffffffffffffffffffffff1673ffffffffffffffffffffffffffffffffffffffff168152602001908152602001600020600082825401925050819055508273ffffffffffffffffffffffffffffffffffffffff168473ffffffffffffffffffffffffffffffffffffffff167fddf252ad1be2c89b69c2b068fc378daa952ba7f163c4a11628f55a4df523b3ef84604051611e189190612b4d565b60405180910390a3611e2b848484612603565b50505050565b6000611e5f7f360894a13ba1a3210667c828492db98dca3e2076cc3735a920a3ca505d382bbc60001b612608565b60000160009054906101000a900473ffffffffffffffffffffffffffffffffffffffff16905090565b611e90611a64565b50565b611ebf7f4910fdfa16fed3260ed0e7147f7cc6da11a60208b5b9406d12a635614ffd914360001b612612565b60000160009054906101000a900460ff1615611ee357611ede8361261c565b611ffc565b8273ffffffffffffffffffffffffffffffffffffffff166352d1902d6040518163ffffffff1660e01b8152600401602060405180830381865afa925050508015611f4b57506040513d601f19601f82011682018060405250810190611f489190613ec9565b60015b611f8a576040517f08c379a0000000000000000000000000000000000000000000000000000000008152600401611f8190613f68565b60405180910390fd5b7f360894a13ba1a3210667c828492db98dca3e2076cc3735a920a3ca505d382bbc60001b8114611fef576040517f08c379a0000000000000000000000000000000000000000000000000000000008152600401611fe690613ffa565b60405180910390fd5b50611ffb8383836126d5565b5b505050565b612009612701565b6000609760006101000a81548160ff0219169083151502179055507f5db9ee0a495bf2e6ff9c91a7834c1ba4fdd244a5e8aa4e537bd38aeae4b073aa61204d6116bf565b60405161205a91906131bc565b60405180910390a1565b600073ffffffffffffffffffffffffffffffffffffffff168273ffffffffffffffffffffffffffffffffffffffff16036120d3576040517f08c379a00000000000000000000000000000000000000000000000000000000081526004016120ca90614066565b60405180910390fd5b6120df600083836125f3565b80603560008282546120f19190613404565b9250508190555080603360008473ffffffffffffffffffffffffffffffffffffffff1673ffffffffffffffffffffffffffffffffffffffff168152602001908152602001600020600082825401925050819055508173ffffffffffffffffffffffffffffffffffffffff16600073ffffffffffffffffffffffffffffffffffffffff167fddf252ad1be2c89b69c2b068fc378daa952ba7f163c4a11628f55a4df523b3ef836040516121a39190612b4d565b60405180910390a36121b760008383612603565b5050565b600073ffffffffffffffffffffffffffffffffffffffff168273ffffffffffffffffffffffffffffffffffffffff160361222a576040517f08c379a0000000000000000000000000000000000000000000000000000000008152600401612221906140f8565b60405180910390fd5b612236826000836125f3565b6000603360008473ffffffffffffffffffffffffffffffffffffffff1673ffffffffffffffffffffffffffffffffffffffff168152602001908152602001600020549050818110156122bd576040517f08c379a00000000000000000000000000000000000000000000000000000000081526004016122b49061418a565b60405180910390fd5b818103603360008573ffffffffffffffffffffffffffffffffffffffff1673ffffffffffffffffffffffffffffffffffffffff1681526020019081526020016000208190555081603560008282540392505081905550600073ffffffffffffffffffffffffffffffffffffffff168373ffffffffffffffffffffffffffffffffffffffff167fddf252ad1be2c89b69c2b068fc378daa952ba7f163c4a11628f55a4df523b3ef846040516123719190612b4d565b60405180910390a361238583600084612603565b505050565b600060fb60009054906101000a900473ffffffffffffffffffffffffffffffffffffffff1690508160fb60006101000a81548173ffffffffffffffffffffffffffffffffffffffff021916908373ffffffffffffffffffffffffffffffffffffffff1602179055508173ffffffffffffffffffffffffffffffffffffffff168173ffffffffffffffffffffffffffffffffffffffff167f8be0079c531659141344cd1fd0a4f28419497f9722a3daafe3b4186f6b6457e060405160405180910390a35050565b612458611ae2565b6001609760006101000a81548160ff0219169083151502179055507f62e78cea01bee320cd4e420270b5ea74000d11b0c9f74754ebdbfc544b05a25861249c6116bf565b6040516124a991906131bc565b60405180910390a1565b600060019054906101000a900460ff16612502576040517f08c379a00000000000000000000000000000000000000000000000000000000081526004016124f990613b83565b60405180910390fd5b8160369081612511919061434c565b508060379081612521919061434c565b505050565b600060019054906101000a900460ff16612575576040517f08c379a000000000000000000000000000000000000000000000000000000000815260040161256c90613b83565b60405180910390fd5b6000609760006101000a81548160ff021916908315150217905550565b600060019054906101000a900460ff166125e1576040517f08c379a00000000000000000000000000000000000000000000000000000000081526004016125d890613b83565b60405180910390fd5b6125f16125ec6116bf565b61238a565b565b6125fe83838361274a565b505050565b505050565b6000819050919050565b6000819050919050565b61262581611890565b612664576040517f08c379a000000000000000000000000000000000000000000000000000000000815260040161265b90614490565b60405180910390fd5b806126917f360894a13ba1a3210667c828492db98dca3e2076cc3735a920a3ca505d382bbc60001b612608565b60000160006101000a81548173ffffffffffffffffffffffffffffffffffffffff021916908373ffffffffffffffffffffffffffffffffffffffff16021790555050565b6126de836127a2565b6000825111806126eb5750805b156126fc576126fa83836127f1565b505b505050565b6127096111ef565b612748576040517f08c379a000000000000000000000000000000000000000000000000000000000815260040161273f906144fc565b60405180910390fd5b565b61275583838361281e565b61275d6111ef565b1561279d576040517f08c379a00000000000000000000000000000000000000000000000000000000081526004016127949061458e565b60405180910390fd5b505050565b6127ab8161261c565b8073ffffffffffffffffffffffffffffffffffffffff167fbc7cd75a20ee27fd9adebab32041f755214dbc6bffa90cc0225b39da2e5c2d3b60405160405180910390a250565b6060612816838360405180606001604052806027815260200161467960279139612823565b905092915050565b505050565b60606000808573ffffffffffffffffffffffffffffffffffffffff168560405161284d91906145f5565b600060405180830381855af49150503d8060008114612888576040519150601f19603f3d011682016040523d82523d6000602084013e61288d565b606091505b509150915061289e868383876128a9565b925050509392505050565b6060831561290b576000835103612903576128c385611890565b612902576040517f08c379a00000000000000000000000000000000000000000000000000000000081526004016128f990614658565b60405180910390fd5b5b829050612916565b612915838361291e565b5b949350505050565b6000825111156129315781518083602001fd5b806040517f08c379a000000000000000000000000000000000000000000000000000000000815260040161296591906129fe565b60405180910390fd5b600081519050919050565b600082825260208201905092915050565b60005b838110156129a857808201518184015260208101905061298d565b60008484015250505050565b6000601f19601f8301169050919050565b60006129d08261296e565b6129da8185612979565b93506129ea81856020860161298a565b6129f3816129b4565b840191505092915050565b60006020820190508181036000830152612a1881846129c5565b905092915050565b6000604051905090565b600080fd5b600080fd5b600073ffffffffffffffffffffffffffffffffffffffff82169050919050565b6000612a5f82612a34565b9050919050565b612a6f81612a54565b8114612a7a57600080fd5b50565b600081359050612a8c81612a66565b92915050565b6000819050919050565b612aa581612a92565b8114612ab057600080fd5b50565b600081359050612ac281612a9c565b92915050565b60008060408385031215612adf57612ade612a2a565b5b6000612aed85828601612a7d565b9250506020612afe85828601612ab3565b9150509250929050565b60008115159050919050565b612b1d81612b08565b82525050565b6000602082019050612b386000830184612b14565b92915050565b612b4781612a92565b82525050565b6000602082019050612b626000830184612b3e565b92915050565b600080fd5b600080fd5b7f4e487b7100000000000000000000000000000000000000000000000000000000600052604160045260246000fd5b612baa826129b4565b810181811067ffffffffffffffff82111715612bc957612bc8612b72565b5b80604052505050565b6000612bdc612a20565b9050612be88282612ba1565b919050565b600067ffffffffffffffff821115612c0857612c07612b72565b5b612c11826129b4565b9050602081019050919050565b82818337600083830152505050565b6000612c40612c3b84612bed565b612bd2565b905082815260208101848484011115612c5c57612c5b612b6d565b5b612c67848285612c1e565b509392505050565b600082601f830112612c8457612c83612b68565b5b8135612c94848260208601612c2d565b91505092915050565b612ca681612b08565b8114612cb157600080fd5b50565b600081359050612cc381612c9d565b92915050565b60008060008060808587031215612ce357612ce2612a2a565b5b600085013567ffffffffffffffff811115612d0157612d00612a2f565b5b612d0d87828801612c6f565b945050602085013567ffffffffffffffff811115612d2e57612d2d612a2f565b5b612d3a87828801612c6f565b9350506040612d4b87828801612ab3565b9250506060612d5c87828801612cb4565b91505092959194509250565b600067ffffffffffffffff821115612d8357612d82612b72565b5b602082029050602081019050919050565b600080fd5b6000612dac612da784612d68565b612bd2565b90508083825260208201905060208402830185811115612dcf57612dce612d94565b5b835b81811015612df85780612de48882612a7d565b845260208401935050602081019050612dd1565b5050509392505050565b600082601f830112612e1757612e16612b68565b5b8135612e27848260208601612d99565b91505092915050565b600067ffffffffffffffff821115612e4b57612e4a612b72565b5b602082029050602081019050919050565b6000612e6f612e6a84612e30565b612bd2565b90508083825260208201905060208402830185811115612e9257612e91612d94565b5b835b81811015612ebb5780612ea78882612ab3565b845260208401935050602081019050612e94565b5050509392505050565b600082601f830112612eda57612ed9612b68565b5b8135612eea848260208601612e5c565b91505092915050565b60008060408385031215612f0a57612f09612a2a565b5b600083013567ffffffffffffffff811115612f2857612f27612a2f565b5b612f3485828601612e02565b925050602083013567ffffffffffffffff811115612f5557612f54612a2f565b5b612f6185828601612ec5565b9150509250929050565b600080600060608486031215612f8457612f83612a2a565b5b6000612f9286828701612a7d565b9350506020612fa386828701612a7d565b9250506040612fb486828701612ab3565b9150509250925092565b600060ff82169050919050565b612fd481612fbe565b82525050565b6000602082019050612fef6000830184612fcb565b92915050565b60006020828403121561300b5761300a612a2a565b5b600061301984828501612cb4565b91505092915050565b60006020828403121561303857613037612a2a565b5b600061304684828501612a7d565b91505092915050565b60006020828403121561306557613064612a2a565b5b600061307384828501612ab3565b91505092915050565b600067ffffffffffffffff82111561309757613096612b72565b5b6130a0826129b4565b9050602081019050919050565b60006130c06130bb8461307c565b612bd2565b9050828152602081018484840111156130dc576130db612b6d565b5b6130e7848285612c1e565b509392505050565b600082601f83011261310457613103612b68565b5b81356131148482602086016130ad565b91505092915050565b6000806040838503121561313457613133612a2a565b5b600061314285828601612a7d565b925050602083013567ffffffffffffffff81111561316357613162612a2f565b5b61316f858286016130ef565b9150509250929050565b6000819050919050565b61318c81613179565b82525050565b60006020820190506131a76000830184613183565b92915050565b6131b681612a54565b82525050565b60006020820190506131d160008301846131ad565b92915050565b600080604083850312156131ee576131ed612a2a565b5b60006131fc85828601612a7d565b925050602061320d85828601612a7d565b9150509250929050565b7f4e487b7100000000000000000000000000000000000000000000000000000000600052602260045260246000fd5b6000600282049050600182168061325e57607f821691505b60208210810361327157613270613217565b5b50919050565b7f496e697469616c697a61626c653a20636f6e747261637420697320616c72656160008201527f647920696e697469616c697a6564000000000000000000000000000000000000602082015250565b60006132d3602e83612979565b91506132de82613277565b604082019050919050565b60006020820190508181036000830152613302816132c6565b9050919050565b6000819050919050565b6000819050919050565b600061333861333361332e84613309565b613313565b612fbe565b9050919050565b6133488161331d565b82525050565b6000602082019050613363600083018461333f565b92915050565b7f417272617973206c656e677468206d69736d6174636800000000000000000000600082015250565b600061339f601683612979565b91506133aa82613369565b602082019050919050565b600060208201905081810360008301526133ce81613392565b9050919050565b7f4e487b7100000000000000000000000000000000000000000000000000000000600052601160045260246000fd5b600061340f82612a92565b915061341a83612a92565b9250828201905080821115613432576134316133d5565b5b92915050565b7f45786365656473206d6178696d756d206e756d626572206f6620636f6d6d697360008201527f73696f6e20616464726573736573000000000000000000000000000000000000602082015250565b6000613494602e83612979565b915061349f82613438565b604082019050919050565b600060208201905081810360008301526134c381613487565b9050919050565b7f4e487b7100000000000000000000000000000000000000000000000000000000600052603260045260246000fd5b7f50657263656e74616765206d757374206265203c3d2031303000000000000000600082015250565b600061352f601983612979565b915061353a826134f9565b602082019050919050565b6000602082019050818103600083015261355e81613522565b9050919050565b7f5472616e736665722066726f6d20302061646472657373000000000000000000600082015250565b600061359b601783612979565b91506135a682613565565b602082019050919050565b600060208201905081810360008301526135ca8161358e565b9050919050565b60006135dc82612a92565b91506135e783612a92565b92508282026135f581612a92565b9150828204841483151761360c5761360b6133d5565b5b5092915050565b7f4e487b7100000000000000000000000000000000000000000000000000000000600052601260045260246000fd5b600061364d82612a92565b915061365883612a92565b92508261366857613667613613565b5b828204905092915050565b600061367e82612a92565b915061368983612a92565b92508282039050818111156136a1576136a06133d5565b5b92915050565b7f46756e6374696f6e206d7573742062652063616c6c6564207468726f7567682060008201527f64656c656761746563616c6c0000000000000000000000000000000000000000602082015250565b6000613703602c83612979565b915061370e826136a7565b604082019050919050565b60006020820190508181036000830152613732816136f6565b9050919050565b7f46756e6374696f6e206d7573742062652063616c6c6564207468726f7567682060008201527f6163746976652070726f78790000000000000000000000000000000000000000602082015250565b6000613795602c83612979565b91506137a082613739565b604082019050919050565b600060208201905081810360008301526137c481613788565b9050919050565b7f45786365656473206d6178696d756d20746f74616c20737570706c7900000000600082015250565b6000613801601c83612979565b915061380c826137cb565b602082019050919050565b60006020820190508181036000830152613830816137f4565b9050919050565b7f555550535570677261646561626c653a206d757374206e6f742062652063616c60008201527f6c6564207468726f7567682064656c656761746563616c6c0000000000000000602082015250565b6000613893603883612979565b915061389e82613837565b604082019050919050565b600060208201905081810360008301526138c281613886565b9050919050565b7f45524332303a2064656372656173656420616c6c6f77616e63652062656c6f7760008201527f207a65726f000000000000000000000000000000000000000000000000000000602082015250565b6000613925602583612979565b9150613930826138c9565b604082019050919050565b6000602082019050818103600083015261395481613918565b9050919050565b7f4f776e61626c653a206e6577206f776e657220697320746865207a65726f206160008201527f6464726573730000000000000000000000000000000000000000000000000000602082015250565b60006139b7602683612979565b91506139c28261395b565b604082019050919050565b600060208201905081810360008301526139e6816139aa565b9050919050565b7f45524332303a20617070726f76652066726f6d20746865207a65726f2061646460008201527f7265737300000000000000000000000000000000000000000000000000000000602082015250565b6000613a49602483612979565b9150613a54826139ed565b604082019050919050565b60006020820190508181036000830152613a7881613a3c565b9050919050565b7f45524332303a20617070726f766520746f20746865207a65726f20616464726560008201527f7373000000000000000000000000000000000000000000000000000000000000602082015250565b6000613adb602283612979565b9150613ae682613a7f565b604082019050919050565b60006020820190508181036000830152613b0a81613ace565b9050919050565b7f496e697469616c697a61626c653a20636f6e7472616374206973206e6f74206960008201527f6e697469616c697a696e67000000000000000000000000000000000000000000602082015250565b6000613b6d602b83612979565b9150613b7882613b11565b604082019050919050565b60006020820190508181036000830152613b9c81613b60565b9050919050565b7f4f776e61626c653a2063616c6c6572206973206e6f7420746865206f776e6572600082015250565b6000613bd9602083612979565b9150613be482613ba3565b602082019050919050565b60006020820190508181036000830152613c0881613bcc565b9050919050565b7f5061757361626c653a2070617573656400000000000000000000000000000000600082015250565b6000613c45601083612979565b9150613c5082613c0f565b602082019050919050565b60006020820190508181036000830152613c7481613c38565b9050919050565b7f45524332303a20696e73756666696369656e7420616c6c6f77616e6365000000600082015250565b6000613cb1601d83612979565b9150613cbc82613c7b565b602082019050919050565b60006020820190508181036000830152613ce081613ca4565b9050919050565b7f45524332303a207472616e736665722066726f6d20746865207a65726f20616460008201527f6472657373000000000000000000000000000000000000000000000000000000602082015250565b6000613d43602583612979565b9150613d4e82613ce7565b604082019050919050565b60006020820190508181036000830152613d7281613d36565b9050919050565b7f45524332303a207472616e7366657220746f20746865207a65726f206164647260008201527f6573730000000000000000000000000000000000000000000000000000000000602082015250565b6000613dd5602383612979565b9150613de082613d79565b604082019050919050565b60006020820190508181036000830152613e0481613dc8565b9050919050565b7f45524332303a207472616e7366657220616d6f756e742065786365656473206260008201527f616c616e63650000000000000000000000000000000000000000000000000000602082015250565b6000613e67602683612979565b9150613e7282613e0b565b604082019050919050565b60006020820190508181036000830152613e9681613e5a565b9050919050565b613ea681613179565b8114613eb157600080fd5b50565b600081519050613ec381613e9d565b92915050565b600060208284031215613edf57613ede612a2a565b5b6000613eed84828501613eb4565b91505092915050565b7f45524331393637557067726164653a206e657720696d706c656d656e7461746960008201527f6f6e206973206e6f742055555053000000000000000000000000000000000000602082015250565b6000613f52602e83612979565b9150613f5d82613ef6565b604082019050919050565b60006020820190508181036000830152613f8181613f45565b9050919050565b7f45524331393637557067726164653a20756e737570706f727465642070726f7860008201527f6961626c65555549440000000000000000000000000000000000000000000000602082015250565b6000613fe4602983612979565b9150613fef82613f88565b604082019050919050565b6000602082019050818103600083015261401381613fd7565b9050919050565b7f45524332303a206d696e7420746f20746865207a65726f206164647265737300600082015250565b6000614050601f83612979565b915061405b8261401a565b602082019050919050565b6000602082019050818103600083015261407f81614043565b9050919050565b7f45524332303a206275726e2066726f6d20746865207a65726f2061646472657360008201527f7300000000000000000000000000000000000000000000000000000000000000602082015250565b60006140e2602183612979565b91506140ed82614086565b604082019050919050565b60006020820190508181036000830152614111816140d5565b9050919050565b7f45524332303a206275726e20616d6f756e7420657863656564732062616c616e60008201527f6365000000000000000000000000000000000000000000000000000000000000602082015250565b6000614174602283612979565b915061417f82614118565b604082019050919050565b600060208201905081810360008301526141a381614167565b9050919050565b60008190508160005260206000209050919050565b60006020601f8301049050919050565b600082821b905092915050565b60006008830261420c7fffffffffffffffffffffffffffffffffffffffffffffffffffffffffffffffff826141cf565b61421686836141cf565b95508019841693508086168417925050509392505050565b600061424961424461423f84612a92565b613313565b612a92565b9050919050565b6000819050919050565b6142638361422e565b61427761426f82614250565b8484546141dc565b825550505050565b600090565b61428c61427f565b61429781848461425a565b505050565b5b818110156142bb576142b0600082614284565b60018101905061429d565b5050565b601f821115614300576142d1816141aa565b6142da846141bf565b810160208510156142e9578190505b6142fd6142f5856141bf565b83018261429c565b50505b505050565b600082821c905092915050565b600061432360001984600802614305565b1980831691505092915050565b600061433c8383614312565b9150826002028217905092915050565b6143558261296e565b67ffffffffffffffff81111561436e5761436d612b72565b5b6143788254613246565b6143838282856142bf565b600060209050601f8311600181146143b657600084156143a4578287015190505b6143ae8582614330565b865550614416565b601f1984166143c4866141aa565b60005b828110156143ec578489015182556001820191506020850194506020810190506143c7565b868310156144095784890151614405601f891682614312565b8355505b6001600288020188555050505b505050505050565b7f455243313936373a206e657720696d706c656d656e746174696f6e206973206e60008201527f6f74206120636f6e747261637400000000000000000000000000000000000000602082015250565b600061447a602d83612979565b91506144858261441e565b604082019050919050565b600060208201905081810360008301526144a98161446d565b9050919050565b7f5061757361626c653a206e6f7420706175736564000000000000000000000000600082015250565b60006144e6601483612979565b91506144f1826144b0565b602082019050919050565b60006020820190508181036000830152614515816144d9565b9050919050565b7f45524332305061757361626c653a20746f6b656e207472616e7366657220776860008201527f696c652070617573656400000000000000000000000000000000000000000000602082015250565b6000614578602a83612979565b91506145838261451c565b604082019050919050565b600060208201905081810360008301526145a78161456b565b9050919050565b600081519050919050565b600081905092915050565b60006145cf826145ae565b6145d981856145b9565b93506145e981856020860161298a565b80840191505092915050565b600061460182846145c4565b915081905092915050565b7f416464726573733a2063616c6c20746f206e6f6e2d636f6e7472616374000000600082015250565b6000614642601d83612979565b915061464d8261460c565b602082019050919050565b6000602082019050818103600083015261467181614635565b905091905056fe416464726573733a206c6f772d6c6576656c2064656c65676174652063616c6c206661696c6564a2646970667358221220f1af07801008ad6f00c6930fad2a1a38d83088aa769e2ba2351b437f7d9b377764736f6c63430008180033",
  "linkReferences": {},
  "deployedLinkReferences": {}
}