{
  "_format": "hh-sol-artifact-1",
  "contractName": "Impresso",
  "sourceName": "contracts/Impresso.sol",
  "abi": [
    {
      "inputs": [],
      "stateMutability": "nonpayable",
      "type": "constructor"
    },
    {
      "anonymous": false,
      "inputs": [
        {
          "indexed": false,
          "internalType": "address",
          "name": "previousAdmin",
          "type": "address"
        },
        {
          "indexed": false,
          "internalType": "address",
          "name": "newAdmin",
          "type": "address"
        }
      ],
      "name": "AdminChanged",
      "type": "event"
    },
    {
      "anonymous": false,
      "inputs": [
        {
          "indexed": true,
          "internalType": "address",
          "name": "owner",
          "type": "address"
        },
        {
          "indexed": true,
          "internalType": "address",
          "name": "spender",
          "type": "address"
        },
        {
          "indexed": false,
          "internalType": "uint256",
          "name": "value",
          "type": "uint256"
        }
      ],
      "name": "Approval",
      "type": "event"
    },
    {
      "anonymous": false,
      "inputs": [
        {
          "indexed": true,
          "internalType": "address",
          "name": "beacon",
          "type": "address"
        }
      ],
      "name": "BeaconUpgraded",
      "type": "event"
    },
    {
      "anonymous": false,
      "inputs": [
        {
          "indexed": false,
          "internalType": "address[]",
          "name": "addresses",
          "type": "address[]"
        },
        {
          "indexed": false,
          "internalType": "uint256[]",
          "name": "percentages",
          "type": "uint256[]"
        }
      ],
      "name": "CommissionPercentagesSet",
      "type": "event"
    },
    {
      "anonymous": false,
      "inputs": [
        {
          "indexed": false,
          "internalType": "bool",
          "name": "enabled",
          "type": "bool"
        }
      ],
      "name": "CommissionToggled",
      "type": "event"
    },
    {
      "anonymous": false,
      "inputs": [
        {
          "indexed": false,
          "internalType": "uint8",
          "name": "version",
          "type": "uint8"
        }
      ],
      "name": "Initialized",
      "type": "event"
    },
    {
      "anonymous": false,
      "inputs": [
        {
          "indexed": true,
          "internalType": "address",
          "name": "previousOwner",
          "type": "address"
        },
        {
          "indexed": true,
          "internalType": "address",
          "name": "newOwner",
          "type": "address"
        }
      ],
      "name": "OwnershipTransferred",
      "type": "event"
    },
    {
      "anonymous": false,
      "inputs": [
        {
          "indexed": false,
          "internalType": "address",
          "name": "account",
          "type": "address"
        }
      ],
      "name": "Paused",
      "type": "event"
    },
    {
      "anonymous": false,
      "inputs": [
        {
          "indexed": true,
          "internalType": "address",
          "name": "from",
          "type": "address"
        },
        {
          "indexed": true,
          "internalType": "address",
          "name": "to",
          "type": "address"
        },
        {
          "indexed": false,
          "internalType": "uint256",
          "name": "value",
          "type": "uint256"
        }
      ],
      "name": "Transfer",
      "type": "event"
    },
    {
      "anonymous": false,
      "inputs": [
        {
          "indexed": false,
          "internalType": "address",
          "name": "account",
          "type": "address"
        }
      ],
      "name": "Unpaused",
      "type": "event"
    },
    {
      "anonymous": false,
      "inputs": [
        {
          "indexed": true,
          "internalType": "address",
          "name": "implementation",
          "type": "address"
        }
      ],
      "name": "Upgraded",
      "type": "event"
    },
    {
      "inputs": [
        {
          "internalType": "uint256",
          "name": "",
          "type": "uint256"
        }
      ],
      "name": "_commissionAddresses",
      "outputs": [
        {
          "internalType": "address",
          "name": "",
          "type": "address"
        }
      ],
      "stateMutability": "view",
      "type": "function"
    },
    {
      "inputs": [],
      "name": "_maxTotalSupply",
      "outputs": [
        {
          "internalType": "uint256",
          "name": "",
          "type": "uint256"
        }
      ],
      "stateMutability": "view",
      "type": "function"
    },
    {
      "inputs": [
        {
          "internalType": "address",
          "name": "owner",
          "type": "address"
        },
        {
          "internalType": "address",
          "name": "spender",
          "type": "address"
        }
      ],
      "name": "allowance",
      "outputs": [
        {
          "internalType": "uint256",
          "name": "",
          "type": "uint256"
        }
      ],
      "stateMutability": "view",
      "type": "function"
    },
    {
      "inputs": [
        {
          "internalType": "address",
          "name": "spender",
          "type": "address"
        },
        {
          "internalType": "uint256",
          "name": "amount",
          "type": "uint256"
        }
      ],
      "name": "approve",
      "outputs": [
        {
          "internalType": "bool",
          "name": "",
          "type": "bool"
        }
      ],
      "stateMutability": "nonpayable",
      "type": "function"
    },
    {
      "inputs": [
        {
          "internalType": "address",
          "name": "account",
          "type": "address"
        }
      ],
      "name": "balanceOf",
      "outputs": [
        {
          "internalType": "uint256",
          "name": "",
          "type": "uint256"
        }
      ],
      "stateMutability": "view",
      "type": "function"
    },
    {
      "inputs": [
        {
          "internalType": "uint256",
          "name": "amount",
          "type": "uint256"
        }
      ],
      "name": "burn",
      "outputs": [],
      "stateMutability": "nonpayable",
      "type": "function"
    },
    {
      "inputs": [
        {
          "internalType": "address",
          "name": "account",
          "type": "address"
        },
        {
          "internalType": "uint256",
          "name": "amount",
          "type": "uint256"
        }
      ],
      "name": "burnFrom",
      "outputs": [],
      "stateMutability": "nonpayable",
      "type": "function"
    },
    {
      "inputs": [],
      "name": "decimals",
      "outputs": [
        {
          "internalType": "uint8",
          "name": "",
          "type": "uint8"
        }
      ],
      "stateMutability": "view",
      "type": "function"
    },
    {
      "inputs": [
        {
          "internalType": "address",
          "name": "spender",
          "type": "address"
        },
        {
          "internalType": "uint256",
          "name": "subtractedValue",
          "type": "uint256"
        }
      ],
      "name": "decreaseAllowance",
      "outputs": [
        {
          "internalType": "bool",
          "name": "",
          "type": "bool"
        }
      ],
      "stateMutability": "nonpayable",
      "type": "function"
    },
    {
      "inputs": [],
      "name": "getCommissionEnabled",
      "outputs": [
        {
          "internalType": "bool",
          "name": "",
          "type": "bool"
        }
      ],
      "stateMutability": "view",
      "type": "function"
    },
    {
      "inputs": [
        {
          "internalType": "address",
          "name": "addr",
          "type": "address"
        }
      ],
      "name": "getCommissionPercentage",
      "outputs": [
        {
          "internalType": "uint256",
          "name": "",
          "type": "uint256"
        }
      ],
      "stateMutability": "view",
      "type": "function"
    },
    {
      "inputs": [
        {
          "internalType": "address",
          "name": "spender",
          "type": "address"
        },
        {
          "internalType": "uint256",
          "name": "addedValue",
          "type": "uint256"
        }
      ],
      "name": "increaseAllowance",
      "outputs": [
        {
          "internalType": "bool",
          "name": "",
          "type": "bool"
        }
      ],
      "stateMutability": "nonpayable",
      "type": "function"
    },
    {
      "inputs": [
        {
          "internalType": "string",
          "name": "name",
          "type": "string"
        },
        {
          "internalType": "string",
          "name": "symbol",
          "type": "string"
        },
        {
          "internalType": "uint256",
          "name": "maxTotalSupply",
          "type": "uint256"
        },
        {
          "internalType": "bool",
          "name": "useMaxTotalSupply",
          "type": "bool"
        },
        {
          "internalType": "address",
          "name": "owner",
          "type": "address"
        }
      ],
      "name": "initialize",
      "outputs": [],
      "stateMutability": "nonpayable",
      "type": "function"
    },
    {
      "inputs": [
        {
          "internalType": "address",
          "name": "to",
          "type": "address"
        },
        {
          "internalType": "uint256",
          "name": "amount",
          "type": "uint256"
        }
      ],
      "name": "mint",
      "outputs": [],
      "stateMutability": "nonpayable",
      "type": "function"
    },
    {
      "inputs": [],
      "name": "name",
      "outputs": [
        {
          "internalType": "string",
          "name": "",
          "type": "string"
        }
      ],
      "stateMutability": "view",
      "type": "function"
    },
    {
      "inputs": [],
      "name": "owner",
      "outputs": [
        {
          "internalType": "address",
          "name": "",
          "type": "address"
        }
      ],
      "stateMutability": "view",
      "type": "function"
    },
    {
      "inputs": [],
      "name": "pause",
      "outputs": [],
      "stateMutability": "nonpayable",
      "type": "function"
    },
    {
      "inputs": [],
      "name": "paused",
      "outputs": [
        {
          "internalType": "bool",
          "name": "",
          "type": "bool"
        }
      ],
      "stateMutability": "view",
      "type": "function"
    },
    {
      "inputs": [],
      "name": "proxiableUUID",
      "outputs": [
        {
          "internalType": "bytes32",
          "name": "",
          "type": "bytes32"
        }
      ],
      "stateMutability": "view",
      "type": "function"
    },
    {
      "inputs": [],
      "name": "renounceOwnership",
      "outputs": [],
      "stateMutability": "nonpayable",
      "type": "function"
    },
    {
      "inputs": [
        {
          "internalType": "address[]",
          "name": "addrs",
          "type": "address[]"
        },
        {
          "internalType": "uint256[]",
          "name": "percentages",
          "type": "uint256[]"
        }
      ],
      "name": "setCommissionPercentages",
      "outputs": [],
      "stateMutability": "nonpayable",
      "type": "function"
    },
    {
      "inputs": [],
      "name": "symbol",
      "outputs": [
        {
          "internalType": "string",
          "name": "",
          "type": "string"
        }
      ],
      "stateMutability": "view",
      "type": "function"
    },
    {
      "inputs": [
        {
          "internalType": "bool",
          "name": "enable",
          "type": "bool"
        }
      ],
      "name": "toggleCommission",
      "outputs": [],
      "stateMutability": "nonpayable",
      "type": "function"
    },
    {
      "inputs": [],
      "name": "totalSupply",
      "outputs": [
        {
          "internalType": "uint256",
          "name": "",
          "type": "uint256"
        }
      ],
      "stateMutability": "view",
      "type": "function"
    },
    {
      "inputs": [
        {
          "internalType": "address",
          "name": "to",
          "type": "address"
        },
        {
          "internalType": "uint256",
          "name": "amount",
          "type": "uint256"
        }
      ],
      "name": "transfer",
      "outputs": [
        {
          "internalType": "bool",
          "name": "",
          "type": "bool"
        }
      ],
      "stateMutability": "nonpayable",
      "type": "function"
    },
    {
      "inputs": [
        {
          "internalType": "address",
          "name": "from",
          "type": "address"
        },
        {
          "internalType": "address",
          "name": "to",
          "type": "address"
        },
        {
          "internalType": "uint256",
          "name": "amount",
          "type": "uint256"
        }
      ],
      "name": "transferFrom",
      "outputs": [
        {
          "internalType": "bool",
          "name": "",
          "type": "bool"
        }
      ],
      "stateMutability": "nonpayable",
      "type": "function"
    },
    {
      "inputs": [
        {
          "internalType": "address",
          "name": "newOwner",
          "type": "address"
        }
      ],
      "name": "transferOwnership",
      "outputs": [],
      "stateMutability": "nonpayable",
      "type": "function"
    },
    {
      "inputs": [],
      "name": "unpause",
      "outputs": [],
      "stateMutability": "nonpayable",
      "type": "function"
    },
    {
      "inputs": [
        {
          "internalType": "address",
          "name": "newImplementation",
          "type": "address"
        }
      ],
      "name": "upgradeTo",
      "outputs": [],
      "stateMutability": "nonpayable",
      "type": "function"
    },
    {
      "inputs": [
        {
          "internalType": "address",
          "name": "newImplementation",
          "type": "address"
        },
        {
          "internalType": "bytes",
          "name": "data",
          "type": "bytes"
        }
      ],
      "name": "upgradeToAndCall",
      "outputs": [],
      "stateMutability": "payable",
      "type": "function"
    }
  ],
  "bytecode": "0x60a0604052306080523480156200001557600080fd5b50610191805460ff191660011790556200002e62000034565b620000f5565b600054610100900460ff1615620000a15760405162461bcd60e51b815260206004820152602760248201527f496e697469616c697a61626c653a20636f6e747261637420697320696e697469604482015266616c697a696e6760c81b606482015260840160405180910390fd5b60005460ff90811614620000f3576000805460ff191660ff9081179091556040519081527f7f26b83ff96e1f2b6a682f133852f6798a09c465da95921460cefb38474024989060200160405180910390a15b565b608051612f116200012d60003960008181610d7e01528181610e0301528181610ff90152818161107e01526111640152612f116000f3fe6080604052600436106101cd5760003560e01c806352d1902d116100f75780638da5cb5b11610095578063a9059cbb11610064578063a9059cbb146104f6578063dd62ed3e14610516578063f2fde38b1461055c578063f500aa0a1461057c57600080fd5b80638da5cb5b1461048357806395d89b41146104a15780639b698275146104b6578063a457c2d7146104d657600080fd5b806370a08231116100d157806370a0823114610403578063715018a61461043957806379cc67901461044e5780638456cb591461046e57600080fd5b806352d1902d1461039e57806356df006b146103b35780635c975abb146103eb57600080fd5b80633659cfe61161016f57806340c10f191161013e57806340c10f191461033657806342966c68146103565780634591da16146103765780634f1ef2861461038b57600080fd5b80633659cfe6146102ca5780633730837c146102ea57806339509351146103015780633f4ba83a1461032157600080fd5b80632220112d116101ab5780632220112d1461024c57806323b872dd1461026e578063313ce5671461028e578063342d1867146102aa57600080fd5b806306fdde03146101d2578063095ea7b3146101fd57806318160ddd1461022d575b600080fd5b3480156101de57600080fd5b506101e761059c565b6040516101f491906127f3565b60405180910390f35b34801561020957600080fd5b5061021d61021836600461283d565b61062e565b60405190151581526020016101f4565b34801561023957600080fd5b506035545b6040519081526020016101f4565b34801561025857600080fd5b5061026c610267366004612941565b610648565b005b34801561027a57600080fd5b5061021d610289366004612a01565b610a5f565b34801561029a57600080fd5b50604051601281526020016101f4565b3480156102b657600080fd5b5061026c6102c5366004612a4d565b610d1c565b3480156102d657600080fd5b5061026c6102e5366004612a68565b610d74565b3480156102f657600080fd5b5061023e6101935481565b34801561030d57600080fd5b5061021d61031c36600461283d565b610eef565b34801561032d57600080fd5b5061026c610f2e565b34801561034257600080fd5b5061026c61035136600461283d565b610f40565b34801561036257600080fd5b5061026c610371366004612a83565b610fd0565b34801561038257600080fd5b5061021d610fda565b61026c610399366004612af4565b610fef565b3480156103aa57600080fd5b5061023e611157565b3480156103bf57600080fd5b506103d36103ce366004612a83565b61121c565b6040516001600160a01b0390911681526020016101f4565b3480156103f757600080fd5b5060975460ff1661021d565b34801561040f57600080fd5b5061023e61041e366004612a68565b6001600160a01b031660009081526033602052604090205490565b34801561044557600080fd5b5061026c611247565b34801561045a57600080fd5b5061026c61046936600461283d565b611259565b34801561047a57600080fd5b5061026c61126e565b34801561048f57600080fd5b5060fb546001600160a01b03166103d3565b3480156104ad57600080fd5b506101e7611286565b3480156104c257600080fd5b5061026c6104d1366004612b6c565b611295565b3480156104e257600080fd5b5061021d6104f136600461283d565b611457565b34801561050257600080fd5b5061021d61051136600461283d565b61150c565b34801561052257600080fd5b5061023e610531366004612bfb565b6001600160a01b03918216600090815260346020908152604080832093909416825291909152205490565b34801561056857600080fd5b5061026c610577366004612a68565b611718565b34801561058857600080fd5b5061023e610597366004612a68565b6117a5565b6060603680546105ab90612c2e565b80601f01602080910402602001604051908101604052809291908181526020018280546105d790612c2e565b80156106245780601f106105f957610100808354040283529160200191610624565b820191906000526020600020905b81548152906001019060200180831161060757829003601f168201915b5050505050905090565b60003361063c8185856117d0565b60019150505b92915050565b610650611928565b610658611982565b80518251146106ae5760405162461bcd60e51b815260206004820152601660248201527f417272617973206c656e677468206d69736d617463680000000000000000000060448201526064015b60405180910390fd5b6101925482516003916106c091612c7e565b11156107345760405162461bcd60e51b815260206004820152602e60248201527f45786365656473206d6178696d756d206e756d626572206f6620636f6d6d697360448201527f73696f6e2061646472657373657300000000000000000000000000000000000060648201526084016106a5565b6000805b82518110156107705782818151811061075357610753612c91565b6020026020010151826107669190612c7e565b9150600101610738565b5060005b610192548110156107d1576101956000610192838154811061079857610798612c91565b60009182526020808320909101546001600160a01b031683528201929092526040019020546107c79083612c7e565b9150600101610774565b5060648111156108495760405162461bcd60e51b815260206004820152602860248201527f546f74616c20636f6d6d697373696f6e2070657263656e74616765206578636560448201527f656473203130302500000000000000000000000000000000000000000000000060648201526084016106a5565b60005b8351811015610a205760006001600160a01b031684828151811061087257610872612c91565b60200260200101516001600160a01b0316036108f65760405162461bcd60e51b815260206004820152602160248201527f436f6d6d697373696f6e20616464726573732063616e6e6f74206265207a657260448201527f6f0000000000000000000000000000000000000000000000000000000000000060648201526084016106a5565b600084828151811061090a5761090a612c91565b60200260200101519050600084838151811061092857610928612c91565b6020026020010151905060648111156109835760405162461bcd60e51b815260206004820152601960248201527f50657263656e74616765206d757374206265203c3d203130300000000000000060448201526064016106a5565b6001600160a01b0382166000908152610195602052604081205490036109fd5761019280546001810182556000919091527ffcfced99f9d921eebdc59aa6f7a664084bd564a3d2d54ebc1a5c057c99c67aba01805473ffffffffffffffffffffffffffffffffffffffff19166001600160a01b0384161790555b6001600160a01b039091166000908152610195602052604090205560010161084c565b507f95e8ea5dfce8b8cae6456c2f9c4a5c9b8d05268872500067a7a195b9e2256dcb8383604051610a52929190612ca7565b60405180910390a1505050565b6000610a69611982565b610a748433846119d5565b6001600160a01b038416610aca5760405162461bcd60e51b815260206004820152601760248201527f5472616e736665722066726f6d2030206164647265737300000000000000000060448201526064016106a5565b60008211610b1a5760405162461bcd60e51b815260206004820152601d60248201527f416d6f756e74206d7573742062652067726561746572207468616e203000000060448201526064016106a5565b61019254600090819067ffffffffffffffff811115610b3b57610b3b612867565b604051908082528060200260200182016040528015610b64578160200160208202803683370190505b506101915490915060ff1615610c285760005b61019254811015610c265760006101928281548110610b9857610b98612c91565b60009182526020808320909101546001600160a01b0316808352610195909152604090912054909150606490610bce9088612d2b565b610bd89190612d42565b838381518110610bea57610bea612c91565b602002602001018181525050828281518110610c0857610c08612c91565b602002602001015184610c1b9190612c7e565b935050600101610b77565b505b83821115610c835760405162461bcd60e51b815260206004820152602260248201527f436f6d6d697373696f6e2065786365656473207472616e7366657220616d6f756044820152611b9d60f21b60648201526084016106a5565b6101915460ff1615610cfc5760005b61019254811015610cfa57610cf2876101928381548110610cb557610cb5612c91565b9060005260206000200160009054906101000a90046001600160a01b0316848481518110610ce557610ce5612c91565b6020026020010151611a67565b600101610c92565b505b610d108686610d0b8588612d64565b611a67565b50600195945050505050565b610d24611928565b610d2c611982565b610191805460ff19168215159081179091556040519081527f4d994b889ab3f885e3573cc03c143bd1e72ac3d62b93cfd86507d25b7a3541f49060200160405180910390a150565b6001600160a01b037f0000000000000000000000000000000000000000000000000000000000000000163003610e015760405162461bcd60e51b815260206004820152602c60248201527f46756e6374696f6e206d7573742062652063616c6c6564207468726f7567682060448201526b19195b1959d85d1958d85b1b60a21b60648201526084016106a5565b7f00000000000000000000000000000000000000000000000000000000000000006001600160a01b0316610e5c7f360894a13ba1a3210667c828492db98dca3e2076cc3735a920a3ca505d382bbc546001600160a01b031690565b6001600160a01b031614610ec75760405162461bcd60e51b815260206004820152602c60248201527f46756e6374696f6e206d7573742062652063616c6c6564207468726f7567682060448201526b6163746976652070726f787960a01b60648201526084016106a5565b610ed081611c66565b60408051600080825260208201909252610eec91839190611c6e565b50565b3360008181526034602090815260408083206001600160a01b038716845290915281205490919061063c9082908690610f29908790612c7e565b6117d0565b610f36611928565b610f3e611e13565b565b610f48611928565b610f50611982565b6101945460ff1615610fc2576101935481610f6a60355490565b610f749190612c7e565b1115610fc25760405162461bcd60e51b815260206004820152601c60248201527f45786365656473206d6178696d756d20746f74616c20737570706c790000000060448201526064016106a5565b610fcc8282611e65565b5050565b610eec3382611f32565b6000610fe4611982565b506101915460ff1690565b6001600160a01b037f000000000000000000000000000000000000000000000000000000000000000016300361107c5760405162461bcd60e51b815260206004820152602c60248201527f46756e6374696f6e206d7573742062652063616c6c6564207468726f7567682060448201526b19195b1959d85d1958d85b1b60a21b60648201526084016106a5565b7f00000000000000000000000000000000000000000000000000000000000000006001600160a01b03166110d77f360894a13ba1a3210667c828492db98dca3e2076cc3735a920a3ca505d382bbc546001600160a01b031690565b6001600160a01b0316146111425760405162461bcd60e51b815260206004820152602c60248201527f46756e6374696f6e206d7573742062652063616c6c6564207468726f7567682060448201526b6163746976652070726f787960a01b60648201526084016106a5565b61114b82611c66565b610fcc82826001611c6e565b6000306001600160a01b037f000000000000000000000000000000000000000000000000000000000000000016146111f75760405162461bcd60e51b815260206004820152603860248201527f555550535570677261646561626c653a206d757374206e6f742062652063616c60448201527f6c6564207468726f7567682064656c656761746563616c6c000000000000000060648201526084016106a5565b507f360894a13ba1a3210667c828492db98dca3e2076cc3735a920a3ca505d382bbc90565b610192818154811061122d57600080fd5b6000918252602090912001546001600160a01b0316905081565b61124f611928565b610f3e60006120a9565b6112648233836119d5565b610fcc8282611f32565b611276611928565b61127e611982565b610f3e612108565b6060603780546105ab90612c2e565b600054610100900460ff16158080156112b55750600054600160ff909116105b806112cf5750303b1580156112cf575060005460ff166001145b6113415760405162461bcd60e51b815260206004820152602e60248201527f496e697469616c697a61626c653a20636f6e747261637420697320616c72656160448201527f647920696e697469616c697a656400000000000000000000000000000000000060648201526084016106a5565b6000805460ff191660011790558015611364576000805461ff0019166101001790555b6001600160a01b0382166113ba5760405162461bcd60e51b815260206004820152601c60248201527f4f776e65722063616e6e6f74206265207a65726f20616464726573730000000060448201526064016106a5565b610193849055610194805484151560ff1991821617909155610191805490911660011790556113e98686612145565b6113f16121ba565b6113f9612225565b611401612298565b6114096121ba565b801561144f576000805461ff0019169055604051600181527f7f26b83ff96e1f2b6a682f133852f6798a09c465da95921460cefb38474024989060200160405180910390a15b505050505050565b3360008181526034602090815260408083206001600160a01b0387168452909152812054909190838110156114f45760405162461bcd60e51b815260206004820152602560248201527f45524332303a2064656372656173656420616c6c6f77616e63652062656c6f7760448201527f207a65726f00000000000000000000000000000000000000000000000000000060648201526084016106a5565b61150182868684036117d0565b506001949350505050565b6000611516611982565b33806115645760405162461bcd60e51b815260206004820152601760248201527f5472616e736665722066726f6d2030206164647265737300000000000000000060448201526064016106a5565b61019254600090819067ffffffffffffffff81111561158557611585612867565b6040519080825280602002602001820160405280156115ae578160200160208202803683370190505b506101915490915060ff16156116725760005b6101925481101561167057600061019282815481106115e2576115e2612c91565b60009182526020808320909101546001600160a01b03168083526101959091526040909120549091506064906116189089612d2b565b6116229190612d42565b83838151811061163457611634612c91565b60200260200101818152505082828151811061165257611652612c91565b6020026020010151846116659190612c7e565b9350506001016115c1565b505b848211156116cd5760405162461bcd60e51b815260206004820152602260248201527f436f6d6d697373696f6e2065786365656473207472616e7366657220616d6f756044820152611b9d60f21b60648201526084016106a5565b6101915460ff16156117095760005b61019254811015611707576116ff846101928381548110610cb557610cb5612c91565b6001016116dc565b505b610d108387610d0b8589612d64565b611720611928565b6001600160a01b03811661179c5760405162461bcd60e51b815260206004820152602660248201527f4f776e61626c653a206e6577206f776e657220697320746865207a65726f206160448201527f646472657373000000000000000000000000000000000000000000000000000060648201526084016106a5565b610eec816120a9565b60006117af611982565b506001600160a01b038116600090815261019560205260409020545b919050565b6001600160a01b03831661184b5760405162461bcd60e51b8152602060048201526024808201527f45524332303a20617070726f76652066726f6d20746865207a65726f2061646460448201527f726573730000000000000000000000000000000000000000000000000000000060648201526084016106a5565b6001600160a01b0382166118c75760405162461bcd60e51b815260206004820152602260248201527f45524332303a20617070726f766520746f20746865207a65726f20616464726560448201527f737300000000000000000000000000000000000000000000000000000000000060648201526084016106a5565b6001600160a01b0383811660008181526034602090815260408083209487168084529482529182902085905590518481527f8c5be1e5ebec7d5bd14f71427d1e84f3dd0314c0f7b2291e5b200ac8c7c3b925910160405180910390a3505050565b60fb546001600160a01b03163314610f3e5760405162461bcd60e51b815260206004820181905260248201527f4f776e61626c653a2063616c6c6572206973206e6f7420746865206f776e657260448201526064016106a5565b60975460ff1615610f3e5760405162461bcd60e51b815260206004820152601060248201527f5061757361626c653a207061757365640000000000000000000000000000000060448201526064016106a5565b6001600160a01b038381166000908152603460209081526040808320938616835292905220546000198114611a615781811015611a545760405162461bcd60e51b815260206004820152601d60248201527f45524332303a20696e73756666696369656e7420616c6c6f77616e636500000060448201526064016106a5565b611a6184848484036117d0565b50505050565b6001600160a01b038316611ae35760405162461bcd60e51b815260206004820152602560248201527f45524332303a207472616e736665722066726f6d20746865207a65726f20616460448201527f647265737300000000000000000000000000000000000000000000000000000060648201526084016106a5565b6001600160a01b038216611b5f5760405162461bcd60e51b815260206004820152602360248201527f45524332303a207472616e7366657220746f20746865207a65726f206164647260448201527f657373000000000000000000000000000000000000000000000000000000000060648201526084016106a5565b611b6a83838361230b565b6001600160a01b03831660009081526033602052604090205481811015611bf95760405162461bcd60e51b815260206004820152602660248201527f45524332303a207472616e7366657220616d6f756e742065786365656473206260448201527f616c616e6365000000000000000000000000000000000000000000000000000060648201526084016106a5565b6001600160a01b0380851660008181526033602052604080822086860390559286168082529083902080548601905591517fddf252ad1be2c89b69c2b068fc378daa952ba7f163c4a11628f55a4df523b3ef90611c599086815260200190565b60405180910390a3611a61565b610eec611928565b7f4910fdfa16fed3260ed0e7147f7cc6da11a60208b5b9406d12a635614ffd91435460ff1615611ca657611ca183612316565b505050565b826001600160a01b03166352d1902d6040518163ffffffff1660e01b8152600401602060405180830381865afa925050508015611d00575060408051601f3d908101601f19168201909252611cfd91810190612d77565b60015b611d725760405162461bcd60e51b815260206004820152602e60248201527f45524331393637557067726164653a206e657720696d706c656d656e7461746960448201527f6f6e206973206e6f74205555505300000000000000000000000000000000000060648201526084016106a5565b7f360894a13ba1a3210667c828492db98dca3e2076cc3735a920a3ca505d382bbc8114611e075760405162461bcd60e51b815260206004820152602960248201527f45524331393637557067726164653a20756e737570706f727465642070726f7860448201527f6961626c6555554944000000000000000000000000000000000000000000000060648201526084016106a5565b50611ca18383836123e1565b611e1b612406565b6097805460ff191690557f5db9ee0a495bf2e6ff9c91a7834c1ba4fdd244a5e8aa4e537bd38aeae4b073aa335b6040516001600160a01b03909116815260200160405180910390a1565b6001600160a01b038216611ebb5760405162461bcd60e51b815260206004820152601f60248201527f45524332303a206d696e7420746f20746865207a65726f20616464726573730060448201526064016106a5565b611ec76000838361230b565b8060356000828254611ed99190612c7e565b90915550506001600160a01b0382166000818152603360209081526040808320805486019055518481527fddf252ad1be2c89b69c2b068fc378daa952ba7f163c4a11628f55a4df523b3ef910160405180910390a35050565b6001600160a01b038216611fae5760405162461bcd60e51b815260206004820152602160248201527f45524332303a206275726e2066726f6d20746865207a65726f2061646472657360448201527f730000000000000000000000000000000000000000000000000000000000000060648201526084016106a5565b611fba8260008361230b565b6001600160a01b038216600090815260336020526040902054818110156120495760405162461bcd60e51b815260206004820152602260248201527f45524332303a206275726e20616d6f756e7420657863656564732062616c616e60448201527f636500000000000000000000000000000000000000000000000000000000000060648201526084016106a5565b6001600160a01b03831660008181526033602090815260408083208686039055603580548790039055518581529192917fddf252ad1be2c89b69c2b068fc378daa952ba7f163c4a11628f55a4df523b3ef910160405180910390a3505050565b60fb80546001600160a01b0383811673ffffffffffffffffffffffffffffffffffffffff19831681179093556040519116919082907f8be0079c531659141344cd1fd0a4f28419497f9722a3daafe3b4186f6b6457e090600090a35050565b612110611982565b6097805460ff191660011790557f62e78cea01bee320cd4e420270b5ea74000d11b0c9f74754ebdbfc544b05a258611e483390565b600054610100900460ff166121b05760405162461bcd60e51b815260206004820152602b60248201527f496e697469616c697a61626c653a20636f6e7472616374206973206e6f74206960448201526a6e697469616c697a696e6760a81b60648201526084016106a5565b610fcc8282612458565b600054610100900460ff16610f3e5760405162461bcd60e51b815260206004820152602b60248201527f496e697469616c697a61626c653a20636f6e7472616374206973206e6f74206960448201526a6e697469616c697a696e6760a81b60648201526084016106a5565b600054610100900460ff166122905760405162461bcd60e51b815260206004820152602b60248201527f496e697469616c697a61626c653a20636f6e7472616374206973206e6f74206960448201526a6e697469616c697a696e6760a81b60648201526084016106a5565b610f3e6124dc565b600054610100900460ff166123035760405162461bcd60e51b815260206004820152602b60248201527f496e697469616c697a61626c653a20636f6e7472616374206973206e6f74206960448201526a6e697469616c697a696e6760a81b60648201526084016106a5565b610f3e612553565b611ca18383836125c7565b6001600160a01b0381163b6123935760405162461bcd60e51b815260206004820152602d60248201527f455243313936373a206e657720696d706c656d656e746174696f6e206973206e60448201527f6f74206120636f6e74726163740000000000000000000000000000000000000060648201526084016106a5565b7f360894a13ba1a3210667c828492db98dca3e2076cc3735a920a3ca505d382bbc805473ffffffffffffffffffffffffffffffffffffffff19166001600160a01b0392909216919091179055565b6123ea83612640565b6000825111806123f75750805b15611ca157611a618383612680565b60975460ff16610f3e5760405162461bcd60e51b815260206004820152601460248201527f5061757361626c653a206e6f742070617573656400000000000000000000000060448201526064016106a5565b600054610100900460ff166124c35760405162461bcd60e51b815260206004820152602b60248201527f496e697469616c697a61626c653a20636f6e7472616374206973206e6f74206960448201526a6e697469616c697a696e6760a81b60648201526084016106a5565b60366124cf8382612dd8565b506037611ca18282612dd8565b600054610100900460ff166125475760405162461bcd60e51b815260206004820152602b60248201527f496e697469616c697a61626c653a20636f6e7472616374206973206e6f74206960448201526a6e697469616c697a696e6760a81b60648201526084016106a5565b6097805460ff19169055565b600054610100900460ff166125be5760405162461bcd60e51b815260206004820152602b60248201527f496e697469616c697a61626c653a20636f6e7472616374206973206e6f74206960448201526a6e697469616c697a696e6760a81b60648201526084016106a5565b610f3e336120a9565b60975460ff1615611ca15760405162461bcd60e51b815260206004820152602a60248201527f45524332305061757361626c653a20746f6b656e207472616e7366657220776860448201527f696c65207061757365640000000000000000000000000000000000000000000060648201526084016106a5565b61264981612316565b6040516001600160a01b038216907fbc7cd75a20ee27fd9adebab32041f755214dbc6bffa90cc0225b39da2e5c2d3b90600090a250565b60606126a58383604051806060016040528060278152602001612eb5602791396126ac565b9392505050565b6060600080856001600160a01b0316856040516126c99190612e98565b600060405180830381855af49150503d8060008114612704576040519150601f19603f3d011682016040523d82523d6000602084013e612709565b606091505b509150915061271a86838387612724565b9695505050505050565b6060831561279357825160000361278c576001600160a01b0385163b61278c5760405162461bcd60e51b815260206004820152601d60248201527f416464726573733a2063616c6c20746f206e6f6e2d636f6e747261637400000060448201526064016106a5565b508161279d565b61279d83836127a5565b949350505050565b8151156127b55781518083602001fd5b8060405162461bcd60e51b81526004016106a591906127f3565b60005b838110156127ea5781810151838201526020016127d2565b50506000910152565b60208152600082518060208401526128128160408501602087016127cf565b601f01601f19169190910160400192915050565b80356001600160a01b03811681146117cb57600080fd5b6000806040838503121561285057600080fd5b61285983612826565b946020939093013593505050565b634e487b7160e01b600052604160045260246000fd5b604051601f8201601f1916810167ffffffffffffffff811182821017156128a6576128a6612867565b604052919050565b600067ffffffffffffffff8211156128c8576128c8612867565b5060051b60200190565b600082601f8301126128e357600080fd5b813560206128f86128f3836128ae565b61287d565b8083825260208201915060208460051b87010193508684111561291a57600080fd5b602086015b84811015612936578035835291830191830161291f565b509695505050505050565b6000806040838503121561295457600080fd5b823567ffffffffffffffff8082111561296c57600080fd5b818501915085601f83011261298057600080fd5b813560206129906128f3836128ae565b82815260059290921b840181019181810190898411156129af57600080fd5b948201945b838610156129d4576129c586612826565b825294820194908201906129b4565b965050860135925050808211156129ea57600080fd5b506129f7858286016128d2565b9150509250929050565b600080600060608486031215612a1657600080fd5b612a1f84612826565b9250612a2d60208501612826565b9150604084013590509250925092565b803580151581146117cb57600080fd5b600060208284031215612a5f57600080fd5b6126a582612a3d565b600060208284031215612a7a57600080fd5b6126a582612826565b600060208284031215612a9557600080fd5b5035919050565b600067ffffffffffffffff831115612ab657612ab6612867565b612ac9601f8401601f191660200161287d565b9050828152838383011115612add57600080fd5b828260208301376000602084830101529392505050565b60008060408385031215612b0757600080fd5b612b1083612826565b9150602083013567ffffffffffffffff811115612b2c57600080fd5b8301601f81018513612b3d57600080fd5b6129f785823560208401612a9c565b600082601f830112612b5d57600080fd5b6126a583833560208501612a9c565b600080600080600060a08688031215612b8457600080fd5b853567ffffffffffffffff80821115612b9c57600080fd5b612ba889838a01612b4c565b96506020880135915080821115612bbe57600080fd5b50612bcb88828901612b4c565b94505060408601359250612be160608701612a3d565b9150612bef60808701612826565b90509295509295909350565b60008060408385031215612c0e57600080fd5b612c1783612826565b9150612c2560208401612826565b90509250929050565b600181811c90821680612c4257607f821691505b602082108103612c6257634e487b7160e01b600052602260045260246000fd5b50919050565b634e487b7160e01b600052601160045260246000fd5b8082018082111561064257610642612c68565b634e487b7160e01b600052603260045260246000fd5b604080825283519082018190526000906020906060840190828701845b82811015612ce95781516001600160a01b031684529284019290840190600101612cc4565b5050508381038285015284518082528583019183019060005b81811015612d1e57835183529284019291840191600101612d02565b5090979650505050505050565b808202811582820484141761064257610642612c68565b600082612d5f57634e487b7160e01b600052601260045260246000fd5b500490565b8181038181111561064257610642612c68565b600060208284031215612d8957600080fd5b5051919050565b601f821115611ca1576000816000526020600020601f850160051c81016020861015612db95750805b601f850160051c820191505b8181101561144f57828155600101612dc5565b815167ffffffffffffffff811115612df257612df2612867565b612e0681612e008454612c2e565b84612d90565b602080601f831160018114612e3b5760008415612e235750858301515b600019600386901b1c1916600185901b17855561144f565b600085815260208120601f198616915b82811015612e6a57888601518255948401946001909101908401612e4b565b5085821015612e885787850151600019600388901b60f8161c191681555b5050505050600190811b01905550565b60008251612eaa8184602087016127cf565b919091019291505056fe416464726573733a206c6f772d6c6576656c2064656c65676174652063616c6c206661696c6564a2646970667358221220baaf19c908de6b8e4d0d905a45ab9b986506c2c478923a026b9ca1e7d0ba96f064736f6c63430008180033",
  "linkReferences": {},
  "deployedLinkReferences": {}
}