{
  "_format": "hh-sol-artifact-1",
  "contractName": "ImpressoVotableAC",
  "sourceName": "contracts/ImpressoVotableAC.sol",
  "abi": [
    {
      "anonymous": false,
      "inputs": [
        {
          "indexed": false,
          "internalType": "address",
          "name": "previousAdmin",
          "type": "address"
        },
        {
          "indexed": false,
          "internalType": "address",
          "name": "newAdmin",
          "type": "address"
        }
      ],
      "name": "AdminChanged",
      "type": "event"
    },
    {
      "anonymous": false,
      "inputs": [
        {
          "indexed": true,
          "internalType": "address",
          "name": "owner",
          "type": "address"
        },
        {
          "indexed": true,
          "internalType": "address",
          "name": "spender",
          "type": "address"
        },
        {
          "indexed": false,
          "internalType": "uint256",
          "name": "value",
          "type": "uint256"
        }
      ],
      "name": "Approval",
      "type": "event"
    },
    {
      "anonymous": false,
      "inputs": [
        {
          "indexed": true,
          "internalType": "address",
          "name": "beacon",
          "type": "address"
        }
      ],
      "name": "BeaconUpgraded",
      "type": "event"
    },
    {
      "anonymous": false,
      "inputs": [
        {
          "indexed": false,
          "internalType": "address[]",
          "name": "addresses",
          "type": "address[]"
        },
        {
          "indexed": false,
          "internalType": "uint256[]",
          "name": "percentages",
          "type": "uint256[]"
        }
      ],
      "name": "CommissionPercentagesSet",
      "type": "event"
    },
    {
      "anonymous": false,
      "inputs": [
        {
          "indexed": false,
          "internalType": "bool",
          "name": "enabled",
          "type": "bool"
        }
      ],
      "name": "CommissionToggled",
      "type": "event"
    },
    {
      "anonymous": false,
      "inputs": [
        {
          "indexed": false,
          "internalType": "uint8",
          "name": "version",
          "type": "uint8"
        }
      ],
      "name": "Initialized",
      "type": "event"
    },
    {
      "anonymous": false,
      "inputs": [
        {
          "indexed": false,
          "internalType": "address",
          "name": "account",
          "type": "address"
        }
      ],
      "name": "Paused",
      "type": "event"
    },
    {
      "anonymous": false,
      "inputs": [
        {
          "indexed": true,
          "internalType": "bytes32",
          "name": "role",
          "type": "bytes32"
        },
        {
          "indexed": true,
          "internalType": "bytes32",
          "name": "previousAdminRole",
          "type": "bytes32"
        },
        {
          "indexed": true,
          "internalType": "bytes32",
          "name": "newAdminRole",
          "type": "bytes32"
        }
      ],
      "name": "RoleAdminChanged",
      "type": "event"
    },
    {
      "anonymous": false,
      "inputs": [
        {
          "indexed": true,
          "internalType": "bytes32",
          "name": "role",
          "type": "bytes32"
        },
        {
          "indexed": true,
          "internalType": "address",
          "name": "account",
          "type": "address"
        },
        {
          "indexed": true,
          "internalType": "address",
          "name": "sender",
          "type": "address"
        }
      ],
      "name": "RoleGranted",
      "type": "event"
    },
    {
      "anonymous": false,
      "inputs": [
        {
          "indexed": true,
          "internalType": "bytes32",
          "name": "role",
          "type": "bytes32"
        },
        {
          "indexed": true,
          "internalType": "address",
          "name": "account",
          "type": "address"
        },
        {
          "indexed": true,
          "internalType": "address",
          "name": "sender",
          "type": "address"
        }
      ],
      "name": "RoleRevoked",
      "type": "event"
    },
    {
      "anonymous": false,
      "inputs": [
        {
          "indexed": true,
          "internalType": "address",
          "name": "from",
          "type": "address"
        },
        {
          "indexed": true,
          "internalType": "address",
          "name": "to",
          "type": "address"
        },
        {
          "indexed": false,
          "internalType": "uint256",
          "name": "value",
          "type": "uint256"
        }
      ],
      "name": "Transfer",
      "type": "event"
    },
    {
      "anonymous": false,
      "inputs": [
        {
          "indexed": false,
          "internalType": "address",
          "name": "account",
          "type": "address"
        }
      ],
      "name": "Unpaused",
      "type": "event"
    },
    {
      "anonymous": false,
      "inputs": [
        {
          "indexed": true,
          "internalType": "address",
          "name": "implementation",
          "type": "address"
        }
      ],
      "name": "Upgraded",
      "type": "event"
    },
    {
      "anonymous": false,
      "inputs": [
        {
          "indexed": false,
          "internalType": "string",
          "name": "title",
          "type": "string"
        },
        {
          "indexed": false,
          "internalType": "address",
          "name": "voterAddress",
          "type": "address"
        }
      ],
      "name": "Vote",
      "type": "event"
    },
    {
      "anonymous": false,
      "inputs": [
        {
          "indexed": false,
          "internalType": "string",
          "name": "title",
          "type": "string"
        },
        {
          "indexed": false,
          "internalType": "enum ImpressoVotableAC.VotingAction",
          "name": "action",
          "type": "uint8"
        }
      ],
      "name": "VotingActionExecuted",
      "type": "event"
    },
    {
      "anonymous": false,
      "inputs": [
        {
          "indexed": false,
          "internalType": "string",
          "name": "title",
          "type": "string"
        }
      ],
      "name": "VotingEnded",
      "type": "event"
    },
    {
      "anonymous": false,
      "inputs": [
        {
          "indexed": false,
          "internalType": "string",
          "name": "title",
          "type": "string"
        },
        {
          "indexed": false,
          "internalType": "uint256",
          "name": "votesNeeded",
          "type": "uint256"
        }
      ],
      "name": "VotingStarted",
      "type": "event"
    },
    {
      "inputs": [],
      "name": "BURNER_ROLE",
      "outputs": [
        {
          "internalType": "bytes32",
          "name": "",
          "type": "bytes32"
        }
      ],
      "stateMutability": "view",
      "type": "function"
    },
    {
      "inputs": [],
      "name": "DEFAULT_ADMIN_ROLE",
      "outputs": [
        {
          "internalType": "bytes32",
          "name": "",
          "type": "bytes32"
        }
      ],
      "stateMutability": "view",
      "type": "function"
    },
    {
      "inputs": [],
      "name": "MINTER_ROLE",
      "outputs": [
        {
          "internalType": "bytes32",
          "name": "",
          "type": "bytes32"
        }
      ],
      "stateMutability": "view",
      "type": "function"
    },
    {
      "inputs": [],
      "name": "PAUSER_ROLE",
      "outputs": [
        {
          "internalType": "bytes32",
          "name": "",
          "type": "bytes32"
        }
      ],
      "stateMutability": "view",
      "type": "function"
    },
    {
      "inputs": [],
      "name": "UPGRADER_ROLE",
      "outputs": [
        {
          "internalType": "bytes32",
          "name": "",
          "type": "bytes32"
        }
      ],
      "stateMutability": "view",
      "type": "function"
    },
    {
      "inputs": [
        {
          "internalType": "uint256",
          "name": "",
          "type": "uint256"
        }
      ],
      "name": "_commissionAddresses",
      "outputs": [
        {
          "internalType": "address",
          "name": "",
          "type": "address"
        }
      ],
      "stateMutability": "view",
      "type": "function"
    },
    {
      "inputs": [],
      "name": "_maxTotalSupply",
      "outputs": [
        {
          "internalType": "uint256",
          "name": "",
          "type": "uint256"
        }
      ],
      "stateMutability": "view",
      "type": "function"
    },
    {
      "inputs": [
        {
          "internalType": "address",
          "name": "owner",
          "type": "address"
        },
        {
          "internalType": "address",
          "name": "spender",
          "type": "address"
        }
      ],
      "name": "allowance",
      "outputs": [
        {
          "internalType": "uint256",
          "name": "",
          "type": "uint256"
        }
      ],
      "stateMutability": "view",
      "type": "function"
    },
    {
      "inputs": [
        {
          "internalType": "address",
          "name": "spender",
          "type": "address"
        },
        {
          "internalType": "uint256",
          "name": "amount",
          "type": "uint256"
        }
      ],
      "name": "approve",
      "outputs": [
        {
          "internalType": "bool",
          "name": "",
          "type": "bool"
        }
      ],
      "stateMutability": "nonpayable",
      "type": "function"
    },
    {
      "inputs": [
        {
          "internalType": "address",
          "name": "account",
          "type": "address"
        }
      ],
      "name": "balanceOf",
      "outputs": [
        {
          "internalType": "uint256",
          "name": "",
          "type": "uint256"
        }
      ],
      "stateMutability": "view",
      "type": "function"
    },
    {
      "inputs": [
        {
          "internalType": "address",
          "name": "voter",
          "type": "address"
        }
      ],
      "name": "blacklistVoter",
      "outputs": [],
      "stateMutability": "nonpayable",
      "type": "function"
    },
    {
      "inputs": [
        {
          "internalType": "uint256",
          "name": "amount",
          "type": "uint256"
        }
      ],
      "name": "burn",
      "outputs": [],
      "stateMutability": "nonpayable",
      "type": "function"
    },
    {
      "inputs": [
        {
          "internalType": "address",
          "name": "account",
          "type": "address"
        },
        {
          "internalType": "uint256",
          "name": "amount",
          "type": "uint256"
        }
      ],
      "name": "burn",
      "outputs": [],
      "stateMutability": "nonpayable",
      "type": "function"
    },
    {
      "inputs": [
        {
          "internalType": "address",
          "name": "account",
          "type": "address"
        },
        {
          "internalType": "uint256",
          "name": "amount",
          "type": "uint256"
        }
      ],
      "name": "burnFrom",
      "outputs": [],
      "stateMutability": "nonpayable",
      "type": "function"
    },
    {
      "inputs": [
        {
          "internalType": "string",
          "name": "title",
          "type": "string"
        },
        {
          "internalType": "uint256",
          "name": "votesNeeded",
          "type": "uint256"
        },
        {
          "internalType": "enum ImpressoVotableAC.VotingAction",
          "name": "action",
          "type": "uint8"
        }
      ],
      "name": "createVoting",
      "outputs": [],
      "stateMutability": "nonpayable",
      "type": "function"
    },
    {
      "inputs": [],
      "name": "decimals",
      "outputs": [
        {
          "internalType": "uint8",
          "name": "",
          "type": "uint8"
        }
      ],
      "stateMutability": "view",
      "type": "function"
    },
    {
      "inputs": [
        {
          "internalType": "address",
          "name": "spender",
          "type": "address"
        },
        {
          "internalType": "uint256",
          "name": "subtractedValue",
          "type": "uint256"
        }
      ],
      "name": "decreaseAllowance",
      "outputs": [
        {
          "internalType": "bool",
          "name": "",
          "type": "bool"
        }
      ],
      "stateMutability": "nonpayable",
      "type": "function"
    },
    {
      "inputs": [],
      "name": "getCommissionEnabled",
      "outputs": [
        {
          "internalType": "bool",
          "name": "",
          "type": "bool"
        }
      ],
      "stateMutability": "view",
      "type": "function"
    },
    {
      "inputs": [
        {
          "internalType": "address",
          "name": "addr",
          "type": "address"
        }
      ],
      "name": "getCommissionPercentage",
      "outputs": [
        {
          "internalType": "uint256",
          "name": "",
          "type": "uint256"
        }
      ],
      "stateMutability": "view",
      "type": "function"
    },
    {
      "inputs": [
        {
          "internalType": "bytes32",
          "name": "role",
          "type": "bytes32"
        }
      ],
      "name": "getRoleAdmin",
      "outputs": [
        {
          "internalType": "bytes32",
          "name": "",
          "type": "bytes32"
        }
      ],
      "stateMutability": "view",
      "type": "function"
    },
    {
      "inputs": [
        {
          "internalType": "bytes32",
          "name": "role",
          "type": "bytes32"
        },
        {
          "internalType": "address",
          "name": "account",
          "type": "address"
        }
      ],
      "name": "grantRole",
      "outputs": [],
      "stateMutability": "nonpayable",
      "type": "function"
    },
    {
      "inputs": [
        {
          "internalType": "address",
          "name": "user",
          "type": "address"
        },
        {
          "internalType": "string",
          "name": "role",
          "type": "string"
        }
      ],
      "name": "grantRoleForAddress",
      "outputs": [],
      "stateMutability": "nonpayable",
      "type": "function"
    },
    {
      "inputs": [
        {
          "internalType": "bytes32",
          "name": "role",
          "type": "bytes32"
        },
        {
          "internalType": "address",
          "name": "account",
          "type": "address"
        }
      ],
      "name": "hasRole",
      "outputs": [
        {
          "internalType": "bool",
          "name": "",
          "type": "bool"
        }
      ],
      "stateMutability": "view",
      "type": "function"
    },
    {
      "inputs": [
        {
          "internalType": "address",
          "name": "spender",
          "type": "address"
        },
        {
          "internalType": "uint256",
          "name": "addedValue",
          "type": "uint256"
        }
      ],
      "name": "increaseAllowance",
      "outputs": [
        {
          "internalType": "bool",
          "name": "",
          "type": "bool"
        }
      ],
      "stateMutability": "nonpayable",
      "type": "function"
    },
    {
      "inputs": [
        {
          "internalType": "string",
          "name": "name",
          "type": "string"
        },
        {
          "internalType": "string",
          "name": "symbol",
          "type": "string"
        },
        {
          "internalType": "uint256",
          "name": "maxTotalSupply",
          "type": "uint256"
        },
        {
          "internalType": "bool",
          "name": "useMaxTotalSupply",
          "type": "bool"
        },
        {
          "internalType": "address",
          "name": "owner",
          "type": "address"
        }
      ],
      "name": "initialize",
      "outputs": [],
      "stateMutability": "nonpayable",
      "type": "function"
    },
    {
      "inputs": [
        {
          "internalType": "string",
          "name": "",
          "type": "string"
        }
      ],
      "name": "isVotingActive",
      "outputs": [
        {
          "internalType": "bool",
          "name": "",
          "type": "bool"
        }
      ],
      "stateMutability": "view",
      "type": "function"
    },
    {
      "inputs": [
        {
          "internalType": "address",
          "name": "to",
          "type": "address"
        },
        {
          "internalType": "uint256",
          "name": "amount",
          "type": "uint256"
        }
      ],
      "name": "mint",
      "outputs": [],
      "stateMutability": "nonpayable",
      "type": "function"
    },
    {
      "inputs": [],
      "name": "name",
      "outputs": [
        {
          "internalType": "string",
          "name": "",
          "type": "string"
        }
      ],
      "stateMutability": "view",
      "type": "function"
    },
    {
      "inputs": [],
      "name": "pause",
      "outputs": [],
      "stateMutability": "nonpayable",
      "type": "function"
    },
    {
      "inputs": [],
      "name": "paused",
      "outputs": [
        {
          "internalType": "bool",
          "name": "",
          "type": "bool"
        }
      ],
      "stateMutability": "view",
      "type": "function"
    },
    {
      "inputs": [],
      "name": "proxiableUUID",
      "outputs": [
        {
          "internalType": "bytes32",
          "name": "",
          "type": "bytes32"
        }
      ],
      "stateMutability": "view",
      "type": "function"
    },
    {
      "inputs": [
        {
          "internalType": "bytes32",
          "name": "role",
          "type": "bytes32"
        },
        {
          "internalType": "address",
          "name": "account",
          "type": "address"
        }
      ],
      "name": "renounceRole",
      "outputs": [],
      "stateMutability": "nonpayable",
      "type": "function"
    },
    {
      "inputs": [
        {
          "internalType": "bytes32",
          "name": "role",
          "type": "bytes32"
        },
        {
          "internalType": "address",
          "name": "account",
          "type": "address"
        }
      ],
      "name": "revokeRole",
      "outputs": [],
      "stateMutability": "nonpayable",
      "type": "function"
    },
    {
      "inputs": [
        {
          "internalType": "address[]",
          "name": "addrs",
          "type": "address[]"
        },
        {
          "internalType": "uint256[]",
          "name": "percentages",
          "type": "uint256[]"
        }
      ],
      "name": "setCommissionPercentages",
      "outputs": [],
      "stateMutability": "nonpayable",
      "type": "function"
    },
    {
      "inputs": [
        {
          "internalType": "bytes4",
          "name": "interfaceId",
          "type": "bytes4"
        }
      ],
      "name": "supportsInterface",
      "outputs": [
        {
          "internalType": "bool",
          "name": "",
          "type": "bool"
        }
      ],
      "stateMutability": "view",
      "type": "function"
    },
    {
      "inputs": [],
      "name": "symbol",
      "outputs": [
        {
          "internalType": "string",
          "name": "",
          "type": "string"
        }
      ],
      "stateMutability": "view",
      "type": "function"
    },
    {
      "inputs": [
        {
          "internalType": "bool",
          "name": "enable",
          "type": "bool"
        }
      ],
      "name": "toggleCommission",
      "outputs": [],
      "stateMutability": "nonpayable",
      "type": "function"
    },
    {
      "inputs": [],
      "name": "totalSupply",
      "outputs": [
        {
          "internalType": "uint256",
          "name": "",
          "type": "uint256"
        }
      ],
      "stateMutability": "view",
      "type": "function"
    },
    {
      "inputs": [
        {
          "internalType": "string",
          "name": "",
          "type": "string"
        }
      ],
      "name": "totalVotes",
      "outputs": [
        {
          "internalType": "uint256",
          "name": "",
          "type": "uint256"
        }
      ],
      "stateMutability": "view",
      "type": "function"
    },
    {
      "inputs": [
        {
          "internalType": "address",
          "name": "to",
          "type": "address"
        },
        {
          "internalType": "uint256",
          "name": "amount",
          "type": "uint256"
        }
      ],
      "name": "transfer",
      "outputs": [
        {
          "internalType": "bool",
          "name": "",
          "type": "bool"
        }
      ],
      "stateMutability": "nonpayable",
      "type": "function"
    },
    {
      "inputs": [
        {
          "internalType": "address",
          "name": "from",
          "type": "address"
        },
        {
          "internalType": "address",
          "name": "to",
          "type": "address"
        },
        {
          "internalType": "uint256",
          "name": "amount",
          "type": "uint256"
        }
      ],
      "name": "transferFrom",
      "outputs": [
        {
          "internalType": "bool",
          "name": "",
          "type": "bool"
        }
      ],
      "stateMutability": "nonpayable",
      "type": "function"
    },
    {
      "inputs": [],
      "name": "unpause",
      "outputs": [],
      "stateMutability": "nonpayable",
      "type": "function"
    },
    {
      "inputs": [
        {
          "internalType": "address",
          "name": "newImplementation",
          "type": "address"
        }
      ],
      "name": "upgradeTo",
      "outputs": [],
      "stateMutability": "nonpayable",
      "type": "function"
    },
    {
      "inputs": [
        {
          "internalType": "address",
          "name": "newImplementation",
          "type": "address"
        },
        {
          "internalType": "bytes",
          "name": "data",
          "type": "bytes"
        }
      ],
      "name": "upgradeToAndCall",
      "outputs": [],
      "stateMutability": "payable",
      "type": "function"
    },
    {
      "inputs": [
        {
          "internalType": "string",
          "name": "votingTitle",
          "type": "string"
        }
      ],
      "name": "vote",
      "outputs": [],
      "stateMutability": "nonpayable",
      "type": "function"
    },
    {
      "inputs": [
        {
          "internalType": "string",
          "name": "",
          "type": "string"
        }
      ],
      "name": "votesCountNeeded",
      "outputs": [
        {
          "internalType": "uint256",
          "name": "",
          "type": "uint256"
        }
      ],
      "stateMutability": "view",
      "type": "function"
    },
    {
      "inputs": [
        {
          "internalType": "string",
          "name": "",
          "type": "string"
        }
      ],
      "name": "votingActions",
      "outputs": [
        {
          "internalType": "enum ImpressoVotableAC.VotingAction",
          "name": "",
          "type": "uint8"
        }
      ],
      "stateMutability": "view",
      "type": "function"
    },
    {
      "inputs": [
        {
          "internalType": "string",
          "name": "",
          "type": "string"
        },
        {
          "internalType": "address",
          "name": "",
          "type": "address"
        }
      ],
      "name": "votings",
      "outputs": [
        {
          "internalType": "bool",
          "name": "",
          "type": "bool"
        }
      ],
      "stateMutability": "view",
      "type": "function"
    }
  ],
  "bytecode": "0x60a0604052306080523480156200001557600080fd5b506101c3805460ff191660011790556200002e62000034565b620000f5565b600054610100900460ff1615620000a15760405162461bcd60e51b815260206004820152602760248201527f496e697469616c697a61626c653a20636f6e747261637420697320696e697469604482015266616c697a696e6760c81b606482015260840160405180910390fd5b60005460ff90811614620000f3576000805460ff191660ff9081179091556040519081527f7f26b83ff96e1f2b6a682f133852f6798a09c465da95921460cefb38474024989060200160405180910390a15b565b6080516142266200012d60003960008181611544015281816115c9015281816117fd01528181611882015261196801526142266000f3fe6080604052600436106103135760003560e01c806352d1902d1161019a5780639b698275116100e1578063d547741f1161008a578063f500aa0a11610064578063f500aa0a146109d7578063f72c0d8b146109f7578063fc36e15b14610a2b57600080fd5b8063d547741f1461093d578063dd62ed3e1461095d578063e63ab1e9146109a357600080fd5b8063a457c2d7116100bb578063a457c2d7146108c9578063a9059cbb146108e9578063d53913931461090957600080fd5b80639b698275146108745780639dc29fac14610894578063a217fddf146108b457600080fd5b806375dee998116101435780638b97dbad1161011d5780638b97dbad146107cf57806391d148541461081857806395d89b411461085f57600080fd5b806375dee9981461077a57806379cc67901461079a5780638456cb59146107ba57600080fd5b80635c975abb116101745780635c975abb1461070c57806360621e8a1461072457806370a082311461074457600080fd5b806352d1902d1461068657806356df006b1461069b5780635900f8f8146106d357600080fd5b806330be5f081161025e578063395093511161020757806342966c68116101e157806342966c681461063e5780634591da161461065e5780634f1ef2861461067357600080fd5b806339509351146105e95780633f4ba83a1461060957806340c10f191461061e57600080fd5b806336568abe1161023857806336568abe146105925780633659cfe6146105b25780633730837c146105d257600080fd5b806330be5f0814610536578063313ce56714610556578063342d18671461057257600080fd5b80631df1a88a116102c0578063248a9ca31161029a578063248a9ca3146104b1578063282c51f3146104e25780632f2ff15d1461051657600080fd5b80631df1a88a146104365780632220112d1461046f57806323b872dd1461049157600080fd5b8063095ea7b3116102f1578063095ea7b3146103ab5780631635f9cf146103cb57806318160ddd1461041757600080fd5b806301ffc9a71461031857806304574fe81461034d57806306fdde0314610389575b600080fd5b34801561032457600080fd5b50610338610333366004613809565b610a4b565b60405190151581526020015b60405180910390f35b34801561035957600080fd5b5061033861036836600461390a565b80516020818301810180516101cb8252928201919093012091525460ff1681565b34801561039557600080fd5b5061039e610ae4565b604051610344919061398f565b3480156103b757600080fd5b506103386103c63660046139b9565b610b76565b3480156103d757600080fd5b506103386103e63660046139e3565b81516020818401810180516101c9825292820194820194909420919093529091526000908152604090205460ff1681565b34801561042357600080fd5b506035545b604051908152602001610344565b34801561044257600080fd5b5061042861045136600461390a565b80516020818301810180516101cc8252928201919093012091525481565b34801561047b57600080fd5b5061048f61048a366004613ac4565b610b8e565b005b34801561049d57600080fd5b506103386104ac366004613b84565b610fa9565b3480156104bd57600080fd5b506104286104cc366004613bc0565b600090815261012d602052604090206001015490565b3480156104ee57600080fd5b506104287f3c11d16cbaffd01df69ce1c404f6340ee057498f5f00246190ea54220576a84881565b34801561052257600080fd5b5061048f610531366004613bd9565b611268565b34801561054257600080fd5b5061048f610551366004613bfc565b611293565b34801561056257600080fd5b5060405160128152602001610344565b34801561057e57600080fd5b5061048f61058d366004613c6b565b611451565b34801561059e57600080fd5b5061048f6105ad366004613bd9565b6114ae565b3480156105be57600080fd5b5061048f6105cd366004613c86565b61153a565b3480156105de57600080fd5b506104286101c55481565b3480156105f557600080fd5b506103386106043660046139b9565b6116b5565b34801561061557600080fd5b5061048f6116f4565b34801561062a57600080fd5b5061048f6106393660046139b9565b611726565b34801561064a57600080fd5b5061048f610659366004613bc0565b6117d4565b34801561066a57600080fd5b506103386117de565b61048f610681366004613ca1565b6117f3565b34801561069257600080fd5b5061042861195b565b3480156106a757600080fd5b506106bb6106b6366004613bc0565b611a20565b6040516001600160a01b039091168152602001610344565b3480156106df57600080fd5b506104286106ee36600461390a565b80516020818301810180516101ca8252928201919093012091525481565b34801561071857600080fd5b5060975460ff16610338565b34801561073057600080fd5b5061048f61073f366004613cf9565b611a4b565b34801561075057600080fd5b5061042861075f366004613c86565b6001600160a01b031660009081526033602052604090205490565b34801561078657600080fd5b5061048f610795366004613c86565b611b86565b3480156107a657600080fd5b5061048f6107b53660046139b9565b611bbf565b3480156107c657600080fd5b5061048f611bd4565b3480156107db57600080fd5b5061080b6107ea36600461390a565b80516020818301810180516101cd8252928201919093012091525460ff1681565b6040516103449190613d75565b34801561082457600080fd5b50610338610833366004613bd9565b600091825261012d602090815260408084206001600160a01b0393909316845291905290205460ff1690565b34801561086b57600080fd5b5061039e611c0e565b34801561088057600080fd5b5061048f61088f366004613d83565b611c1d565b3480156108a057600080fd5b5061048f6108af3660046139b9565b611e92565b3480156108c057600080fd5b50610428600081565b3480156108d557600080fd5b506103386108e43660046139b9565b611ece565b3480156108f557600080fd5b506103386109043660046139b9565b611f83565b34801561091557600080fd5b506104287f9f2df0fed2c77648de5860a4cc508cd0818c85b8b8a1ab4ceeef8d981c8956a681565b34801561094957600080fd5b5061048f610958366004613bd9565b61219b565b34801561096957600080fd5b50610428610978366004613e12565b6001600160a01b03918216600090815260346020908152604080832093909416825291909152205490565b3480156109af57600080fd5b506104287f65d7a28e3265b37a6474929f336521b332c1681b933f6cb9f3376673440d862a81565b3480156109e357600080fd5b506104286109f2366004613c86565b6121c1565b348015610a0357600080fd5b506104287f189ab7a9244df0848122154315af71fe140f3db0fe014031783b0946b8c9d2e381565b348015610a3757600080fd5b5061048f610a4636600461390a565b6121ec565b60007fffffffff0000000000000000000000000000000000000000000000000000000082167f7965db0b000000000000000000000000000000000000000000000000000000001480610ade57507f01ffc9a7000000000000000000000000000000000000000000000000000000007fffffffff000000000000000000000000000000000000000000000000000000008316145b92915050565b606060368054610af390613e3c565b80601f0160208091040260200160405190810160405280929190818152602001828054610b1f90613e3c565b8015610b6c5780601f10610b4157610100808354040283529160200191610b6c565b820191906000526020600020905b815481529060010190602001808311610b4f57829003601f168201915b5050505050905090565b600033610b848185856124ec565b5060019392505050565b6000610b9981612644565b610ba161264e565b8151835114610bf75760405162461bcd60e51b815260206004820152601660248201527f417272617973206c656e677468206d69736d617463680000000000000000000060448201526064015b60405180910390fd5b6101c4548351600391610c0991613e8c565b1115610c7d5760405162461bcd60e51b815260206004820152602e60248201527f45786365656473206d6178696d756d206e756d626572206f6620636f6d6d697360448201527f73696f6e206164647265737365730000000000000000000000000000000000006064820152608401610bee565b6000805b8351811015610cb957838181518110610c9c57610c9c613e9f565b602002602001015182610caf9190613e8c565b9150600101610c81565b5060005b6101c454811015610d1a576101c760006101c48381548110610ce157610ce1613e9f565b60009182526020808320909101546001600160a01b03168352820192909252604001902054610d109083613e8c565b9150600101610cbd565b506064811115610d925760405162461bcd60e51b815260206004820152602860248201527f546f74616c20636f6d6d697373696f6e2070657263656e74616765206578636560448201527f65647320313030250000000000000000000000000000000000000000000000006064820152608401610bee565b60005b8451811015610f695760006001600160a01b0316858281518110610dbb57610dbb613e9f565b60200260200101516001600160a01b031603610e3f5760405162461bcd60e51b815260206004820152602160248201527f436f6d6d697373696f6e20616464726573732063616e6e6f74206265207a657260448201527f6f000000000000000000000000000000000000000000000000000000000000006064820152608401610bee565b6000858281518110610e5357610e53613e9f565b602002602001015190506000858381518110610e7157610e71613e9f565b602002602001015190506064811115610ecc5760405162461bcd60e51b815260206004820152601960248201527f50657263656e74616765206d757374206265203c3d20313030000000000000006044820152606401610bee565b6001600160a01b03821660009081526101c760205260408120549003610f46576101c480546001810182556000919091527f5ac35dca7c3a7d5ae9d0add1efdc4aa02e10dd5cac0b90d2122cf0f0cc68317f01805473ffffffffffffffffffffffffffffffffffffffff19166001600160a01b0384161790555b6001600160a01b0390911660009081526101c76020526040902055600101610d95565b507f95e8ea5dfce8b8cae6456c2f9c4a5c9b8d05268872500067a7a195b9e2256dcb8484604051610f9b929190613eb5565b60405180910390a150505050565b6000610fb361264e565b610fbe8433846126a3565b6001600160a01b0384166110145760405162461bcd60e51b815260206004820152601760248201527f5472616e736665722066726f6d203020616464726573730000000000000000006044820152606401610bee565b600082116110645760405162461bcd60e51b815260206004820152601d60248201527f416d6f756e74206d7573742062652067726561746572207468616e20300000006044820152606401610bee565b6101c454600090819067ffffffffffffffff8111156110855761108561384b565b6040519080825280602002602001820160405280156110ae578160200160208202803683370190505b506101c35490915060ff16156111725760005b6101c4548110156111705760006101c482815481106110e2576110e2613e9f565b60009182526020808320909101546001600160a01b03168083526101c79091526040909120549091506064906111189088613f39565b6111229190613f50565b83838151811061113457611134613e9f565b60200260200101818152505082828151811061115257611152613e9f565b6020026020010151846111659190613e8c565b9350506001016110c1565b505b838211156111cd5760405162461bcd60e51b815260206004820152602260248201527f436f6d6d697373696f6e2065786365656473207472616e7366657220616d6f756044820152611b9d60f21b6064820152608401610bee565b6101c35460ff16156112465760005b6101c4548110156112445761123c876101c483815481106111ff576111ff613e9f565b9060005260206000200160009054906101000a90046001600160a01b031684848151811061122f5761122f613e9f565b602002602001015161272f565b6001016111dc565b505b61125a86866112558588613f72565b61272f565b6001925050505b9392505050565b600082815261012d602052604090206001015461128481612644565b61128e838361292e565b505050565b600061129e81612644565b6112a661264e565b600083116112f65760405162461bcd60e51b815260206004820152601760248201527f766f7465734e6565646564206d757374206265203e20300000000000000000006044820152606401610bee565b6101cc846040516113079190613f85565b90815260200160405180910390205460001461138b5760405162461bcd60e51b815260206004820152602560248201527f566f74696e6720776974682074686973207469746c6520616c7265616479206560448201527f78697374730000000000000000000000000000000000000000000000000000006064820152608401610bee565b816101cd8560405161139d9190613f85565b908152604051908190036020019020805460ff191660018360038111156113c6576113c6613d3d565b0217905550826101cc856040516113dd9190613f85565b90815260200160405180910390208190555060016101cb856040516114029190613f85565b908152604051908190036020018120805492151560ff19909316929092179091557e974e7a9f2acf0f113201dd02a3c9904153c5c7f5a5b71959eb47bb505f9b8c90610f9b9086908690613fa1565b600061145c81612644565b61146461264e565b6101c3805460ff19168315159081179091556040519081527f4d994b889ab3f885e3573cc03c143bd1e72ac3d62b93cfd86507d25b7a3541f4906020015b60405180910390a15050565b6001600160a01b038116331461152c5760405162461bcd60e51b815260206004820152602f60248201527f416363657373436f6e74726f6c3a2063616e206f6e6c792072656e6f756e636560448201527f20726f6c657320666f722073656c6600000000000000000000000000000000006064820152608401610bee565b61153682826129d2565b5050565b6001600160a01b037f00000000000000000000000000000000000000000000000000000000000000001630036115c75760405162461bcd60e51b815260206004820152602c60248201527f46756e6374696f6e206d7573742062652063616c6c6564207468726f7567682060448201526b19195b1959d85d1958d85b1b60a21b6064820152608401610bee565b7f00000000000000000000000000000000000000000000000000000000000000006001600160a01b03166116227f360894a13ba1a3210667c828492db98dca3e2076cc3735a920a3ca505d382bbc546001600160a01b031690565b6001600160a01b03161461168d5760405162461bcd60e51b815260206004820152602c60248201527f46756e6374696f6e206d7573742062652063616c6c6564207468726f7567682060448201526b6163746976652070726f787960a01b6064820152608401610bee565b61169681612a57565b604080516000808252602082019092526116b291839190612a81565b50565b3360008181526034602090815260408083206001600160a01b0387168452909152812054909190610b8490829086906116ef908790613e8c565b6124ec565b7f65d7a28e3265b37a6474929f336521b332c1681b933f6cb9f3376673440d862a61171e81612644565b6116b2612c21565b7f9f2df0fed2c77648de5860a4cc508cd0818c85b8b8a1ab4ceeef8d981c8956a661175081612644565b61175861264e565b6101c65460ff16156117ca576101c5548261177260355490565b61177c9190613e8c565b11156117ca5760405162461bcd60e51b815260206004820152601c60248201527f45786365656473206d6178696d756d20746f74616c20737570706c79000000006044820152606401610bee565b61128e8383612c73565b6116b23382612d40565b60006117e861264e565b506101c35460ff1690565b6001600160a01b037f00000000000000000000000000000000000000000000000000000000000000001630036118805760405162461bcd60e51b815260206004820152602c60248201527f46756e6374696f6e206d7573742062652063616c6c6564207468726f7567682060448201526b19195b1959d85d1958d85b1b60a21b6064820152608401610bee565b7f00000000000000000000000000000000000000000000000000000000000000006001600160a01b03166118db7f360894a13ba1a3210667c828492db98dca3e2076cc3735a920a3ca505d382bbc546001600160a01b031690565b6001600160a01b0316146119465760405162461bcd60e51b815260206004820152602c60248201527f46756e6374696f6e206d7573742062652063616c6c6564207468726f7567682060448201526b6163746976652070726f787960a01b6064820152608401610bee565b61194f82612a57565b61153682826001612a81565b6000306001600160a01b037f000000000000000000000000000000000000000000000000000000000000000016146119fb5760405162461bcd60e51b815260206004820152603860248201527f555550535570677261646561626c653a206d757374206e6f742062652063616c60448201527f6c6564207468726f7567682064656c656761746563616c6c00000000000000006064820152608401610bee565b507f360894a13ba1a3210667c828492db98dca3e2076cc3735a920a3ca505d382bbc90565b6101c48181548110611a3157600080fd5b6000918252602090912001546001600160a01b0316905081565b6000611a5681612644565b611a5e61264e565b600082604051602001611a719190613f85565b6040516020818303038152906040528051906020012090507f3c11d16cbaffd01df69ce1c404f6340ee057498f5f00246190ea54220576a848811480611ad657507f65d7a28e3265b37a6474929f336521b332c1681b933f6cb9f3376673440d862a81145b80611b0057507f9f2df0fed2c77648de5860a4cc508cd0818c85b8b8a1ab4ceeef8d981c8956a681145b80611b2a57507f189ab7a9244df0848122154315af71fe140f3db0fe014031783b0946b8c9d2e381145b611b765760405162461bcd60e51b815260206004820152600c60248201527f496e76616c696420726f6c6500000000000000000000000000000000000000006044820152606401610bee565b611b80818561292e565b50505050565b6000611b9181612644565b611b9961264e565b506001600160a01b031660009081526101c860205260409020805460ff19166001179055565b611bca8233836126a3565b6115368282612d40565b7f65d7a28e3265b37a6474929f336521b332c1681b933f6cb9f3376673440d862a611bfe81612644565b611c0661264e565b6116b2612eb7565b606060378054610af390613e3c565b600054610100900460ff1615808015611c3d5750600054600160ff909116105b80611c575750303b158015611c57575060005460ff166001145b611cc95760405162461bcd60e51b815260206004820152602e60248201527f496e697469616c697a61626c653a20636f6e747261637420697320616c72656160448201527f647920696e697469616c697a65640000000000000000000000000000000000006064820152608401610bee565b6000805460ff191660011790558015611cec576000805461ff0019166101001790555b6001600160a01b038216611d425760405162461bcd60e51b815260206004820152601c60248201527f4f776e65722063616e6e6f74206265207a65726f2061646472657373000000006044820152606401610bee565b6101c58490556101c6805484151560ff19918216179091556101c380549091166001179055611d718686612ef4565b611d79612f69565b611d81612fd4565b611d89612f69565b611d91612f69565b611d9c60008361292e565b611dc67f65d7a28e3265b37a6474929f336521b332c1681b933f6cb9f3376673440d862a8361292e565b611df07f9f2df0fed2c77648de5860a4cc508cd0818c85b8b8a1ab4ceeef8d981c8956a68361292e565b611e1a7f189ab7a9244df0848122154315af71fe140f3db0fe014031783b0946b8c9d2e38361292e565b611e447f3c11d16cbaffd01df69ce1c404f6340ee057498f5f00246190ea54220576a8488361292e565b8015611e8a576000805461ff0019169055604051600181527f7f26b83ff96e1f2b6a682f133852f6798a09c465da95921460cefb38474024989060200160405180910390a15b505050505050565b7f3c11d16cbaffd01df69ce1c404f6340ee057498f5f00246190ea54220576a848611ebc81612644565b611ec461264e565b61128e8383612d40565b3360008181526034602090815260408083206001600160a01b038716845290915281205490919083811015611f6b5760405162461bcd60e51b815260206004820152602560248201527f45524332303a2064656372656173656420616c6c6f77616e63652062656c6f7760448201527f207a65726f0000000000000000000000000000000000000000000000000000006064820152608401610bee565b611f7882868684036124ec565b506001949350505050565b6000611f8d61264e565b3380611fdb5760405162461bcd60e51b815260206004820152601760248201527f5472616e736665722066726f6d203020616464726573730000000000000000006044820152606401610bee565b6101c454600090819067ffffffffffffffff811115611ffc57611ffc61384b565b604051908082528060200260200182016040528015612025578160200160208202803683370190505b506101c35490915060ff16156120e95760005b6101c4548110156120e75760006101c4828154811061205957612059613e9f565b60009182526020808320909101546001600160a01b03168083526101c790915260409091205490915060649061208f9089613f39565b6120999190613f50565b8383815181106120ab576120ab613e9f565b6020026020010181815250508282815181106120c9576120c9613e9f565b6020026020010151846120dc9190613e8c565b935050600101612038565b505b848211156121445760405162461bcd60e51b815260206004820152602260248201527f436f6d6d697373696f6e2065786365656473207472616e7366657220616d6f756044820152611b9d60f21b6064820152608401610bee565b6101c35460ff16156121805760005b6101c45481101561217e57612176846101c483815481106111ff576111ff613e9f565b600101612153565b505b61218f83876112558589613f72565b50600195945050505050565b600082815261012d60205260409020600101546121b781612644565b61128e83836129d2565b60006121cb61264e565b506001600160a01b03811660009081526101c760205260409020545b919050565b6121f461264e565b60008151116122455760405162461bcd60e51b815260206004820152601260248201527f456d70747920766f74696e67207469746c6500000000000000000000000000006044820152606401610bee565b6101cb816040516122569190613f85565b9081526040519081900360200190205460ff166122b55760405162461bcd60e51b815260206004820152601a60248201527f566f74696e6720656e646564206f72206e6f74206578697374730000000000006044820152606401610bee565b3360009081526101c8602052604090205460ff16156123165760405162461bcd60e51b815260206004820152601360248201527f4e6f7420616c6c6f77656420746f20766f7465000000000000000000000000006044820152606401610bee565b6101c9816040516123279190613f85565b9081526040805160209281900383019020336000908152925290205460ff16156123935760405162461bcd60e51b815260206004820152600d60248201527f416c726561647920766f746564000000000000000000000000000000000000006044820152606401610bee565b60016101c9826040516123a69190613f85565b90815260408051602092819003830181203360009081529352908220805460ff191693151593909317909255906101ca906123e2908490613f85565b90815260200160405180910390205460016123fd9190613e8c565b9050806101ca836040516124119190613f85565b9081526020016040518091039020819055507f6df8a0bf3c87bd629e9f543b9d0831beeea8b80de3f478dd846541ed8d97405b8233604051612454929190613fc3565b60405180910390a16101cc8260405161246d9190613f85565b90815260200160405180910390205481101580156124ab57506101cb826040516124979190613f85565b9081526040519081900360200190205460ff165b156115365760006101cb836040516124c39190613f85565b908152604051908190036020019020805491151560ff1990921691909117905561153682613047565b6001600160a01b0383166125675760405162461bcd60e51b8152602060048201526024808201527f45524332303a20617070726f76652066726f6d20746865207a65726f2061646460448201527f72657373000000000000000000000000000000000000000000000000000000006064820152608401610bee565b6001600160a01b0382166125e35760405162461bcd60e51b815260206004820152602260248201527f45524332303a20617070726f766520746f20746865207a65726f20616464726560448201527f73730000000000000000000000000000000000000000000000000000000000006064820152608401610bee565b6001600160a01b0383811660008181526034602090815260408083209487168084529482529182902085905590518481527f8c5be1e5ebec7d5bd14f71427d1e84f3dd0314c0f7b2291e5b200ac8c7c3b925910160405180910390a3505050565b6116b281336130f0565b60975460ff16156126a15760405162461bcd60e51b815260206004820152601060248201527f5061757361626c653a20706175736564000000000000000000000000000000006044820152606401610bee565b565b6001600160a01b038381166000908152603460209081526040808320938616835292905220546000198114611b8057818110156127225760405162461bcd60e51b815260206004820152601d60248201527f45524332303a20696e73756666696369656e7420616c6c6f77616e63650000006044820152606401610bee565b611b8084848484036124ec565b6001600160a01b0383166127ab5760405162461bcd60e51b815260206004820152602560248201527f45524332303a207472616e736665722066726f6d20746865207a65726f20616460448201527f64726573730000000000000000000000000000000000000000000000000000006064820152608401610bee565b6001600160a01b0382166128275760405162461bcd60e51b815260206004820152602360248201527f45524332303a207472616e7366657220746f20746865207a65726f206164647260448201527f65737300000000000000000000000000000000000000000000000000000000006064820152608401610bee565b612832838383613166565b6001600160a01b038316600090815260336020526040902054818110156128c15760405162461bcd60e51b815260206004820152602660248201527f45524332303a207472616e7366657220616d6f756e742065786365656473206260448201527f616c616e636500000000000000000000000000000000000000000000000000006064820152608401610bee565b6001600160a01b0380851660008181526033602052604080822086860390559286168082529083902080548601905591517fddf252ad1be2c89b69c2b068fc378daa952ba7f163c4a11628f55a4df523b3ef906129219086815260200190565b60405180910390a3611b80565b600082815261012d602090815260408083206001600160a01b038516845290915290205460ff1661153657600082815261012d602090815260408083206001600160a01b03851684529091529020805460ff1916600117905561298e3390565b6001600160a01b0316816001600160a01b0316837f2f8788117e7eff1d82e926ec794901d17c78024a50270940304540a733656f0d60405160405180910390a45050565b600082815261012d602090815260408083206001600160a01b038516845290915290205460ff161561153657600082815261012d602090815260408083206001600160a01b0385168085529252808320805460ff1916905551339285917ff6391f5c32d9c69d2a47ea670b442974b53935d1edc7fd64eb21e047a839171b9190a45050565b7f189ab7a9244df0848122154315af71fe140f3db0fe014031783b0946b8c9d2e361153681612644565b7f4910fdfa16fed3260ed0e7147f7cc6da11a60208b5b9406d12a635614ffd91435460ff1615612ab45761128e83613171565b826001600160a01b03166352d1902d6040518163ffffffff1660e01b8152600401602060405180830381865afa925050508015612b0e575060408051601f3d908101601f19168201909252612b0b91810190613fee565b60015b612b805760405162461bcd60e51b815260206004820152602e60248201527f45524331393637557067726164653a206e657720696d706c656d656e7461746960448201527f6f6e206973206e6f7420555550530000000000000000000000000000000000006064820152608401610bee565b7f360894a13ba1a3210667c828492db98dca3e2076cc3735a920a3ca505d382bbc8114612c155760405162461bcd60e51b815260206004820152602960248201527f45524331393637557067726164653a20756e737570706f727465642070726f7860448201527f6961626c655555494400000000000000000000000000000000000000000000006064820152608401610bee565b5061128e83838361323c565b612c29613261565b6097805460ff191690557f5db9ee0a495bf2e6ff9c91a7834c1ba4fdd244a5e8aa4e537bd38aeae4b073aa335b6040516001600160a01b03909116815260200160405180910390a1565b6001600160a01b038216612cc95760405162461bcd60e51b815260206004820152601f60248201527f45524332303a206d696e7420746f20746865207a65726f2061646472657373006044820152606401610bee565b612cd560008383613166565b8060356000828254612ce79190613e8c565b90915550506001600160a01b0382166000818152603360209081526040808320805486019055518481527fddf252ad1be2c89b69c2b068fc378daa952ba7f163c4a11628f55a4df523b3ef910160405180910390a35050565b6001600160a01b038216612dbc5760405162461bcd60e51b815260206004820152602160248201527f45524332303a206275726e2066726f6d20746865207a65726f2061646472657360448201527f73000000000000000000000000000000000000000000000000000000000000006064820152608401610bee565b612dc882600083613166565b6001600160a01b03821660009081526033602052604090205481811015612e575760405162461bcd60e51b815260206004820152602260248201527f45524332303a206275726e20616d6f756e7420657863656564732062616c616e60448201527f63650000000000000000000000000000000000000000000000000000000000006064820152608401610bee565b6001600160a01b03831660008181526033602090815260408083208686039055603580548790039055518581529192917fddf252ad1be2c89b69c2b068fc378daa952ba7f163c4a11628f55a4df523b3ef910160405180910390a3505050565b612ebf61264e565b6097805460ff191660011790557f62e78cea01bee320cd4e420270b5ea74000d11b0c9f74754ebdbfc544b05a258612c563390565b600054610100900460ff16612f5f5760405162461bcd60e51b815260206004820152602b60248201527f496e697469616c697a61626c653a20636f6e7472616374206973206e6f74206960448201526a6e697469616c697a696e6760a81b6064820152608401610bee565b61153682826132b3565b600054610100900460ff166126a15760405162461bcd60e51b815260206004820152602b60248201527f496e697469616c697a61626c653a20636f6e7472616374206973206e6f74206960448201526a6e697469616c697a696e6760a81b6064820152608401610bee565b600054610100900460ff1661303f5760405162461bcd60e51b815260206004820152602b60248201527f496e697469616c697a61626c653a20636f6e7472616374206973206e6f74206960448201526a6e697469616c697a696e6760a81b6064820152608401610bee565b6126a1613337565b60006101cd8260405161305a9190613f85565b9081526040519081900360200190205460ff169050600181600381111561308357613083613d3d565b0361309557613090612eb7565b6130b6565b60028160038111156130a9576130a9613d3d565b036130b6576130b6612c21565b6130bf826133ae565b7f870bd6c9e730a8bf0afe9ff73b776dd00fd2945417f1cef9fe0e074c603a5c3982826040516114a2929190614007565b600082815261012d602090815260408083206001600160a01b038516845290915290205460ff16611536576131248161341a565b61312f83602061342c565b604051602001613140929190614029565b60408051601f198184030181529082905262461bcd60e51b8252610bee9160040161398f565b61128e83838361360d565b6001600160a01b0381163b6131ee5760405162461bcd60e51b815260206004820152602d60248201527f455243313936373a206e657720696d706c656d656e746174696f6e206973206e60448201527f6f74206120636f6e7472616374000000000000000000000000000000000000006064820152608401610bee565b7f360894a13ba1a3210667c828492db98dca3e2076cc3735a920a3ca505d382bbc805473ffffffffffffffffffffffffffffffffffffffff19166001600160a01b0392909216919091179055565b61324583613686565b6000825111806132525750805b1561128e57611b8083836136c6565b60975460ff166126a15760405162461bcd60e51b815260206004820152601460248201527f5061757361626c653a206e6f74207061757365640000000000000000000000006044820152606401610bee565b600054610100900460ff1661331e5760405162461bcd60e51b815260206004820152602b60248201527f496e697469616c697a61626c653a20636f6e7472616374206973206e6f74206960448201526a6e697469616c697a696e6760a81b6064820152608401610bee565b603661332a83826140f2565b50603761128e82826140f2565b600054610100900460ff166133a25760405162461bcd60e51b815260206004820152602b60248201527f496e697469616c697a61626c653a20636f6e7472616374206973206e6f74206960448201526a6e697469616c697a696e6760a81b6064820152608401610bee565b6097805460ff19169055565b60006101cb826040516133c19190613f85565b908152604051908190036020018120805492151560ff19909316929092179091557f74e0b2978c99ca20b757f0f8b458fc435f508ea64c542132a673e898b96f535d9061340f90839061398f565b60405180910390a150565b6060610ade6001600160a01b03831660145b6060600061343b836002613f39565b613446906002613e8c565b67ffffffffffffffff81111561345e5761345e61384b565b6040519080825280601f01601f191660200182016040528015613488576020820181803683370190505b5090507f3000000000000000000000000000000000000000000000000000000000000000816000815181106134bf576134bf613e9f565b60200101906001600160f81b031916908160001a9053507f78000000000000000000000000000000000000000000000000000000000000008160018151811061350a5761350a613e9f565b60200101906001600160f81b031916908160001a905350600061352e846002613f39565b613539906001613e8c565b90505b60018111156135be577f303132333435363738396162636465660000000000000000000000000000000085600f166010811061357a5761357a613e9f565b1a60f81b82828151811061359057613590613e9f565b60200101906001600160f81b031916908160001a90535060049490941c936135b7816141b2565b905061353c565b5083156112615760405162461bcd60e51b815260206004820181905260248201527f537472696e67733a20686578206c656e67746820696e73756666696369656e746044820152606401610bee565b60975460ff161561128e5760405162461bcd60e51b815260206004820152602a60248201527f45524332305061757361626c653a20746f6b656e207472616e7366657220776860448201527f696c6520706175736564000000000000000000000000000000000000000000006064820152608401610bee565b61368f81613171565b6040516001600160a01b038216907fbc7cd75a20ee27fd9adebab32041f755214dbc6bffa90cc0225b39da2e5c2d3b90600090a250565b606061126183836040518060600160405280602781526020016141ca602791396060600080856001600160a01b0316856040516137039190613f85565b600060405180830381855af49150503d806000811461373e576040519150601f19603f3d011682016040523d82523d6000602084013e613743565b606091505b50915091506137548683838761375e565b9695505050505050565b606083156137cd5782516000036137c6576001600160a01b0385163b6137c65760405162461bcd60e51b815260206004820152601d60248201527f416464726573733a2063616c6c20746f206e6f6e2d636f6e74726163740000006044820152606401610bee565b50816137d7565b6137d783836137df565b949350505050565b8151156137ef5781518083602001fd5b8060405162461bcd60e51b8152600401610bee919061398f565b60006020828403121561381b57600080fd5b81357fffffffff000000000000000000000000000000000000000000000000000000008116811461126157600080fd5b634e487b7160e01b600052604160045260246000fd5b604051601f8201601f1916810167ffffffffffffffff8111828210171561388a5761388a61384b565b604052919050565b600067ffffffffffffffff8311156138ac576138ac61384b565b6138bf601f8401601f1916602001613861565b90508281528383830111156138d357600080fd5b828260208301376000602084830101529392505050565b600082601f8301126138fb57600080fd5b61126183833560208501613892565b60006020828403121561391c57600080fd5b813567ffffffffffffffff81111561393357600080fd5b6137d7848285016138ea565b60005b8381101561395a578181015183820152602001613942565b50506000910152565b6000815180845261397b81602086016020860161393f565b601f01601f19169290920160200192915050565b6020815260006112616020830184613963565b80356001600160a01b03811681146121e757600080fd5b600080604083850312156139cc57600080fd5b6139d5836139a2565b946020939093013593505050565b600080604083850312156139f657600080fd5b823567ffffffffffffffff811115613a0d57600080fd5b613a19858286016138ea565b925050613a28602084016139a2565b90509250929050565b600067ffffffffffffffff821115613a4b57613a4b61384b565b5060051b60200190565b600082601f830112613a6657600080fd5b81356020613a7b613a7683613a31565b613861565b8083825260208201915060208460051b870101935086841115613a9d57600080fd5b602086015b84811015613ab95780358352918301918301613aa2565b509695505050505050565b60008060408385031215613ad757600080fd5b823567ffffffffffffffff80821115613aef57600080fd5b818501915085601f830112613b0357600080fd5b81356020613b13613a7683613a31565b82815260059290921b84018101918181019089841115613b3257600080fd5b948201945b83861015613b5757613b48866139a2565b82529482019490820190613b37565b96505086013592505080821115613b6d57600080fd5b50613b7a85828601613a55565b9150509250929050565b600080600060608486031215613b9957600080fd5b613ba2846139a2565b9250613bb0602085016139a2565b9150604084013590509250925092565b600060208284031215613bd257600080fd5b5035919050565b60008060408385031215613bec57600080fd5b82359150613a28602084016139a2565b600080600060608486031215613c1157600080fd5b833567ffffffffffffffff811115613c2857600080fd5b613c34868287016138ea565b93505060208401359150604084013560048110613c5057600080fd5b809150509250925092565b803580151581146121e757600080fd5b600060208284031215613c7d57600080fd5b61126182613c5b565b600060208284031215613c9857600080fd5b611261826139a2565b60008060408385031215613cb457600080fd5b613cbd836139a2565b9150602083013567ffffffffffffffff811115613cd957600080fd5b8301601f81018513613cea57600080fd5b613b7a85823560208401613892565b60008060408385031215613d0c57600080fd5b613d15836139a2565b9150602083013567ffffffffffffffff811115613d3157600080fd5b613b7a858286016138ea565b634e487b7160e01b600052602160045260246000fd5b60048110613d7157634e487b7160e01b600052602160045260246000fd5b9052565b60208101610ade8284613d53565b600080600080600060a08688031215613d9b57600080fd5b853567ffffffffffffffff80821115613db357600080fd5b613dbf89838a016138ea565b96506020880135915080821115613dd557600080fd5b50613de2888289016138ea565b94505060408601359250613df860608701613c5b565b9150613e06608087016139a2565b90509295509295909350565b60008060408385031215613e2557600080fd5b613e2e836139a2565b9150613a28602084016139a2565b600181811c90821680613e5057607f821691505b602082108103613e7057634e487b7160e01b600052602260045260246000fd5b50919050565b634e487b7160e01b600052601160045260246000fd5b80820180821115610ade57610ade613e76565b634e487b7160e01b600052603260045260246000fd5b604080825283519082018190526000906020906060840190828701845b82811015613ef75781516001600160a01b031684529284019290840190600101613ed2565b5050508381038285015284518082528583019183019060005b81811015613f2c57835183529284019291840191600101613f10565b5090979650505050505050565b8082028115828204841417610ade57610ade613e76565b600082613f6d57634e487b7160e01b600052601260045260246000fd5b500490565b81810381811115610ade57610ade613e76565b60008251613f9781846020870161393f565b9190910192915050565b604081526000613fb46040830185613963565b90508260208301529392505050565b604081526000613fd66040830185613963565b90506001600160a01b03831660208301529392505050565b60006020828403121561400057600080fd5b5051919050565b60408152600061401a6040830185613963565b90506112616020830184613d53565b7f416363657373436f6e74726f6c3a206163636f756e742000000000000000000081526000835161406181601785016020880161393f565b7f206973206d697373696e6720726f6c6520000000000000000000000000000000601791840191820152835161409e81602884016020880161393f565b01602801949350505050565b601f82111561128e576000816000526020600020601f850160051c810160208610156140d35750805b601f850160051c820191505b81811015611e8a578281556001016140df565b815167ffffffffffffffff81111561410c5761410c61384b565b6141208161411a8454613e3c565b846140aa565b602080601f831160018114614155576000841561413d5750858301515b600019600386901b1c1916600185901b178555611e8a565b600085815260208120601f198616915b8281101561418457888601518255948401946001909101908401614165565b50858210156141a25787850151600019600388901b60f8161c191681555b5050505050600190811b01905550565b6000816141c1576141c1613e76565b50600019019056fe416464726573733a206c6f772d6c6576656c2064656c65676174652063616c6c206661696c6564a2646970667358221220d8fe87590d2fb23f4be1b82d97a0026cd5fb2c80c6ea823c79b1e9f1a936eef464736f6c63430008180033",
  "linkReferences": {},
  "deployedLinkReferences": {}
}